:1005170004630000000088080000000000000000DD
:1005270088000A0A0A0A0A0A0A0A015C00C100C10D
:1005370002015B0001601E015F14015E00015D00A6
:10054700C101203721FF05E5000000010000000080
:10055700FF02730000000A00000000FF058A000088
:1005670000C800000000FF06AF000000A000000068
:0C05770000FF08BA0000012C000000008A
:1002730012081D785AEFF618E66FFE5FFD18F6EFC9
:10028300F45E7861F6785AE618F6ED24FB603A14CA
:10029300604014606324036003020324200010D22F
:1002A30000C2027860E6785EF608E6785DF622C260
:1002B30000785EE6FF18E6FED39F4003D20122C218
:1002C300017860A60718A60622300055A202B39251
:1002D300022230004C200210785DE6FFB463047FF5
:1002E300008028EF04FF8023785EE6FFB463047F79
:1002F30000802AEF04FF8025300026200212785D5B
:10030300E6FF70047F638003EF14FF785DA6072286
:10031300785EE6FF70047F638003EF14FF785EA6C8
:020323000722AF
:10058A007800200020740BF20814F208F208F2082E
:10059A00F208F2785BE6FF75F00A8475F00A84784F
:1005AA0006E5F0802B740CF208740AF208F2785E01
:1005BA00E6FF75F00A847803F2EF75F00A8408E51D
:1005CA00F0F208740AF2785DE6FF75F00A8478069C
:0B05DA00F2EF75F00A8408E5F0F22251
:1005E5007860E6FF785BE6FED39F40047D018002DC
:1005F5007D007808EDF2EED39F500D795BE7C37867
:100605005F9640047F0180027F007809EFF2795BF5
:10061500E7C3785F9650047F0180027F00780AEF78
:10062500F2A201E43308F27BFE7A0079080203B1F5
:1006AF00795BE7D378609640047FCC801F785BE658
:1006BF00FFD3786096500AEFC3189640047F998055
:1006CF000B795BE7C3785F9650057F6612085D2252
:0B08BA00120674120162785BA6072290
:10083400538EBF53890F758B18758DFCC28FD28E62
:05084400D2ABD2AF228F
:03001B0002042BB1
:10042B00C0E0C0F0C083C082C0D075D000C000C097
:10043B0001C002C003C004C005C006C00778631228
:10044B000248EF2401FFE43EFEE43DFDE43CFC7872
:10045B0063120261785C06E65407F6E6FF2400F8A7
:10046B00E2FED394144008EE24D4FD7B01800B787C
:10047B005CE6FF2400F8E2FDE4FB120635D007D062
:10048B0006D005D004D003D002D001D000D0D0D0FC
:08049B0082D083D0F0D0E032E2
:0508CC007862760522B0
:0B04A300E4F508E508C3786296506895
:1004AE00081202488F0C8E0B8D0A8C09E50875F028
:1004BE000BA42424F8120248E50875F00BA4242896
:1004CE00F8120254EB2FFFEA3EFEE93DFDE83CFC3C
:1004DE00AB0CAA0BA90AA809C31202374026AF0C0F
:1004EE00AE0BAD0AAC09E50875F00BA42428F81282
:1004FE000261E50875F00BA42421F808E6FA08E677
:04050E00F912026D6F
:0405120005088090C8
:0105160022C2
:0E08830000007F237E337DB6DDFEDEFCDFFA53
:010891002244
:100849001207931206741208831208CC1208341284
:0408590004A380FB79
:03000000020325D3
:0C032500787FE4F6D8FD75816602036C59
:0407E900D2A07F0516
:1007ED00000000000000000000000000000000AE4E
:0607FD00071FEE70EB2265
:0F089200D2A11207E9C2A17F051207EDC2A02271
:0C08AE00C2A11207E9D2A17F050207EDEC
:0206DF00AD0765
:1006E100E4FCC2A07F051207EDED30E704D2A18042
:1006F10002C2A17F051207EDD2A0ED25E0FD7F0525
:090701001207ED0CBC08DBC2A0DC
:01070A0022CC
:10077600E4FC1207E9ED25E0FD30A103430501C2C3
:0C078600A07F051207ED0CBC08E8AF05D1
:010792002244
:0A07CD00AB071208927F901206DFBE
:1007D7001207E9A2A1E433FDC2A07F051207EDAF1E
:0107E700050C
:0107E80022EE
:10000300C2A0EF24FF92A17F051207ED1207E9C2F8
:08001300A0D2A17F050207ED58
:100732001207CDAF031206DF1207D71208927F917C
:100742001206DF1207D7120776AD077F01120003E8
:050752001208AEAF0526
:01075700227F
:10085D001207CD7F411206DF1207D7AF031206DF55
:03086D000207D7A8
:100793007580FFE5A0541F4480F5A053A01FE4F526
:0D07A30080E5A0541F44A0F5A053A01F2224
:10081D00E4FF20B0027F0720B1027F0620B2027FE5
:06082D000520B3027F0468
:0108330022A2
:06058300010D00010EFF56
:1003B100E4780DF69000011201FC25E0FF1201E343
:1003C1004FFF9000021201FC25E025E04FFF900055
:1003D100031201FC33333354F84FFF900004120130
:1003E100FCC454F04FFF9000051201FCC43354E0EB
:1003F1004FFF9000061201FCC4333354C04FFF90ED
:1004010000071201FCC433333354804FFF780DF6DB
:1004110008E66F601418E6FFF4F580E5A0541F4468
:0A04210080F5A053A01F08A60722D3
:100870007580FFE5A0541F4480F5A053A01FE478C5
:030880000EF6224F
:0D08A100C0F9A4B0999282F88090FFC68C37
:100635007580FFE5A0541F44E0F5A053A01FA8074F
:100645007401088002C333D8FCF580E5A0541F442B
:10065500C0F5A053A01FED9008A193F580EB6003B2
:0F06650053807FE5A0541F44E0F5A053A01F224F
:0608C50000007F09DFFEC8
:0108CB00220A
:040803007F057E00EF
:10080700EF1FAA0670011E4A600BE4FDEDC3940CAE
:0508170050EE0D80F71A
:01081C0022B9
:02075800A907EF
:10075A00E4FBC294E9139294120803D294E9C313F6
:0C076A00F90BBB08ED7F057E00020807BC
:1007B000E4FBC294ECC313FCD2941208C53094033A
:0C07C0004304801208030BBB08E8AF04E0
:0107CC00220A
:10070B00C203D2947F0C7E00120807C2947F507EE6
:10071B0000120807D2947F0A7E00120807A2949257
:06072B0003120803A20303
:0107310022A5
:1006740012070B7FCC1207587F441207587FC87E9D
:100684000012080712070B7FCC1207587FBE12070F
:10069400581207B0A9071207B0EFAD01FCEC120124
:0B06A40029E4FBFA7980783D02001E7B
:10001E00EC4D6011E8497017ED33EC3304600DE4DC
:10002E00FCFFFEFD22E933E8330470F80201CE1224
:10003E00019958046009E4CC248150062850090225
:10004E0001D82840030201D5C0E0EB4A7044B980C4
:10005E0006D0E0FB0201C4EF4E701CBD8008EBFF22
:10006E00EAFEE9FD80EBE98DF0A4FEE5F002010762
:10007E00E9CDF9EAFEEBFFEF89F0A4FCE5F0CE89BD
:10008E00F0A42EFFE435F0CD89F0A42DFEE435F07A
:10009E008067EF4E7005BD80D780C3EF8BF0A4ACA8
:1000AE00F0EE8BF0A42CFCE435F0F8EF8AF0A42CE3
:1000BE00E5F038FCE433CB8DF0A42CFCE5F03BF8F6
:1000CE00EE8AF0A42CFCE5F038F8E433CF89F0A4E6
:1000DE002CFCE5F038CF3400CE89F0A42FFFE5F0EC
:1000EE003EFEE433C98DF0A42EFEE5F039CD8AF044
:1000FE00A42FFFE5F03EFEE43DFD33D0E0FB5007BC
:10010E000BBB000F0201D8EC2CFCEF33FFEE33FEDD
:06011E00ED33FD0201B00B
:1001240075F020800E75F010800575F0087D007E56
:10013400007F003392D530D503120229EC334010EE
:10014400EF33FFEE33FEED33FDEC33FCD5F0ED225F
:0E015400E5F0247EA2D513CC92E7CDCEFF229B
:10016200EDD2E7CD33EC3392D524814006E4FFFE95
:10017200FDFC22FCE4CFCECDCC24E0501174FF80F4
:10018200EDC3CC13CCCD13CDCE13CECF13CF047091
:07019200F030D5DE02022966
:10019900E9D2E7C933E833F892D5EDD2E7CD33ECAC
:0701A90033FC5002B2D52225
:1001B000EC30E7100FBF000C0EBE00080DBD0004B0
:1001C0000BEB6014A2D5EB13FCED92E7FD2274FF5C
:1001D000FCFDFEFF22E480F8A2D574FF13FC7D80B5
:0301E000E480EFC9
:10033100020849E493A3F8E493A34003F68001F291
:1003410008DFF48029E493A3F85407240CC8C333CD
:10035100C4540F4420C8834004F456800146F6DF9C
:10036100E4800B0102040810204080900517E47E10
:10037100019360BCA3FF543F30E509541FFEE49391
:10038100A360010ECF54C025E060A840B8E493A358
:10039100FAE493A3F8E493A3C8C582C8CAC583CA83
:1003A100F0A3C8C582C8CAC583CADFE9DEE780BE3B
:010589000071
:1001E300BB010689828A83E0225002E722BBFE021A
:0901F300E32289828A83E493224D
:1001FC00BB010CE58229F582E5833AF583E02250B8
:10020C0006E92582F8E622BBFE06E92582F8E22201
:0D021C00E58229F582E5833AF583E493221B
:0E022900C3E49FFFE49EFEE49DFDE49CFC22E6
:10023700EB9FF5F0EA9E42F0E99D42F0E89C45F01D
:010247002294
:0C024800E6FC08E6FD08E6FE08E6FF22E2
:0D025400E6FB08E6F908E6FA08E6CBF8221A
:0C026100ECF608EDF608EEF608EFF622C9
:06026D008A838982E4731C
:00000001FF
