:0300000002001EDD
:0C001E00787FE4F6D8FD75810D020065C6
:0302AE00010DA59A
:03001B000201558A
:10015500C0E0C0F0C083C082C0D075D000C000C070
:1001650001C002C003C004C005C006C007AD0D7FB5
:100175008012028CD007D006D005D004D003D0025F
:0F018500D001D000D0D0D082D083D0F0D0E032E3
:10025600538EBF53890F758B18758DFCC28FD28E46
:05026600D2ABD2AF2273
:10021A001202567B007A00790D750C01E4FF120078
:10022A00AAE4F50DFB7A00790D750C01FF120101A4
:02023A0080FE44
:0802A5007F3B7E5ADEFEDFFC08
:0102AD00222E
:100101008F088B098A0A890B12027D7FA012019444
:1001110012026BAF0812019412026B12027D7FA1D1
:1001210012019412026BAF0C150CEF60241201F452
:10013100AB09050BE50BAA0A7002050A14F9EF12C7
:1001410001E2E50C70047F0180027F001200038050
:04015100D502029938
:0800AA008F088B098A0A890BFB
:1000B20012027D7FA012019412026BAF081201940A
:1000C20012026BAF0C150CEF601FAB09050BE50BB1
:1000D200AA0A7002050A14F91201C9FF1201941248
:1000E200026B7FC812024080DA120299E4FDEDC36E
:0E00F200940A7480948050061202A50D80F0CE
:0101000022DC
:04023C00D2A07F05C8
:10024000000000000000000000000000000000AE00
:06025000071FEE70EB2217
:0F027D00D2A112023CC2A17F05120240C2A022F0
:0C029900C2A112023CD2A17F050202406B
:02019400AD07B5
:10019600E4FCECC39408748094805024C2A07F05CC
:1001A600120240ED30E704D2A18002C2A17F0512FF
:1001B6000240D2A0ED25E0FD7F051202400C80D260
:0201C600C2A0D5
:0101C8002214
:1001F400E4FCECC3940874809480501712023CED24
:1002040025E0FD30A103430501C2A07F0512024091
:050214000C80DFAF05C6
:0102190022C2
:10026B0012023CA2A1E433FDC2A07F05120240AFF3
:01027B00057D
:01027C00225F
:10000300C2A0EF24FF92A17F0512024012023CC25C
:08001300A0D2A17F050202400A
:0D028C008D80E5A0541F4FF5A053A01F2248
:10002A0002021AE493A3F8E493A34003F68001F2D0
:10003A0008DFF48029E493A3F85407240CC8C333D7
:10004A00C4540F4420C8834004F456800146F6DFA6
:10005A00E4800B01020408102040809002AEE47E86
:10006A00019360BCA3FF543F30E509541FFEE4939B
:10007A00A360010ECF54C025E060A840B8E493A362
:10008A00FAE493A3F8E493A3C8C582C8CAC583CA8D
:10009A00F0A3C8C582C8CAC583CADFE9DEE780BE45
:0102B100004C
:1001C900BB010689828A83E0225002E722BBFE0234
:0901D900E32289828A83E4932267
:1001E200BB010689828A83F0225002F722BBFE01FC
:0201F200F322F6
:00000001FF
