:030000000201FFFB
:0C01FF00787FE4F6D8FD75810D02017ECA
:03001B000200B927
:1000B900C0E0C0F0C083C082C0D075D000C000C00D
:1000C90001C002C003C004C005C006C0077DFF7F90
:1000D900801201F2D007D006D005D004D003D00297
:0F00E900D001D000D0D0D082D083D0F0D0E03280
:1001BC00538EBF53890F758B18758DFCC28FD28EE1
:0501CC00D2ABD2AF220E
:10017E007508A51201BC7B007A007908750D01E4A3
:10018E00FF1200727B007A007908750D01E4FF12F0
:04019E00001E80FEC1
:080217007F3B7E5ADEFEDFFC96
:01021F0022BC
:10001E008F098B0A8A0B890C1201E37FA01200F85C
:10002E001201D1AF091200F81201D11201E37FA122
:10003E001200F81201D1AF0D150DEF602412015808
:10004E00AB0A050CE50CAA0B7002050B14F9EF12A6
:10005E000146E50D70047F0180027F0012000380CF
:04006E00D502020BAA
:100072008F098B0A8A0B890C1201E37FA01200F808
:100082001201D1AF091200F81201D1AF0D150DEF17
:10009200601FAB0A050CE50CAA0B7002050B14F9E4
:1000A20012012DFF1200F81201D17FC81201A680A1
:0700B200DA12020B02021733
:0401A200D2A07F0563
:1001A600000000000000000000000000000000AE9B
:0601B600071FEE70EB22B2
:0F01E300D2A11201A2C2A17F051201A6C2A022C1
:0C020B00C2A11201A2D2A17F050201A62F
:0200F800AD0752
:1000FA00E4FCECC39408748094805024C2A07F0569
:10010A001201A6ED30E704D2A18002C2A17F051236
:10011A0001A6D2A0ED25E0FD7F051201A60C80D232
:02012A00C2A071
:01012C0022B0
:10015800E4FCECC394087480948050171201A2ED5B
:1001680025E0FD30A103430501C2A07F051201A6C9
:050178000C80DFAF0563
:01017D00225F
:1001D1001201A2A2A1E433FDC2A07F051201A6AFC4
:0101E1000518
:0101E20022FA
:10000300C2A0EF24FF92A17F051201A61201A2C292
:08001300A0D2A17F050201A6A5
:0D01F2008D80E5A0541F4FF5A053A01F22E3
:10012D00BB010689828A83E0225002E722BBFE02D0
:09013D00E32289828A83E4932203
:10014600BB010689828A83F0225002F722BBFE0198
:02015600F32292
:00000001FF
