:1007F3007580FFE5A0541F4480F5A053A01FE4F5C6
:0D08030080E5A0541F44A0F5A053A01F22C3
:10084700E4FF20B3027F0420B2027F0520B1027FBC
:060857000620B0027F073D
:01085D002278
:0307C900010BFF22
:0606ED008B088A09890A4E
:1006F300E4FFFEAB08AA09A90A8E827583001202E1
:10070300EAFDA806088002C333D8FC42070EBE08E0
:10071300E2EF650B6011EFF4F580E5A0541F448010
:07072300F5A053A01F8F0B8E
:01072A0022AC
:0F08AC00C0F9A4B0999282F88090FFBF8EC8C1A6
:1006AE007580FFE5A0541F44E0F5A053A01FA807D6
:1006BE007401088002C333D8FCF580E5A0541F44B2
:1006CE00C0F5A053A01FED9008AC93F580EB60032E
:0F06DE0053807FE5A0541F44E0F5A053A01F22D6
:04082D00D2A07F05D1
:10083100000000000000000000000000000000AE09
:06084100071FEE70EB2220
:0F08BB00D2A112082DC2A17F05120831C2A022BE
:100769001208BB7F9012079D12088AAF0312079DDA
:1007790012088A1208BB7F9112079D12088A120873
:0807890010AD077F011200030F
:0C079100C2A112082DD2A17F0502083180
:02079D00AD07A6
:10079F00E4FCC2A07F05120831ED30E704D2A1803E
:1007AF0002C2A17F05120831D2A0ED25E0FD7F0521
:0907BF001208310CBC08DBC2A0D9
:0107C800220E
:10081000E4FC12082DED25E0FD30A103430501C2E3
:0C082000A07F051208310CBC08E8AF05F1
:01082C0022A9
:10088A0012082DA2A1E433FDC2A07F05120831AFE0
:01089A000558
:01089B00223A
:10000300C2A0EF24FF92A17F0512083112082DC26E
:08001300A0D2A17F0502083113
:0208CA00AB077A
:0808CC00120769120769AF056C
:0108D4002201
:1007CC008800000000000000000088080A0A0A0ADD
:1007DC000A0A0A0A88100000000000000000023714
:0607EC0001F402318CA0B3
:100588007833E6600302061276011208477830EFE6
:10059800F6782EE6FEF45FFD782CF6EFF45E7839F7
:1005A800F6782EA607BD0702D2027839E6B40723EB
:1005B800C2027821B6030808B6E804B203800E78B0
:1005C80026E6FE08E6FF7831A60608A607E47821A5
:1005D800F608F6782CE624FB601914601F240270D4
:1005E80029782506E6B40302E4F67825E6B4021A6B
:1005F800C200227825E6B40211B200227828E6FE6D
:0B06080008E6FF7837A60608A60722C8
:10001E00782DE660030202E976017825E614700376
:10002E000200F6147003020272240260030202E957
:10003E007808740CF208740AF208F2200103020226
:10004E00E97826E6FE08E6FF7C277D101203177C72
:10005E00007D0A120317ED4C6004AF0580027F0A83
:10006E00780BEFF27826E6FE08E6FF7C037DE812B9
:10007E0003177C007D0A120317ED4C700A780BE211
:10008E00B40A047F0A8002AF05780CEFF27826E6F8
:10009E00FE08E6FF7C007D641203177C007D0A12C9
:1000AE000317ED4C700A780CE2B40A047F0A800242
:1000BE00AF05780DEFF2E47805F27826E6FE08E655
:1000CE00FF7C007D0A1203177C007D0A120317EDD8
:1000DE004C700A780DE2B40A047F0A8002AF0578EC
:1000EE000EEFF278260202617826E6FE08E6FBAAFB
:1000FE0006E4F9F87F407E427D0FFC12066A7834E2
:10010E00EEF608EFF67808740DF2E4FCFD7B407A0B
:10011E0042790FF812066AE47B0AFAF9F812066AB7
:10012E00AC00AD01AE02AF03EC4D4E4F6021783402
:10013E00E6FE08E6FFE4FCFD7B407A42790FF812FA
:10014E00066AE47B0AFAF9F812066AAF0380027FA8
:10015E000A7809EFF27834E6FE08E6FFE4FCFD7B50
:10016E00A07A867901F812066AE47B0AFAF9F81287
:10017E00066AAC00AD01AE02AF03EC4D4E4F700AF5
:10018E007809E2B40A047F0A801F7834E6FE08E696
:10019E00FFE4FCFD7BA07A867901F812066AE47B07
:1001AE000AFAF9F812066AAF03780AEFF27834E623
:1001BE00FE08E6FF7C277D101203177C007D0A12D5
:1001CE000317ED4C700A780AE2B40A047F0A800223
:1001DE00AF05780BEFF27834E6FE08E6FF7C037D80
:1001EE00E81203177C007D0A120317ED4C700A7893
:1001FE000BE2B40A047F0A8002AF05780CEFF278A6
:10020E0034E6FE08E6FF7C007D641203177C007D59
:10021E000A120317ED4C700A780CE2B40A047F0A36
:10022E008002AF05780DEFF27834E6FE08E6FF7C2B
:10023E00007D0A1203177C007D0A120317ED4C7025
:10024E000A780DE2B40A047F0A8002AF05780EEF39
:10025E00F27834E6FE08E6FF7C007D0A120317787A
:10026E000FEDF2227808740EF208740BF2200004DF
:10027E007F0180027F03780AEFF208740AF208F217
:10028E00200004782A80027828E6FE08E6FF7C002B
:10029E007D64120317780DEFF278057401F22000D9
:1002AE0004782A80027828E6FE08E6FF7C007D0AA4
:1002BE001203177C007D0A120317AF05780EEFF2BA
:1002CE00200004782A80027828E6FE08E6FF7C00EB
:0C02DE007D0A120317AF05780FEFF22223
:10072B00782FE6703876017F011208CAEF75F064F6
:10073B00A4FFAEF07C007D33120317782AA60608BF
:10074B00A6077F031208CAEF75F064A4FFAEF07C16
:0E075B00007D331203177828A60608A6072291
:10061300200347D37929E778389619E718964004D9
:100623007F0180027F007810EFF2D37927E77832D9
:100633009619E7189640047F0180027F007811EF36
:10064300F2E4FF7825E6B507047E0180027E00749C
:10065300122FF8EEF20FBF03EA22E47810F208F249
:0606630008F208F208F2A3
:01066900226E
:10089C005389F0438905E4F58AF58CC28DD28C22FC
:10087500538EBF53890F758B18758DFCC28FD28E21
:05088500D2ABD2AF224E
:03001B0002043AA2
:10043A00C0E0C0F0C083C082C0D075D000C000C088
:10044A0001C002C003C004C005C006C00778330655
:10045A00E6B40A027600782D06E6B40A0276007837
:10046A002F06E6B40A027600783606E6B408027663
:10047A00007836E6FF2408F8E2FD7836E62400F82C
:10048A00E2FB1206AE7BFE7A0079101206ED7823A3
:10049A000806E618700106FF8606BE031DBFE81AA5
:1004AA00D20178237600087600AF8CEFAD8A7826E1
:1004BA00F6ED08F6758A00758C0030021A78210864
:1004CA0006E6187001068606C394E8EE9403400710
:1004DA00782176030876E8D007D006D005D004D074
:1004EA0003D002D001D000D0D0D082D083D0F0D0B7
:0204FA00E032EE
:10085E001207F312089C120875120613120588125D
:07086E00001E12072B80F2AF
:030000000204FCFB
:0C04FC00787FE4F6D8FD758139020543D5
:1002EA00BB010CE58229F582E5833AF583E02250C9
:1002FA0006E92582F8E622BBFE06E92582F8E22213
:0D030A00E58229F582E5833AF583E493222C
:10031700BC000BBE0029EF8DF084FFADF022E4CCCA
:10032700F875F008EF2FFFEE33FEEC33FCEE9DEC93
:10033700984005FCEE9DFE0FD5F0E9E4CEFD22EDD9
:10034700F8F5F0EE8420D21CFEADF075F008EF2F23
:10035700FFED33FD4007985006D5F0F222C398FD14
:050367000FD5F0EA22B1
:10066A00C2D5E830E70FB2D5E4C39BFBE49AFAE4BB
:10067A0099F9E498F8EC30E717B2D51206A01203FC
:10068A00A8E4C39BFBE49AFAE499F9E498F8800396
:10069A001203A830D50DE4C39FFFE49EFEE49DFD3E
:0406AA00E49CFC22AE
:1005080002085EE493A3F8E493A34003F68001F2A3
:1005180008DFF48029E493A3F85407240CC8C333F4
:10052800C4540F4420C8834004F456800146F6DFC3
:10053800E4800B01020408102040809007C9E47E83
:10054800019360BCA3FF543F30E509541FFEE493B8
:10055800A360010ECF54C025E060A840B8E493A37F
:10056800FAE493A3F8E493A3C8C582C8CAC583CAAA
:10057800F0A3C8C582C8CAC583CADFE9DEE780BE62
:0107F2000006
:10036C0075F008758200EF2FFFEE33FECD33CDCC48
:10037C0033CCC58233C5829BED9AEC99E5829840CB
:10038C000CF582EE9BFEED9AFDEC99FC0FD5F0D6A8
:10039C00E4CEFBE4CDFAE4CCF9A88222B800C1B9D2
:1003AC000059BA002DEC8BF084CFCECDFCE5F0CB10
:1003BC00F97818EF2FFFEE33FEED33FDEC33FCEB49
:1003CC0033FB10D703994004EB99FB0FD8E5E4F904
:1003DC00FA227818EF2FFFEE33FEED33FDEC33FCF1
:1003EC00C933C910D7059BE99A4007EC9BFCE99AE5
:1003FC00F90FD8E0E4C9FAE4CCFB2275F010EF2F2A
:10040C00FFEE33FEED33FDCC33CCC833C810D70729
:10041C009BEC9AE899400AED9BFDEC9AFCE899F864
:0E042C000FD5F0DAE4CDFBE4CCFAE4C8F922F7
:00000001FF
