:0300000002044DAA
:0C044D00787FE4F6D8FD75812902049444
:0906C5004552524F52004F4B0008
:10060500012200012900880000000A0A0A0A0A0AD4
:0C0615000227011802230000022500004B
:100548007829E6C3946474809480402DE4F6782575
:10055800E6FA08E6FB7C007D0AFFAE0212036A7C1D
:10056800007D0A12036A7800EDF27C007D0AAF0371
:0A057800AE0212036A7801EDF222D0
:1005E7007826E67BFF30E0067A0679C580047A062E
:0E05F70079CB120070782606E61870010622F5
:1005B900C37824E6947818E694004021C2AF7827DE
:1005C900E6FE08E6D2AF9418EE94014010C2AF746B
:0D05D900E826F61874FE36F6D2AF1205E7DC
:0105E60022F2
:03000B000204D913
:1004D900C0E0C0F0C083C082C0D075D000C000C0E9
:1004E90001C002C003C004C005C006C007782906C0
:1004F900C37824E6947818E6940050090806E618AB
:10050900700B068008782806E6187001067822061E
:10051900E664087001F67822E6FF2400F8E2FDC2DD
:1005290009120582D007D006D005D004D003D00225
:0F053900D001D000D0D0D082D083D0F0D0E0322B
:10065100538E7F5389F0758A18758CFCC28DD28CAC
:05066100D2A9D2AF2276
:1006660012069F120651120622C2AC120548120546
:03067600B980F850
:0E069F007DFF7F801206ADE4FD7FA00206AD58
:0B06BA003F065B4F666D7D077F6F0001
:100582008F1C8D1D7DFF7FE01206ADAF1CA8077486
:1005920001088002C333D8FCFD7FC01206ADE51D01
:1005A2009006BA93FF3009047E8080027E00EF4EEF
:0705B200F4FD7FE00206AD3D
:10062200759850538EBF538EFE53890F758BE675A6
:090632008DFFC2ABD28ED2AC22C6
:10067900759A50538EFB75D7E675D6FF438E104396
:03068900AF01229C
:10068C00759AD0438E0475D7E675D6FF438E10430A
:03069C00AF012289
:10063B00300A05439A048003539AFB8F9BE59A304B
:06064B00E1FB539AFD22C1
:080003008F993099FDC299228A
:0D06AD008D80E5A0541F4FF5A053A01F2223
:10045900020666E493A3F8E493A34003F68001F24D
:1004690008DFF48029E493A3F85407240CC8C333A4
:10047900C4540F4420C8834004F456800146F6DF73
:10048900E4800B0102040810204080900605E47EF8
:10049900019360BCA3FF543F30E509541FFEE49368
:1004A900A360010ECF54C025E060A840B8E493A32F
:1004B900FAE493A3F8E493A3C8C582C8CAC583CA5A
:1004C900F0A3C8C582C8CAC583CADFE9DEE780BE12
:0106210000D8
:10036A00BC000BBE0029EF8DF084FFADF022E4CC77
:10037A00F875F008EF2FFFEE33FEEC33FCEE9DEC40
:10038A00984005FCEE9DFE0FD5F0E9E4CEFD22ED86
:10039A00F8F5F0EE8420D21CFEADF075F008EF2FD0
:1003AA00FFED33FD4007985006D5F0F222C398FDC1
:0503BA000FD5F0EA225E
:10000E00E517240BF8E60517227808300702780B5F
:10001E00E475F0011204170203BF2000EB7F2ED20D
:10002E00008018EF540F2490D43440D4FF30040BCA
:10003E00EF24BFB41A0050032461FFE518600215C7
:10004E0018051BE51B7002051A30070D7808E475BC
:10005E00F001120417EF0204050200037403D20725
:10006E008003E4C207F5178B088A09890AE4F5189C
:10007E00F51AF51BE51860077F2012004980F5750B
:10008E0019FFC201C200C202C203C205C206C208E3
:10009E00120017FF700D3007057F0012005AAF1BBC
:1000AE00AE1A22B4255FC2D5C204120017FF24D0A7
:1000BE00B40A00501A75F00A781830D50508B6FF44
:1000CE000106C6A426F620D5047002D20380D924D8
:1000DE00CFB41A00EF5004C2E5D20402025AD20184
:1000EE0080C6D20080C0D20280BCD2D580BAD205E2
:1000FE0080B47F201200492002077401B518004019
:10010E00F112000EFF120049020082D208D20680C0
:10011E009512000EFB12000EFA12000EF94A4B70E9
:10012E0006792B7A037BFF20022EE518602A7E00CB
:10013E008E827583001203D860060EEE651970F07C
:10014E00C2D5EBC0E0EAC0E0E9C0E0EE1202A1D0F9
:10015E00E0F9D0E0FAD0E0FB1203BFFF60AAEBC0DB
:10016E00E0EAC0E0E9C0E0120049D0E02401F9D095
:10017E00E03400FAD0E0FBE5190460DCD519D98033
:10018E00877BFF7A02799DD202809C79108002795A
:10019E0008C206C2088008D2D5790A8004790AC23C
:1001AE00D5E519047002F519E4FAFDFEFF12000EF2
:1001BE00FC7B0820011312000EFD7B1030000A128A
:1001CE00000EFE12000EFF7B20EC3382D592D5502E
:1001DE0013C3E43000069FFFE49EFEE42001039D5E
:1001EE00FDE49CFCE4CBF8C201EC700CCFCECDCC80
:1001FE00E824F8F870F38017C3EF33FFEE33FEED0B
:10020E0033FDEC33FCEB33FB994002FB0FD8E9EBEB
:10021E00300105F8D0E0C448B201C0E00AEC4D4E02
:10022E004F78207B0070C2EAB5190040BCC0E012C6
:10023E0002A3D0F0D0E0200104C4C0E0C4B201C0DB
:10024E00F0120032D0F0D5F0EB020082120427013A
:10025E001F5301995800F04C00EC42019D4F01A52F
:0F026E004401A54901054301AB55018F46018F9E
:10027D0045018F47034B5000F42D00F82E011B2B29
:10028D0000FC2301192003342A00B4480000011397
:10029D003F3F3F00790AA2D5200314300509B9105C
:1002AD00020404B9080104A2D5200602500104205D
:1002BD0002689202B518005034C0E07F2030031957
:1002CD007F30A20272067205500F1202FAC202C2EC
:1002DD0006C205C2087F30800F300503E9C0E01269
:1002ED000049300503D0E0F9D0E0B518CC30051742
:1002FD007F30B9100C1200497F583004077F788089
:10030D0003B908031200493002057F2D0200497F11
:10031D00202008F87F2B2006F322920280CF286E32
:10032D00756C6C2900D20112000E3001F8C20178F3
:10033D001830D50108F60200B42D5043495812006B
:10034D000E2403B405004001E49003469312003AD5
:0D035D00743A12003AD20375180402019997
:1003BF00BB010689828A83E0225002E722BBFE023C
:0903CF00E32289828A83E493226F
:1003D800BB010CE58229F582E5833AF583E02250DA
:1003E80006E92582F8E622BBFE06E92582F8E22224
:0D03F800E58229F582E5833AF583E493223E
:10040500BB010689828A83F0225002F722BBFE01D6
:02041500F322D0
:10041700FAE6FB0808E6F925F0F618E6CA3AF622E6
:10042700D083D082F8E4937012740193700DA3A364
:1004370093F8740193F5828883E473740293686078
:06044700EFA3A3A380DF78
:00000001FF
