:030000000210D219
:0C10D200787FE4F6D8FD7581B602111994
:101579002325753F256E002562752E2562756B50F2
:101589006140252E3262753A252E326275000000BF
:011599000051
:100DE7008818000000000000000088030A0A0A0AA9
:100DF7000A0A0A0A018D0083000B0C0D8A0B0000FA
:100E07000000000000000000014200C104C107010A
:100E1700B200014100C10B831500000001960001DB
:100E2700980001930001940002430000C100C10C27
:100E3700C10502910000028F0000C106C102159D85
:100E4700000000000000000000000000000000009B
:100E57000000000000019700C108C10AC10901870D
:100E670000C10102990000C103019B00204245FF18
:100E770015BB0000000100000000FF09860000000C
:100E87000A00000000FF0CC400000014000000006E
:100E9700FF16800000006400000000FF0F860000BE
:100EA700009600000000FF102E0000000A0000005E
:010EB700003A
:100986001212BA788CEFF618E66FFE5FFD7889F6DC
:10099600EFF45E7895F6788CE618F6BD050AE478ED
:1009A60043F608F6D200C20C7843E6FE08E6FFC31B
:1009B60094B8EE940B4044200C41D20C30042CC267
:1009C600047893E6FD7896E6B505087998E7789475
:1009D600666003D38001C39205E47891F608F67841
:1009E60096A6057894E67898F68010D204C2077821
:1009F60096E67893F67898E67894F67895E6B405D0
:100A060018C3EF94B8EE940B5005300402B207E415
:100A16007843F608F6C200C20C7889E6B40D0AE4FB
:100A2600788FF608F6D206C202C37890E694B81814
:100A3600E6940B404F20024CD20278417608789318
:100A4600765A7896765AE47894F67898F6FB7A0091
:100A56007941F52B752C017D031213FE7B007A007C
:100A66007996752B00752C017D021213FE7B007A98
:100A7600007998752B00752C017D011213FEC204B6
:100A8600E47842F67895E6640D7029C37890E6948A
:100A9600B818E6940B50132004107842E6B4020A04
:100AA600E47815F208F208F2C20BE4788FF608F63D
:100AB600C206C2022004687889E624F8602314601E
:100AC6003624FD604524086003020B847842E62440
:100AD60001FFE433FE7C007D0312081B7842A60565
:100AE600227842E664016003020B8418E6D394017F
:100AF6005003020B8416227842E664016003020B5F
:100B06008418E6C39464507606227842E66401703F
:100B16006DFB7A007941F52B752C017D03805C789D
:100B260089E624F7601F24FD6032240470502007F4
:100B36000A7893E6D39400404516227894E6D39437
:100B460000403B162220070A7893E6C39463502E92
:100B560006227894E6C39463502406227B0020077D
:100B66000E7A007993752B00752C017D02800C7A24
:0F0B7600007994752B00752C017D011213FE225E
:100CC40030043178037410F220071408740EF2080B
:100CD400740AF208F208F2087411F27893805878D2
:100CE40004740FF208740AF208F208F2087411F29C
:100CF400789480437842E614604E147003020DA089
:100D040024026003020DE67800E2FF75F00A84789D
:100D140003F2EF75F00A8408E5F0F27801E2FF755A
:100D2400F00A847805F2EF75F00A8408E5F0F20819
:100D3400740AF208F278B2E6FF75F00A8475F00AD4
:100D440084E5F0242C020DCC7803740BF208740DA6
:100D5400F208740AF208F208F27841E6FFC39464D8
:100D6400400DEF75F0648475F00A84AFF080027F63
:100D74000A7808EFF27841E6FFC3940A400DEF7554
:100D8400F00A8475F00A84AFF080027F0A7809EFD4
:100D9400F27841E675F00A84780A80357803740C99
:100DA400F208F208740AF208F2300B297815E2FF0F
:100DB40075F00A847807F2EF75F00A8408E5F0F21A
:100DC4007816E2FF75F00A847809F2EF75F00A8468
:100DD40008E5F0F2227807740AF208F208F20874BF
:030DE40011F222E7
:1015BB00A209E4337818F2A203E43308F2A20BE495
:0C15CB003308F27BFE7A00791802115EF2
:091680007BFE7A00790002144699
:100F8600E4F9FBFAF523F524F525F526C20D7F03D2
:100F9600121554A9077898E6FF7896E6C39FFFE4F2
:100FA6009400FEAD017C001208097DFF12081BEFBC
:100FB60078982678B2F6E6FF7A00FB7897E6FE2464
:100FC6009DF8A607300853EE2401FFE433FE7C00AB
:100FD6007D1512081B749D2DF8E6752300F524C3B4
:100FE600EB9524F526EA9523F525FEC3E52694F12F
:100FF600EE6480947F50028001C3920D2005133069
:101006000D10200A0DD20AD20B7BFE7A007915123A
:101016001446300A05200D02C20A789706E6C394E4
:07102600154004E4F6D208B6
:01102D0022A0
:10102E00E4FFFEF525F5267888E670030210D178E8
:10103E008EE6C3940A50030210D1E4788AF6788EB5
:10104E00F6752AFF752B15752C79F52D752E0075F5
:10105E002F23F5307531007532257BFE7A00790B22
:10106E00120400EF64014E7045E5266405452570B7
:10107E003D7841E665247002E5237032D2017899FD
:10108E00760B0876B8C2097887F67BFF7A157980D9
:10109E0078B2E6FF75F00A84F52AEF75F00A8485BA
:1010AE00F02B7815E2F52C08E2F52D1200887888E1
:1010BE00E6FF7E007D007BFE7A00790B1208ACE421
:0310CE007888F629
:0110D10022FC
:1015F300538EBF53890F758B18758DFCC28FD28E96
:05160300D2ABD2AF22C2
:03001B00020B8550
:100B8500C0E0C0F0C083C082C0D075D000C000C036
:100B950001C002C003C004C005C006C00778B31277
:100BA5000881EF2401FFE43EFEE43DFDE43CFC78D2
:100BB500B312089A788D06E65407F6E6FF2403F883
:100BC500E2FED394144008EE24D4FDD216800B78AF
:100BD5008DE6FF2403F8E2FDC216121318788AE6A3
:100BE5006003788E0630001C78430806E61870010D
:100BF500068606C394B8EE940B40107843760B082E
:100C050076B980077843760008760030051E78911E
:100C15000806E6187001068606C394B8EE940B40E4
:100C25001278917600087600C205800778917600E3
:100C350008760030061C788F0806E61870010686CF
:100C450006C394B8EE940B4010788F760B0876B9EE
:100C55008007788F760008760030012D789908E6B0
:100C65001618700116148606D39400EE94004011F0
:100C7500788706E694C840117600A209B3920980E8
:100C850008C20178877600C209300418789B06E609
:100C9500C394C840097600A203B392038006789BEB
:100CA5007600C203D007D006D005D004D003D00209
:0F0CB500D001D000D0D0D082D083D0F0D0E032A8
:0300230002125274
:10125200C0E0C0F0C083C082C0D075D000C000C062
:1012620001C002C003C004C005C006C00730982DEB
:10127200788A7601788E76007888E606240BF8E57F
:1012820099F2C2987888E6C3940A401176007E00EB
:101292007F0A7D007BFE7A00790B1208ACD007D062
:1012A20006D005D004D003D002D001D000D0D0D0D7
:0812B20082D083D0F0D0E032BD
:05001E00789C7606222B
:0B11DD00E4F527E527C3789C965069D5
:1011E80078B31208818F2B8E2A8D298C28E52775D4
:1011F800F00BA4244CF8120881E52775F00BA42401
:1012080048F812088DEB2FFFEA3EFEE93DFDE83C69
:10121800FCAB2BAA2AA929A828C31208704026AF1C
:101228002BAE2AAD29AC28E52775F00BA4244CF881
:1012380012089AE52775F00BA42445F808E6FA0881
:05124800E6F91208A602
:04124D000527808F62
:01125100227A
:100ED30078247C007D007BFF7A1579977E007F0361
:100EE3001207691215067B007A007923752B0075AA
:100EF3002C01E4FD1213B4E523B4AA1F7B007A008E
:100F03007924752B00752C037D011213B47898A6F0
:100F1300247896A6257841A62680517841760878CC
:100F230096765AE47898F6FB7A007941F52B752C7E
:100F3300017D031213FE7B007A007996752B0075F1
:100F43002C017D021213FE7B007A007998752B0029
:100F5300752C017D011213FE7523AA7B007A00799B
:100F630023752B00752C01E4FD1213FE7BFE7A0022
:100F7300790012136712001E1200031215F31211E7
:030F8300DD80FB13
:1012BA00E4FFD2C4D2C2D2B520B00122C2C4D2C283
:1012CA00D2B520B2027F0520B3027F04D2C4D2C2B3
:1012DA00D2B520B0037F0022D2C4C2C2D2B520B296
:1012EA00027F0920B3027F08D2C4D2C2D2B520B08D
:1012FA00037F0022D2C4D2C2C2B520B2027F0D201F
:0D130A00B3027F0CD2C4D2C2D2B543B0EF03
:0113170022B3
:060EB800010900010AFF20
:10115E00E47809F69000011207A825E0FF12078F28
:10116E004FFF9000021207A825E025E04FFF9000E8
:10117E00031207A833333354F84FFF9000041207BD
:10118E00A8C454F04FFF9000051207A8C43354E0D2
:10119E004FFF9000061207A8C4333354C04FFF9080
:1011AE0000071207A8C433333354804FFF7809F673
:1011BE0008E66F601918E6FFF4F580E5A0541FFEEF
:0E11CE004306808EA0E5A0541FF5A008A607DA
:0111DC0022F0
:100EBE009220C0F9A4B0999282F88090FF88C686DD
:040ECE0089C78CBF85
:101318007580FFE5A0541FFE4306E08EA0E5A054AB
:101328001FFEF5A0A8077401088002C333D8FCF596
:1013380080E5A0541FFE4306C08EA0E5A0541FF50B
:10134800A074202DF8E2F58030160353807FE5A0C5
:0E135800541FFE4306E08EA0E5A0541FF5A032
:011366002264
:101506007580FFE5A0541FFF4307808FA0E5A05418
:101516001FF5A0E4F580E5A0541FFF4307A08FA0A8
:06152600E5A0541FF5A032
:01152C00229C
:10161C00E4FEC297EF1392A3EFC313FFD2970EBE53
:02162C0008F0C4
:01162E002299
:10160800C29300C29700D2930012161CAF0512169F
:041618001CC293223B
:10147E00E4FDC29300C29700D2930012161CE4FF43
:10148E00C297EDC313FD30A303430580D2970FBF60
:10149E0008EEC29300C29700D29700C2A300D2A357
:0314AE0000AF0587
:0114B1002218
:061367008B278A2889296A
:10136D00E4FD7F8E1216087D807F80121608E4FC46
:10137D00EC25E0FFC374849FFFAB27AA28A9298C15
:10138D00827583001207A8FE75F00A84C454F0FD1F
:10139D00EE75F00A84ED25F0FD1216080CBC03D095
:0713AD007D807F8E0216080F
:061446008B278A2889298A
:10144C00C2AFE4FCEC25E0FFC374859FFF12147E51
:10145C00EFC4540F75F00AA4FEEF540F2EAB27AA5D
:10146C0028A9298C827583001207E70CBC03D5D2FE
:01147C00AFC0
:01147D00224C
:10152D007FFF12153E7FFF12153E7FFF12153E7F86
:01153D00FFAE
:10153E00000000000000000000000000000000AEEF
:06154E00071FEE70EB2206
:10162F00D2A1D2A07F0512153EC2A17F0512153E91
:03163F00C2A02224
:10166600C2A1D2A07F0512153ED2A17F0502153E6A
:0214B200AD0784
:1014B400E4FCC2A07F0512153EED30E704D2A18002
:1014C40002C2A17F0512153ED2A0ED25E0FD7F05E5
:0914D40012153E0CBC08DBC2A09D
:0114DD0022EC
:10159A00E4FCD2A07F0512153EED25E0FD30A10343
:1015AA00430501C2A07F0512153E0CBC08E4AF0535
:0115BA00220E
:1014DE00AB0512162F7FA01214B21214F0AF031226
:0214EE0014B236
:1014F000D2A07F0512153EA2A1E433FDC2A07F0554
:0515000012153EAF05CD
:0115050022C3
:1015D700C2A0EF24FF92A17F0512153ED2A07F057E
:0C15E70012153EC2A0D2A17F0502153EE5
:02155400AB07E3
:1015560012162F7F901214E512162F7F911214B2D5
:101566001214F012159AAD077F011215D7121666DE
:02157600AF05BF
:011578002250
:1013FE008B278A2889291214DEE52C152CAE2B702A
:10140E0002152B4E601FAB270529E529AA2870026D
:10141E00052814F912078FFF1214B21214F07FC8A8
:10142E0012153E80D412166612152D7FFF12153E30
:08143E0012152D7FFF02153E7F
:1013B4008B278A2889291214DE12162F7FA1121472
:1013C400B21214F0E52C152CAE2B7002152B4E60C6
:1013D4002612159AAB270529E529AA2870020528A3
:1013E40014F9EF1207D5E52C452B6004E4FF8002C5
:0A13F4007F011215D780CD021666A6
:10000300759850438E01538EFB75D7E675D6FF4323
:070013008E10D2ACD2AF2227
:081689008F993099FDC29922EE
:1010DE00020ED3E493A3F8E493A34003F68001F247
:1010EE0008DFF48029E493A3F85407240CC8C33313
:1010FE00C4540F4420C8834004F456800146F6DFE2
:10110E00E4800B0102040810204080900DE7E47E7D
:10111E00019360BCA3FF543F30E509541FFEE493D6
:10112E00A360010ECF54C025E060A840B8E493A39D
:10113E00FAE493A3F8E493A3C8C582C8CAC583CAC8
:10114E00F0A3C8C582C8CAC583CADFE9DEE780BE80
:010ED200001F
:10069900E709F608DFFA8046E709F208DFFA803E43
:1006A90088828C83E709F0A3DFFA8032E309F60830
:1006B900DFFA8078E309F208DFFA807088828C8398
:1006C900E309F0A3DFFA806489828A83E0A3F6084C
:1006D900DFFA805889828A83E0A3F208DFFA804C26
:1006E90080D280FA80C680D4806980F280338010FD
:1006F90080A680EA809A80A880DA80E280CA803366
:1007090089828A83ECFAE493A3C8C582C8CCC583DD
:10071900CCF0A3C8C582C8CCC583CCDFE9DEE780AD
:100729000D89828A83E493A3F608DFF9ECFAA9F02C
:10073900EDFB2289828A83ECFAE0A3C8C582C8CC82
:10074900C583CCF0A3C8C582C8CCC583CCDFEADE9B
:10075900E880DB89828A83E493A3F208DFF980CCFD
:1007690088F0EF60010E4E60C388F0ED2402B404F6
:100779000050B9F582EB2402B4040050AF2323459D
:0607890082239006E973D3
:10078F00BB010689828A83E0225002E722BBFE0268
:09079F00E32289828A83E493229B
:1007A800BB010CE58229F582E5833AF583E0225006
:1007B80006E92582F8E622BBFE06E92582F8E22250
:0D07C800E58229F582E5833AF583E493226A
:1007D500BB010689828A83F0225002F722BBFE0103
:0207E500F322FD
:1007E700F8BB010DE58229F582E5833AF583E8F048
:1007F700225006E92582C8F622BBFE05E92582C8F4
:02080700F222DB
:10080900EF8DF0A4A8F0CF8CF0A428CE8DF0A42E03
:02081900FE22BD
:10081B00BC000BBE0029EF8DF084FFADF022E4CCC1
:10082B00F875F008EF2FFFEE33FEEC33FCEE9DEC8A
:10083B00984005FCEE9DFE0FD5F0E9E4CEFD22EDD0
:10084B00F8F5F0EE8420D21CFEADF075F008EF2F1A
:10085B00FFED33FD4007985006D5F0F222C398FD0B
:05086B000FD5F0EA22A8
:10087000EB9FF5F0EA9E42F0E99D42F0E89C45F0DE
:010880002255
:0C088100E6FC08E6FD08E6FE08E6FF22A3
:0D088D00E6FB08E6F908E6FA08E6CBF822DB
:0C089A00ECF608EDF608EEF608EFF6228A
:0608A6008A838982E473DD
:10002600E536242AF8E60536227827301402782A9F
:10003600E475F00112092802078F200DEB7F2ED2FE
:100046000D8018EF540F2490D43440D4FF30110B98
:10005600EF24BFB41A0050032461FFE53760021590
:1000660037053AE53A7002053930140D7827E475FC
:10007600F001120928EF0207D50216897403D2147B
:100086008003E4C214F5368B278A288929E4F537DC
:10009600F539F53AE53760077F2012006180F5757E
:1000A60038FFC20EC20DC20FC210C212C213C21551
:1000B60012002FFF700D3014057F00120072AF3A48
:1000C600AE3922B4255FC2D5C21112002FFF24D04B
:1000D600B40A00501A75F00A783730D50508B6FF0D
:1000E6000106C6A426F620D5047002D21080D924B3
:1000F600CFB41A00EF5004C2E5D211020272D20E3A
:1001060080C6D20D80C0D20F80BCD2D580BAD212A2
:1001160080B47F20120061200F077401B5370040BC
:10012600F1120026FF12006102009AD215D2138046
:1001360095120026FB120026FA120026F94A4B7089
:100146000679437A037BFF200F2EE537602A7E006F
:100156008E827583001207A860060EEE653870F071
:10016600C2D5EBC0E0EAC0E0E9C0E0EE1202B9D0C9
:10017600E0F9D0E0FAD0E0FB12078FFF60AAEBC0EF
:10018600E0EAC0E0E9C0E0120061D0E02401F9D065
:10019600E03400FAD0E0FBE5380460DCD538D980DD
:1001A600877BFF7A0279B5D20F809C79108002791D
:1001B60008C213C2158008D2D5790A8004790AC20A
:1001C600D5E538047002F538E4FAFDFEFF12002684
:1001D600FC7B08200E13120026FD7B10300D0A1240
:1001E6000026FE120026FF7B20EC3382D592D550E6
:1001F60013C3E4300D069FFFE49EFEE4200E039D2C
:10020600FDE49CFCE4CBF8C20EEC700CCFCECDCC5A
:10021600E824F8F870F38017C3EF33FFEE33FEEDF2
:1002260033FDEC33FCEB33FB994002FB0FD8E9EBD3
:10023600300E05F8D0E0C448B20EC0E00AEC4D4ED0
:100246004F78207B0070C2EAB5380040BCC0E0128F
:1002560002BBD0F0D0E0200E04C4C0E0C4B20EC091
:10026600F012004AD0F0D5F0EB02009A12094801CC
:10027600375301B15801084C01044201B54F01BD85
:0F0286004401BD49011D4301C35501A74601A70E
:100295004501A747036350010C2D01102E01332B97
:1002A500011423013120034C2A00CC480000012B06
:1002B5003F3F3F00790AA2D5201014301209B9102A
:1002C500020404B9080104A2D52013025001042038
:1002D5000F68920FB537005034C0E07F20301019F9
:1002E5007F30A20F72137212500F120312C20FC287
:1002F50013C212C2157F30800F301203E9C0E0121D
:100305000061301203D0E0F9D0E0B537CC301217D8
:100315007F30B9100C1200617F583011077F78804B
:1003250003B90803120061300F057F2D0200617FBC
:10033500202015F87F2B2013F322920F80CF286EF3
:10034500756C6C2900D20E120026300EF8C20E789C
:100355003730D50108F60200CC2D5043495812001C
:10036500262403B405004001E490035E9312005275
:0D037500743A120052D2107537040201B123
:10038200E53C30100104F82328242AF8227827308B
:100392001002782AE475F00112092802078F60EC36
:1003A200C5407002153F14C540201004FF0216918B
:1003B200782774FFF5F0020938FF021642E53D6026
:1003C20006D53D037F002220100F121655EF60085C
:1003D2000540E5407002053F22782712091F1207E7
:1003E2008FFF60E97827E475F00112092880DE1298
:1003F20003C9EFC0E01203BBD0E040F380A0D210EB
:100402008002C2108B278A288929E4F53EF53CF543
:100412003FF540753D00C20FC20DC20EC21112035C
:100422008FFF7005AF3E7E0022B4253012038FFF8E
:1004320024D0B40A00500C75F00AC53DA4253DF540
:100442003D80E924CFB41A00EF5002C2E5020665EE
:10045200D20E80D8D20D80D4D21180D0EF1203BB3D
:1004620050081203F1EF600E80A9EFC0E01203C939
:10047200D0E06F609EEF60741203A080A71203C9E0
:10048200EF6069E53D7007053D80031203C9EF6027
:100492001420110E120382E475F001120928EF12E2
:1004A20007D5D53DE6201104053C053E80BA12036E
:1004B200BFEFC0E01203BBD0E050041203A0E4FF80
:1004C20020110E120382E475F001120928EF1207BF
:1004D200D5EF70DA201104053C053E808BE53D60C6
:1004E20002053D1203F11203BFEF70C6301004E49F
:1004F2001203A0E53E60030204267EFF7FFF222056
:10050200111174FFFCFDFEFF12038212091F120972
:1005120005053C020415D0E080D27900800A7910EA
:10052200800679088002790AD212E53D6002053D13
:10053200E9C0E01203F1EF60DD1203C9BF2D04D25E
:100542000F8003BF2B091203F1EF60CA1203BFD061
:10055200E0B40A028033B40802802EBF3027700252
:100562007408C212C0E01203BFD0E0BF7802800359
:10057200BF5816053DD53D028007D53D04D21280F5
:100582000B741080197002740ABF000AEFF8E4FCC1
:10059200FDFEFF020618C0E0EF1203A0D0E0F9E46E
:1005A200FCFDFEFFE9C0E0ECC0E0EDC0E0EEC0E023
:1005B200EFC0E01203BFEFF8D0E0FFD0E0FED0E0E2
:1005C200FDD0E0FCD0F0E8604DB461004007B47BA0
:1005D200005002C2E524D0503DFA24F6500724F917
:1005E2005034240AFAEAB5F000502BCFA9F0A42F18
:1005F200FF92D5E9C5F0CEA4A2D53EFE92D5E9C5BB
:10060200F0CDA4A2D53DFD92D5E9C5F0CCA4A2D5EA
:0B0612003CFCC212808EE8C0E020110A
:10061D002A201208053E300F031208F7120382122A
:10062D00091F053C200D0B200E0DEE8FF01208D882
:10063D0080091209058004EF1207D5D0E01203A03E
:10064D0002041520111012038212091F053CE53F0B
:10065D008540F01208D880E812094804DF530520C0
:10066D005804564C045242042E4805244F05284484
:10067D00047F43051C49052855050146050145051F
:0C068D000147045A2A06504E0000045E8B
:1008AC00EF4E6012EF60010EEDBB010B89828A8363
:1008BC00F0A3DFFCDEFA2289F05007F709DFFCA970
:0C08CC00F022BBFEFCF309DFFCA9F022C7
:1008D800BB010A89828A83F0E5F0A3F0225006F76B
:0F08E80009A7F01922BBFE06F3E5F009F3192268
:0E08F700C3E49FFFE49EFEE49DFDE49CFC2212
:10090500BB010789828A8302096E5005E9F802084E
:0A0915009ABBFE05E9F802097A22F8
:09091F00E6FB08E6FA08E6F922FD
:10092800FAE6FB0808E6F925F0F618E6CA3AF622D0
:10093800FAE6FB0808E625F0F9F618E63AFAF62290
:10094800D083D082F8E4937012740193700DA3A33E
:1009580093F8740193F5828883E473740293686052
:06096800EFA3A3A380DF52
:1016550010170B121676BF0D027F0A021689AF0806
:011665002262
:051691008F08D21722B2
:10164200EFC394094005EF940E4003BF2003D380FB
:0316520001C322AF
:0C096E00ECF0A3EDF0A3EEF0A3EFF022FC
:0C097A00ECF208EDF208EEF208EFF222B9
:0A1676003098FDAF99C2987E002263
:00000001FF
