:030000000205E70F
:0C05E700787FE4F6D8FD75813202062E04
:0E0961007DFF7F8012096FE4FD7FA002096F09
:10067300E4FFFEC2C4D2C2D2B5D2B420B3010F206C
:10068300B20343070220B10343070420B003430727
:1006930008D2C4C2C2D2B5D2B420B30343071020D8
:1006A300B20343072020B10343074020B0034307AD
:1006B30080D2C4D2C2C2B5D2B420B3034306012050
:1006C300B20343060220B10343060420B0034306EA
:1006D30008D2C4D2C2D2B5C2B420B3034306102099
:1006E300B20343062020B10343064020B003430670
:0906F30080D2C4D2C2D2B5D2B447
:0106FC0022DB
:03088F0001110054
:1006FD009000011201FC25E0FF1201E34FFF900075
:10070D00021201FC25E025E04FFF9000031201FCD1
:10071D0033333354F84FFF9000041201FCC454F0EE
:10072D004FFF9000051201FCC43354E04FFF9000C1
:10073D00061201FCC4333354C04FFF900007120161
:10074D00FCFEC433333354804FFF7811E66F600ADB
:0A075D00A607EFF4FD7F8012096F7C
:01076700226F
:0C097C003F065B4F666D7D077F6F0040FB
:100858008F0F8D107DFF7FE012096FAF0FA807740F
:1008680001088002C333D8FCFD7FC012096FE51070
:1008780090097C93FF3001047E8080027E00EF4E59
:07088800F4FD7FE002096F9F
:0D096F008D80E5A0541F4FF5A053A01F225E
:100768001208E47FCC1208BD7F441208BD1208E4C9
:100778007FCC1208BD7FBE1208BD12090B8F0D1267
:10078800090B8F0C1208E47FCC1208BD7F441208B5
:10079800BD1208E47FCC1208BD7FBE1208BD120945
:1007A8000B8F0E12090BE50CB507B5E50DB50EB0AC
:1007B800E50CAD0DFCEC120129E4FBFA7980783DDB
:0307C80002001E0E
:1007CB008F08E50814600C14600E2402700F750876
:1007DB001F800D75083F800875085F800375087FC3
:1007EB001208E47FCC1208BD7F4E1208BDE4FF1245
:1007FB0008BDE4FF1208BDAF081208BD1208E47F64
:09080B00CC1208BD7F480208BDB3
:04092E007F057E00C3
:10093200EF1FAA0670011E4A600FE4FDEDC3940C7E
:090942007480948050EA0D80F3EA
:01094B002289
:0208BD00A90789
:1008BF00E4FBEBC39408748094805012C294E91344
:1008CF00929412092ED294E9C313F90B80E47F0599
:0508DF007E0002093259
:10090B00E4FBEBC39408748094805014C294ECC342
:10091B0013FCD29430940343048012092E0B80E213
:02092B00AF0417
:01092D0022A7
:1008E400C200D2947F0C7E00120932C2947F507EE3
:1008F40000120932D2947F0A7E00120932A2949225
:060904000012092EA20002
:01090A0022CA
:1008920001220088080A0A0A0A0A0A0A0A01210031
:1008A200012500880000000000000000000426006E
:0A08B200000000012A0002310000DE
:1004C3007821E6C3940A748094805003020554E4AF
:1004D300F6782FE6FE08E6FF782DA60608A6071293
:1004E3000673782FEEF608EFF6782DE6FC08E6FDA6
:1004F300EE6CFCEF6DFDEC5E782BF6ED5F08F6EF2E
:10050300F4FFEEF45C7823F6ED5F08F6782CE63022
:10051300E01A782AE6D3940074809480400316800E
:1005230004782A7603782AE6FF1207CB782BE6C3F2
:100533001308E61330E01A782AE6C3940374809410
:10054300805003068004E4782AF6782AE6FF12072F
:02055300CB22B9
:10033300782612024DEC334007782612024D8008CE
:10034300782612024D1202298F0B8E0A8D098C0812
:100353007825E6C394647480948050030204C2E455
:10036300F6120768E4FBFA797A784412001E120148
:10037300627826120259E4FFEFC3940874809480D4
:10038300500A74082FF8740AF20F80EC78261202D0
:100393004DEC3340737FA07E867D017C00AB0BAABE
:1003A3000AA909A80812023740207BA07A8679019E
:1003B3007800AF0BAE0AAD09AC08120814E47B0A4F
:1003C300FAF9F8120814AF0380027F0A7808EFF2F3
:1003D300E47F107E27FDFCAB0BAA0AA909A808C37A
:1003E300120237401FE47B107A27F9F8AF0BAE0AED
:1003F300AD09AC08120814E47B0AFAF9F8120814E0
:10040300AF03803F7F0A803B7808740BF2E47F10D0
:100413007E27FDFCAB0BAA0AA909A808C312023761
:10042300401FE47B107A27F9F8AF0BAE0AAD09AC95
:1004330008120814E47B0AFAF9F8120814AF0380CF
:10044300027F0A7809EFF2E47BE87A03F9F8AF0B4D
:10045300AE0AAD09AC08120814E47B0AFAF9F812E3
:100463000814EB242C780AF2E47B64FAF9F8AF0B56
:10047300AE0AAD09AC08120814E47B0AFAF9F812C3
:100483000814780BEBF2E47B0AFAF9F8AF0BAE0A27
:10049300AD09AC08120814E47B0AFAF9F81208143F
:1004A300780CEBF2E47B0AFAF9F8AF0BAE0AAD096C
:0F04B300AC08120814780DEBF2782AE6780FF2F5
:0104C2002217
:03001B0002055586
:10055500C0E0C0F0C083C082C0D075D000C000C06C
:1005650001C002C003C004C005C006C0077821064B
:10057500782506782206E664087001F67822E6FFFB
:100585002408F8E2FEC3942C4008EE24D4FDD201E1
:10059500800B7822E6FF2408F8E2FDC20112085814
:1005A500C37832E694F418E69401500E0806E6186E
:1005B50070010678007401F280047800E4F27BFE95
:1005C5007A0079001206FDD007D006D005D004D0F8
:1005D50003D002D001D000D0D0D082D083D0F0D0CB
:0205E500E03202
:10000300538EBF53890F758B18758DFCC28FD28E9B
:05001300D2ABD2AF22C8
:10094C00120961120003782AE6FF1207CB1204C3C6
:05095C0012033380F8D6
:10001E00EC4D6011E8497017ED33EC3304600DE4DC
:10002E00FCFFFEFD22E933E8330470F80201CE1224
:10003E00019958046009E4CC248150062850090225
:10004E0001D82840030201D5C0E0EB4A7044B980C4
:10005E0006D0E0FB0201C4EF4E701CBD8008EBFF22
:10006E00EAFEE9FD80EBE98DF0A4FEE5F002010762
:10007E00E9CDF9EAFEEBFFEF89F0A4FCE5F0CE89BD
:10008E00F0A42EFFE435F0CD89F0A42DFEE435F07A
:10009E008067EF4E7005BD80D780C3EF8BF0A4ACA8
:1000AE00F0EE8BF0A42CFCE435F0F8EF8AF0A42CE3
:1000BE00E5F038FCE433CB8DF0A42CFCE5F03BF8F6
:1000CE00EE8AF0A42CFCE5F038F8E433CF89F0A4E6
:1000DE002CFCE5F038CF3400CE89F0A42FFFE5F0EC
:1000EE003EFEE433C98DF0A42EFEE5F039CD8AF044
:1000FE00A42FFFE5F03EFEE43DFD33D0E0FB5007BC
:10010E000BBB000F0201D8EC2CFCEF33FFEE33FEDD
:06011E00ED33FD0201B00B
:1001240075F020800E75F010800575F0087D007E56
:10013400007F003392D530D503120229EC334010EE
:10014400EF33FFEE33FEED33FDEC33FCD5F0ED225F
:0E015400E5F0247EA2D513CC92E7CDCEFF229B
:10016200EDD2E7CD33EC3392D524814006E4FFFE95
:10017200FDFC22FCE4CFCECDCC24E0501174FF80F4
:10018200EDC3CC13CCCD13CDCE13CECF13CF047091
:07019200F030D5DE02022966
:10019900E9D2E7C933E833F892D5EDD2E7CD33ECAC
:0701A90033FC5002B2D52225
:1001B000EC30E7100FBF000C0EBE00080DBD0004B0
:1001C0000BEB6014A2D5EB13FCED92E7FD2274FF5C
:1001D000FCFDFEFF22E480F8A2D574FF13FC7D80B5
:0301E000E480EFC9
:1005F30002094CE493A3F8E493A34003F68001F2C9
:1006030008DFF48029E493A3F85407240CC8C33308
:10061300C4540F4420C8834004F456800146F6DFD7
:10062300E4800B010204081020408090088FE47ED0
:10063300019360BCA3FF543F30E509541FFEE493CC
:10064300A360010ECF54C025E060A840B8E493A393
:10065300FAE493A3F8E493A3C8C582C8CAC583CABE
:10066300F0A3C8C582C8CAC583CADFE9DEE780BE76
:0108BC00003B
:1001E300BB010689828A83E0225002E722BBFE021A
:0901F300E32289828A83E493224D
:1001FC00BB010CE58229F582E5833AF583E02250B8
:10020C0006E92582F8E622BBFE06E92582F8E22201
:0D021C00E58229F582E5833AF583E493221B
:10081400C2D5E830E70FB2D5E4C39BFBE49AFAE40F
:1008240099F9E498F8EC30E717B2D512084A1202A5
:10083400A1E4C39BFBE49AFAE499F9E498F88003F1
:100844001202A130D50DE4C39FFFE49EFEE49DFD9A
:04085400E49CFC2202
:0E022900C3E49FFFE49EFEE49DFDE49CFC22E6
:10023700EB9FF5F0EA9E42F0E99D42F0EC6480C83E
:0602470064809845F022DE
:0C024D00E6FC08E6FD08E6FE08E6FF22DD
:0C025900ECF608EDF608EEF608EFF622D1
:1002650075F008758200EF2FFFEE33FECD33CDCC50
:1002750033CCC58233C5829BED9AEC99E5829840D3
:100285000CF582EE9BFEED9AFDEC99FC0FD5F0D6B0
:10029500E4CEFBE4CDFAE4CCF9A88222B800C1B9DA
:1002A5000059BA002DEC8BF084CFCECDFCE5F0CB18
:1002B500F97818EF2FFFEE33FEED33FDEC33FCEB51
:1002C50033FB10D703994004EB99FB0FD8E5E4F90C
:1002D500FA227818EF2FFFEE33FEED33FDEC33FCF9
:1002E500C933C910D7059BE99A4007EC9BFCE99AED
:1002F500F90FD8E0E4C9FAE4CCFB2275F010EF2F32
:10030500FFEE33FEED33FDCC33CCC833C810D70731
:100315009BEC9AE899400AED9BFDEC9AFCE899F86C
:0E0325000FD5F0DAE4CDFBE4CCFAE4C8F922FF
:00000001FF
