:10060F00045B0000000002240000880800000000C6
:10061F000000000088000A0A0A0A0A0A0A0A01589A
:10062F0000012100C100C182C181202C26FF03FDE2
:10063F000000000100000000FF066F0000000A002C
:10064F00000000FF01C30000012C00000000FF07A5
:09065F0062000000A00000000090
:10066F001208247857EFF618E66FFE5FFD7853F601
:10067F00EFF45E7859F67857E618F6ED24FB601222
:10068F0014601514601824037019782106E65401BC
:10069F00F622A200B3920022A202B3920222A2017A
:0406AF00B3920122DF
:1001C3002001030203457821E6146054046003020E
:1001D30003587800740BF20814F208F208F208F2DC
:1001E3007854E6FA08E6FB7C007D64FFAE02120059
:1001F30064EF242C7805F27C007D0AAF03AE021273
:1002030000647C007D0A1200647806EDF27854E6FF
:10021300FE08E6FF7C007D0A1200647807EDF222F7
:100223007800740CF208740AF27822E6FE08E6FFFE
:10023300E4FCFD7BA07A867901F81206B3E47B0A1D
:10024300FAF9F81206B3AC00AD01AE02AF03EC4D00
:100253004E4F70047F0A801F7822E6FE08E6FFE413
:10026300FCFD7BA07A867901F81206B3E47B0AFAD7
:10027300F9F81206B3AF037802EFF27822E6FE082C
:10028300E6FF7C277D101200647C007D0A12006467
:10029300ED4C700A7802E2B40A047F0A8002AF05CB
:1002A3007803EFF27822E6FE08E6FF7C037DE8128E
:1002B30000647C007D0A120064ED4C700A7803E24E
:1002C300B40A047F0A8002AF057804EFF27822E6CD
:1002D300FE08E6FF7C007D641200647C007D0A1248
:1002E3000064ED4C700A7804E2B40A047F0A8002C9
:1002F300AF057805EFF27822E6FE08E6FF7C007D85
:100303000A1200647C007D0A120064ED4C700A78C6
:1003130005E2B40A047F0A8002AF057806EFF2789B
:1003230022E6FE08E6FF7C007D0A120064ED4C70B5
:100333000A7806E2B40A047F0A8002AF057807EF61
:10034300F2227800740AF208F208F208F208F208BE
:06035300F208F208F2229C
:1003FD0030027A7821E6FF70047E0180027E00785B
:10040D0008EEF2EFB401047F0180027F007809EF5E
:10041D00F27854E6FE08E6FFC39496EE9400400889
:10042D00EF94FAEE94004009C3EF945EEE94014010
:10043D00047F0180027F00780AEFF27822E6FE0841
:10044D00E6FFC394E8EE94034008EF9488EE94130E
:10045D004009C3EF9410EE942740047F0180027F82
:10046D0000780BEFF2A200E43308F28012E4780872
:10047D00F208F208F208F208F208F208F208F27B2C
:08048D00FE7A00790802052146
:100762007F4312078CAB07EB75F064A4FFAEF07CFD
:10077200007D331200647854A60608A607300004F0
:09078200AF0380027F66120850EB
:01078B00224B
:10086500538E7F5389F0438905E4F58AF58CC28D53
:03087500D28C2200
:10083B00538EBF53890F758B18758DFCC28FD28E5B
:05084B00D2ABD2AF2288
:03001B0002035984
:10035900C0E0C0F0C083C082C0D075D000C000C06A
:1003690001C002C003C004C005C006C007785B1203
:1003790000CAEF2401FFE43EFEE43DFDE43CFC78C5
:100389005B1200E3785806E65407F678240806E677
:1003990018700106FF8606BE031BBFE8187824768D
:1003A90000087600AF8CEFAD8A7822F6ED08F67575
:1003B9008A00758C007858E6FF2400F8E2FED39491
:1003C900144008EE24D4FD7B01800B7858E6FF2405
:1003D90000F8E2FDE4FB1206F7D007D006D005D0FD
:1003E90004D003D002D001D000D0D0D082D083D0A5
:0403F900F0D0E0322E
:0508C400785A760422C1
:0B059B00E4F508E508C3785A965068A4
:1005A600081200CA8F0C8E0B8D0A8C09E50875F0AF
:1005B6000BA4242DF81200CAE50875F00BA4242913
:1005C600F81200D6EB2FFFEA3EFEE93DFDE83CFCC3
:1005D600AB0CAA0BA90AA809C31200B94026AF0C96
:1005E600AE0BAD0AAC09E50875F00BA4242DF81284
:1005F60000E3E50875F00BA42426F808E6FA08E6F9
:04060600F91200EFF6
:04060A0005088090CF
:01060E0022C9
:10088B001207D31208651208C412083B12059B808D
:01089B00FB61
:0300000002049562
:0C049500787FE4F6D8FD75815E0204DC7F
:0407F000D2A07F0A0A
:1007F400000000000000000000000000000000AE47
:06080400071FEE70EB225D
:0F089C00D2A11207F0C2A17F0A1207F4C2A02254
:0C08B800C2A11207F0D2A17F0A0207F4CF
:02073600AD070D
:10073800E4FCC2A07F0A1207F4ED30E704D2A180DE
:1007480002C2A17F0A1207F4D2A0ED25E0FD7F0ABC
:090758001207F40CBC08DBC2A07E
:010761002275
:1007B600E4FC1207F0ED25E0FD30A103430501C27C
:0C07C600A07F0A1207F40CBC08E8AF0585
:0107D2002204
:08080A0012089C7F90120736D2
:100812001207F0A2A1E433FDC2A07F0A1207F4AFCF
:0108220005D0
:0108230022B2
:10000300C2A0EF24FF92A17F0A1207F41207F0C2E5
:08001300A0D2A17F0A0207F44C
:02078C00AB07B9
:10078E00E4FD12080AAF0312073612081212089C73
:10079E007F911207361208121207B6AD077F0112AB
:0707AE0000031208B8AF05BB
:0107B5002221
:10085000AB0712080A7F43120736120812AF0312C1
:0508600007360208123A
:1007D3007580FFE5A0541F4480F5A053A01FE4F5E6
:0D07E30080E5A0541F44A0F5A053A01F22E4
:10082400E4FF20B0027F0720B1027F0620B2027FDE
:060834000520B3027F0461
:01083A00229B
:06066800010D00010EFF70
:10052100E4780DF690000112003725E0FF12001E5D
:100531004FFF90000212003725E025E04FFF9000A9
:100541000312003733333354F84FFF900004120085
:1005510037C454F04FFF900005120037C43354E004
:100561004FFF900006120037C4333354C04FFF9041
:100571000007120037C433333354804FFF780DF630
:1005810008E66F601418E6FFF4F580E5A0541F44F7
:0A05910080F5A053A01F08A6072262
:100878007580FFE5A0541F4480F5A053A01FE478BD
:030888000EF62247
:0D08AB00C0F9A4B0999282F88090FFC18E30
:1006F7007580FFE5A0541F44E0F5A053A01FA8078D
:100707007401088002C333D8FCF580E5A0541F4468
:10071700C0F5A053A01FED9008AB93F580EB6003E5
:0F07270053807FE5A0541F44E0F5A053A01F228C
:1004A10002088BE493A3F8E493A34003F68001F2DE
:1004B10008DFF48029E493A3F85407240CC8C3335C
:1004C100C4540F4420C8834004F456800146F6DF2B
:1004D100E4800B010204081020408090060FE47EA6
:1004E100019360BCA3FF543F30E509541FFEE49320
:1004F100A360010ECF54C025E060A840B8E493A3E7
:10050100FAE493A3F8E493A3C8C582C8CAC583CA11
:10051100F0A3C8C582C8CAC583CADFE9DEE780BEC9
:01066E00008B
:10001E00BB010689828A83E0225002E722BBFE02E0
:09002E00E32289828A83E4932213
:10003700BB010CE58229F582E5833AF583E022507E
:1000470006E92582F8E622BBFE06E92582F8E222C8
:0D005700E58229F582E5833AF583E49322E2
:10006400BC000BBE0029EF8DF084FFADF022E4CC80
:10007400F875F008EF2FFFEE33FEEC33FCEE9DEC49
:10008400984005FCEE9DFE0FD5F0E9E4CEFD22ED8F
:10009400F8F5F0EE8420D21CFEADF075F008EF2FD9
:1000A400FFED33FD4007985006D5F0F222C398FDCA
:0500B4000FD5F0EA2267
:1006B300C2D5E830E70FB2D5E4C39BFBE49AFAE472
:1006C30099F9E498F8EC30E717B2D51206E912016C
:1006D30031E4C39BFBE49AFAE499F9E498F88003C4
:1006E30012013130D50DE4C39FFFE49EFEE49DFD6E
:0406F300E49CFC2265
:1000B900EB9FF5F0EA9E42F0E99D42F0E89C45F09D
:0100C9002214
:0C00CA00E6FC08E6FD08E6FE08E6FF2262
:0D00D600E6FB08E6F908E6FA08E6CBF8229A
:0C00E300ECF608EDF608EEF608EFF62249
:0600EF008A838982E4739C
:1000F50075F008758200EF2FFFEE33FECD33CDCCC2
:1001050033CCC58233C5829BED9AEC99E582984044
:100115000CF582EE9BFEED9AFDEC99FC0FD5F0D621
:10012500E4CEFBE4CDFAE4CCF9A88222B800C1B94B
:100135000059BA002DEC8BF084CFCECDFCE5F0CB89
:10014500F97818EF2FFFEE33FEED33FDEC33FCEBC2
:1001550033FB10D703994004EB99FB0FD8E5E4F97D
:10016500FA227818EF2FFFEE33FEED33FDEC33FC6A
:10017500C933C910D7059BE99A4007EC9BFCE99A5E
:10018500F90FD8E0E4C9FAE4CCFB2275F010EF2FA3
:10019500FFEE33FEED33FDCC33CCC833C810D707A3
:1001A5009BEC9AE899400AED9BFDEC9AFCE899F8DE
:0E01B5000FD5F0DAE4CDFBE4CCFAE4C8F92271
:00000001FF
