:030000000205985E
:0C059800787FE4F6D8FD7581200205DFB5
:0E0912007DFF7F8012092EE4FD7FA002092EDA
:10062400E4FFFEC2C4D2C2D2B5D2B420B3010F20BB
:10063400B20343070220B10343070420B003430776
:1006440008D2C4C2C2D2B5D2B420B3034307102027
:10065400B20343072020B10343074020B0034307FC
:1006640080D2C4D2C2C2B5D2B420B303430601209F
:10067400B20343060220B10343060420B003430639
:1006840008D2C4D2C2D2B5C2B420B30343061020E8
:10069400B20343062020B10343064020B0034306BF
:0906A40080D2C4D2C2D2B5D2B496
:0106AD00222A
:03084000011F0095
:1006AE009000011201FC25E0FF1201E34FFF9000C4
:1006BE00021201FC25E025E04FFF9000031201FC21
:1006CE0033333354F84FFF9000041201FCC454F03E
:1006DE004FFF9000051201FCC43354E04FFF900011
:1006EE00061201FCC4333354C04FFF9000071201B1
:1006FE00FCFEC433333354804FFF781FE66F600A1D
:0A070E00A607EFF4FD7F8012092E0C
:0107180022BE
:0E0920003F065B4F666D7D077F6F0077767335
:100809008F0B8D0C7DFF7FE012092EAF0BA80774AB
:1008190001088002C333D8FCFD7FC012092EE50C04
:1008290090092093FF3001047E8080027E00EF4E04
:07083900F4FD7FE002092E2F
:0D092E008D80E5A0541F4FF5A053A01F229F
:100719001208957FCC12086E7F4412086E12089554
:100729007FCC12086E7FBE12086E1208BC8F0912A8
:1007390008BC8F081208957FCC12086E7F441208F6
:100749006E1208957FCC12086E7FBE12086E1208D1
:10075900BC8F0A1208BCE508B507B5E509B50AB0AA
:10076900E508AD09FCEC120129E4FBFA7980783D32
:0307790002001E5D
:10077C008F08E50814600C14600E2402700F7508C5
:10078C001F800D75083F800875085F800375087F12
:10079C001208957FCC12086E7F4E12086EE4FF1281
:1007AC00086EE4FF12086EAF0812086E1208957FEF
:0907BC00CC12086E7F4802086EA1
:0408DF007F057E0013
:1008E300EF1FAA0670011E4A600FE4FDEDC3940CCE
:0908F3007480948050EA0D80F33A
:0108FC0022D9
:02086E00A907D8
:10087000E4FBEBC39408748094805012C294E91393
:1008800092941208DFD294E9C313F90B80E47F0538
:050890007E000208E3F8
:1008BC00E4FBEBC39408748094805014C294ECC392
:1008CC0013FCD2943094034304801208DF0B80E2B3
:0208DC00AF0467
:0108DE0022F7
:10089500C200D2947F0C7E001208E3C2947F507E82
:1008A500001208E3D2947F0A7E001208E3A2949214
:0608B500001208DFA200A2
:0108BB00221A
:10084300010E0088080A0A0A0A0A0A0A0A010D00A8
:1008530001110088000000000000000000041200E5
:0A086300000000011600021D000055
:10047400780DE6C3940A748094805003020505E461
:10048400F6781BE6FE08E6FF7819A60608A607120A
:100494000624781BEEF608EFF67819E6FC08E6FD6C
:1004A400EE6CFCEF6DFDEC5E7817F6ED5F08F6EF91
:1004B400F4FFEEF45C780FF6ED5F08F67818E6309A
:1004C400E01A7816E6D39400748094804003168072
:1004D40004781676037816E6FF12077C7817E6C3CD
:1004E4001308E61330E01A7816E6C3940374809474
:1004F400805003068004E47816F67816E6FF1207A7
:020504007C2257
:100340007811E6C39464748094805003020473E4CB
:10035000F6120719E4FBFA797A784412001E1201AA
:10036000627812120266E4FFEFC3940874809480EE
:10037000500A74082FF8740AF20F80EC7FA07E8672
:100380007D017C007812120259C312023740217B92
:10039000A07A8679017800C000781212024DD00050
:1003A0001207C5E47B0AFAF9F81207C5AF03800209
:1003B0007F0A7808EFF2E47F107E27FDFC781212A6
:1003C0000259C3120237E440257B107A27F9F8C09E
:1003D00000781212024DD0001207C5E47B0AFAF928
:1003E000F81207C5AC00AD01AE02AF0380057F0A6D
:1003F000FEFDFC7809EFF2E47BE87A03F9F8C0002F
:10040000781212024DD0001207C5E47B0AFAF9F8FF
:100410001207C5EB242C780AF2E47B64FAF9F8C0E1
:1004200000781212024DD0001207C5E47B0AFAF9D7
:10043000F81207C5780BEBF2E47B0AFAF9F8C00072
:10044000781212024DD0001207C5E47B0AFAF9F8BF
:100450001207C5780CEBF2E47B0AFAF9F8C00078D1
:100460001212024DD0001207C5780DEBF27816E695
:03047000780FF210
:010473002266
:03001B00020506D5
:10050600C0E0C0F0C083C082C0D075D000C000C0BB
:1005160001C002C003C004C005C006C007780D06AE
:10052600781106780E06E664087001F6780EE6FF86
:100536002408F8E2FEC3942C4008EE24D4FDD20130
:10054600800B780EE6FF2408F8E2FDC201120809C6
:10055600C3781EE694F418E69401500E0806E618D1
:1005660070010678007401F280047800E4F27BFEE4
:100576007A0079001206AED007D006D005D004D096
:1005860003D002D001D000D0D0D082D083D0F0D01A
:02059600E03251
:10000300538EBF53890F758B18758DFCC28FD28E9B
:05001300D2ABD2AF22C8
:1008FD001209121200037816E6FF12077C12047417
:05090D0012034080F818
:10001E00EC4D6011E8497017ED33EC3304600DE4DC
:10002E00FCFFFEFD22E933E8330470F80201CE1224
:10003E00019958046009E4CC248150062850090225
:10004E0001D82840030201D5C0E0EB4A7044B980C4
:10005E0006D0E0FB0201C4EF4E701CBD8008EBFF22
:10006E00EAFEE9FD80EBE98DF0A4FEE5F002010762
:10007E00E9CDF9EAFEEBFFEF89F0A4FCE5F0CE89BD
:10008E00F0A42EFFE435F0CD89F0A42DFEE435F07A
:10009E008067EF4E7005BD80D780C3EF8BF0A4ACA8
:1000AE00F0EE8BF0A42CFCE435F0F8EF8AF0A42CE3
:1000BE00E5F038FCE433CB8DF0A42CFCE5F03BF8F6
:1000CE00EE8AF0A42CFCE5F038F8E433CF89F0A4E6
:1000DE002CFCE5F038CF3400CE89F0A42FFFE5F0EC
:1000EE003EFEE433C98DF0A42EFEE5F039CD8AF044
:1000FE00A42FFFE5F03EFEE43DFD33D0E0FB5007BC
:10010E000BBB000F0201D8EC2CFCEF33FFEE33FEDD
:06011E00ED33FD0201B00B
:1001240075F020800E75F010800575F0087D007E56
:10013400007F003392D530D503120229EC334010EE
:10014400EF33FFEE33FEED33FDEC33FCD5F0ED225F
:0E015400E5F0247EA2D513CC92E7CDCEFF229B
:10016200EDD2E7CD33EC3392D524814006E4FFFE95
:10017200FDFC22FCE4CFCECDCC24E0501174FF80F4
:10018200EDC3CC13CCCD13CDCE13CECF13CF047091
:07019200F030D5DE02022966
:10019900E9D2E7C933E833F892D5EDD2E7CD33ECAC
:0701A90033FC5002B2D52225
:1001B000EC30E7100FBF000C0EBE00080DBD0004B0
:1001C0000BEB6014A2D5EB13FCED92E7FD2274FF5C
:1001D000FCFDFEFF22E480F8A2D574FF13FC7D80B5
:0301E000E480EFC9
:1005A4000208FDE493A3F8E493A34003F68001F268
:1005B40008DFF48029E493A3F85407240CC8C33358
:1005C400C4540F4420C8834004F456800146F6DF27
:1005D400E4800B0102040810204080900840E47E6F
:1005E400019360BCA3FF543F30E509541FFEE4931C
:1005F400A360010ECF54C025E060A840B8E493A3E3
:10060400FAE493A3F8E493A3C8C582C8CAC583CA0D
:10061400F0A3C8C582C8CAC583CADFE9DEE780BEC5
:01086D00008A
:1001E300BB010689828A83E0225002E722BBFE021A
:0901F300E32289828A83E493224D
:1001FC00BB010CE58229F582E5833AF583E02250B8
:10020C0006E92582F8E622BBFE06E92582F8E22201
:0D021C00E58229F582E5833AF583E493221B
:1007C500C2D5E830E70FB2D5E4C39BFBE49AFAE45F
:1007D50099F9E498F8EC30E717B2D51207FB120245
:1007E500AEE4C39BFBE49AFAE499F9E498F8800334
:1007F5001202AE30D50DE4C39FFFE49EFEE49DFDDD
:04080500E49CFC2251
:0E022900C3E49FFFE49EFEE49DFDE49CFC22E6
:10023700EB9FF5F0EA9E42F0E99D42F0EC6480C83E
:0602470064809845F022DE
:0C024D00E6FC08E6FD08E6FE08E6FF22DD
:0D025900E6FB08E6F908E6FA08E6CBF82215
:0C026600ECF608EDF608EEF608EFF622C4
:1002720075F008758200EF2FFFEE33FECD33CDCC43
:1002820033CCC58233C5829BED9AEC99E5829840C6
:100292000CF582EE9BFEED9AFDEC99FC0FD5F0D6A3
:1002A200E4CEFBE4CDFAE4CCF9A88222B800C1B9CD
:1002B2000059BA002DEC8BF084CFCECDFCE5F0CB0B
:1002C200F97818EF2FFFEE33FEED33FDEC33FCEB44
:1002D20033FB10D703994004EB99FB0FD8E5E4F9FF
:1002E200FA227818EF2FFFEE33FEED33FDEC33FCEC
:1002F200C933C910D7059BE99A4007EC9BFCE99AE0
:10030200F90FD8E0E4C9FAE4CCFB2275F010EF2F24
:10031200FFEE33FEED33FDCC33CCC833C810D70724
:100322009BEC9AE899400AED9BFDEC9AFCE899F85F
:0E0332000FD5F0DAE4CDFBE4CCFAE4C8F922F2
:00000001FF
