:0300000002091CD6
:0C091C00787FE4F6D8FD75814102096384
:100C2E002575256E002575004572726F720025734D
:010C3E0000B5
:100B1800010C00010B00883C0A0A0A0A0A0A0A0AA0
:100B2800020D0000021500009E00000000000000F9
:100B380000000000000000000000000000000000AD
:100B48000000000000000000020F00000209000081
:100B58009E1E0000000000000000000000000000D1
:100B6800000000000000000000000000000000007D
:080B780002110000021300004D
:10084C00780CE6C3946474809480500302091BE412
:10085C00F67813E6FA08E6FB7C007D64FFAE021224
:10086C0006B97C007D0A1206B9783CEDF27C007D5D
:10087C000AAF03AE021206B97C007D0A1206B978E3
:10088C003DEDF27813E6FE08E6FF7C007D0A1206C9
:10089C00B9783EEDF2E2242CF27811E6FA08E6FB88
:1008AC007C277D10FFAE021206B97C007D0A120671
:1008BC00B9783FEDF27C037DE8AF03AE021206B9C6
:1008CC007C007D0A1206B97840EDF27811E6FA0840
:1008DC00E6FB7C007D64FFAE021206B97C007D0A4B
:1008EC001206B97841EDF27C007D0AAF03AE02121C
:1008FC0006B97C007D0A1206B97842EDF27811E651
:10090C00FE08E6FF7C007D0A1206B97843EDF22260
:1009A800780EE61846607BC37816E6940A18E69433
:1009B80000406F7529FF752A0C752B2E752C007554
:1009C8002D00752E24752F007530007531227BFEA1
:1009D8007A007900120420EF64014E7027E523782D
:1009E8000E667004E5221866701A7811A62408A607
:1009F800257BFF7A0C7933E5252401F52AE4352493
:100A0800F52980067BFF7A0C79361200A87E007FD4
:100A18001E7D007BFE7A00790012070EE4780DF641
:020A280008F6CE
:010A2A0022A9
:100AA3007810E61846606DC3780AE6940A18E6944F
:100AB300004061E4FFFE780FE6FC08E6FDC3EF9D0E
:040AC300EE9C50292C
:100AC700741E2FF8E2F522A905E9C39FFD741D2DB9
:100AD700F8E2FD741E2FF8EDF2C3E99F241EF8E536
:020AE70022F2F9
:100AE9000FBF00010E80C97529FE752A00752B1EDE
:100AF9007BFF7A0C793C1200A87E007F1E7D007B6B
:0E0B0900FE7A00791E12070EE4780FF608F649
:010B170022BB
:03004300020C5E4E
:0D0C5E00C0E0E59A30E003539AFED0E0328A
:03002300020B814C
:100B8100C0E0C0D075D000C000C00630990878140C
:100B910006E618700106309819780D0806E61870F7
:100BA1000106142400F8E599F2781576000876001C
:0B0BB100C298D006D000D0D0D0E032B7
:03001B00020A2BAB
:100A2B00C0E0C0F0C083C082C0D075D000C000C091
:100A3B0001C002C003C004C005C006C007780C0685
:100A4B00781606E618700106780A06E61870010695
:100A5B00780B06E664087001F6780BE6FF243CF889
:100A6B00E2FEC3942C4008EE24D4FDD209800B780F
:100A7B000BE6FF243CF8E2FDC209120BBCD007D0F9
:100A8B0006D005D004D003D002D001D000D0D0D0F6
:080A9B0082D083D0F0D0E032DC
:100BF300538EBF53890F758B18758DFCC28FD28EA0
:050C0300D2ABD2AF22CC
:10000300120C50120BF3120026120C0812084C1299
:0700130009A8120AA380F501
:0E0C50007DFF7F80120C6BE4FD7FA0020C6B19
:0B0C78003F065B4F666D7D077F6F003D
:100BBC008F408D417DFF7FE0120C6BAF40A8077416
:100BCC0001088002C333D8FCFD7FC0120C6BE541D9
:100BDC00900C7893FF3009047E8080027E00EF4EEB
:070BEC00F4FD7FE0020C6B39
:10002600759850538EBF538EFE53890F758BE675A8
:090036008DFFC2ABD28ED2AC22C8
:100C0800759A50538EFB75D7E675D6FF438E104301
:030C1800AF012207
:080C8D008F993099FDC29922F4
:0D0C6B008D80E5A0541F4FF5A053A01F225F
:10092800020003E493A3F8E493A34003F68001F2E2
:1009380008DFF48029E493A3F85407240CC8C333D0
:10094800C4540F4420C8834004F456800146F6DF9F
:10095800E4800B0102040810204080900B18E47E0C
:10096800019360BCA3FF543F30E509541FFEE49394
:10097800A360010ECF54C025E060A840B8E493A35B
:10098800FAE493A3F8E493A3C8C582C8CAC583CA86
:10099800F0A3C8C582C8CAC583CADFE9DEE780BE3E
:010B80000074
:1006B900BC000BBE0029EF8DF084FFADF022E4CC25
:1006C900F875F008EF2FFFEE33FEEC33FCEE9DECEE
:1006D900984005FCEE9DFE0FD5F0E9E4CEFD22ED34
:1006E900F8F5F0EE8420D21CFEADF075F008EF2F7E
:1006F900FFED33FD4007985006D5F0F222C398FD6F
:050709000FD5F0EA220B
:10004600E5352429F8E60535227826300702782991
:10005600E475F0011207E202073A2000EB7F2ED288
:10006600008018EF540F2490D43440D4FF30040B92
:10007600EF24BFB41A0050032461FFE53660021571
:10008600360539E5397002053830070D7826E475EE
:10009600F0011207E2EF020780020C8D7403D2070B
:1000A6008003E4C207F5358B268A278928E4F536CE
:1000B600F538F539E53660077F2012008180F57541
:1000C60037FFC201C200C202C203C205C206C2088D
:1000D60012004FFF700D3007057F00120092AF39F6
:1000E600AE3822B4255FC2D5C20412004FFF24D019
:1000F600B40A00501A75F00A783630D50508B6FFEE
:100106000106C6A426F620D5047002D20380D9249F
:10011600CFB41A00EF5004C2E5D204020292D20113
:1001260080C6D20080C0D20280BCD2D580BAD205A9
:1001360080B47F201200812002077401B53600408A
:10014600F1120046FF1200810200BAD208D20680E0
:1001560095120046FB120046FA120046F94A4B7009
:100166000679637A037BFF20022EE536602A7E003D
:100176008E8275830012075360060EEE653770F0A7
:10018600C2D5EBC0E0EAC0E0E9C0E0EE1202D9D089
:10019600E0F9D0E0FAD0E0FB12073AFF60AAEBC024
:1001A600E0EAC0E0E9C0E0120081D0E02401F9D025
:1001B600E03400FAD0E0FBE5370460DCD537D980BF
:1001C600877BFF7A0279D5D202809C7910800279EA
:1001D60008C206C2088008D2D5790A8004790AC204
:1001E600D5E537047002F537E4FAFDFEFF12004646
:1001F600FC7B08200113120046FD7B1030000A121A
:100206000046FE120046FF7B20EC3382D592D55085
:1002160013C3E43000069FFFE49EFEE42001039D25
:10022600FDE49CFCE4CBF8C201EC700CCFCECDCC47
:10023600E824F8F870F38017C3EF33FFEE33FEEDD2
:1002460033FDEC33FCEB33FB994002FB0FD8E9EBB3
:10025600300105F8D0E0C448B201C0E00AEC4D4ECA
:100266004F78207B0070C2EAB5370040BCC0E01270
:1002760002DBD0F0D0E0200104C4C0E0C4B201C06B
:10028600F012006AD0F0D5F0EB0200BA12080201B3
:10029600575301D15801284C01244201D54F01DDA5
:0F02A6004401DD49013D4301E35501C74601C74E
:1002B5004501C747038350012C2D01302E01532BD7
:1002C500013423015120036C2A00EC480000014B46
:1002D5003F3F3F00790AA2D5200314300509B91024
:1002E500020404B9080104A2D52006025001042025
:1002F50002689202B536005034C0E07F2030031901
:100305007F30A20272067205500F120332C202C27A
:1003150006C205C2087F30800F300503E9C0E01230
:100325000081300503D0E0F9D0E0B536CC300517B3
:100335007F30B9100C1200817F583004077F788018
:1003450003B908031200813002057F2D0200817F69
:10035500202008F87F2B2006F322920280CF286EFA
:10036500756C6C2900D2011200463001F8C2017883
:100375003630D50108F60200EC2D504349581200DD
:10038500462403B405004001E490037E93120072F5
:0D039500743A120072D2037536040201D1D1
:1003A200E53B30030104F823282429F8227826307B
:1003B20003027829E475F0011207E202073A60ECC1
:1003C200C53F7002153E14C53F200304FF02001E04
:1003D200782674FFF5F00207F2FF020C1BE53C6081
:1003E20006D53C037F002220030F120C3FEF60086A
:1003F200053FE53F7002053E2278261207D9120713
:100402003AFF60E97826E475F0011207E280DE1215
:1004120003E9EFC0E01203DBD0E040F380A0D20397
:100422008002C2038B268A278928E4F53DF53BF535
:100432003EF53F753C00C202C200C201C204120373
:10044200AFFF7005AF3D7E0022B425301203AFFF2F
:1004520024D0B40A00500C75F00AC53CA4253CF522
:100462003C80E924CFB41A00EF5002C2E5020685AF
:10047200D20180D8D20080D4D20480D0EF1203DB24
:100482005008120411EF600E80A9EFC0E01203E9D8
:10049200D0E06F609EEF60741203C080A71203E980
:1004A200EF6069E53C7007053C80031203E9EF60E9
:1004B2001420040E1203A2E475F0011207E2EF12F7
:1004C2000780D53CE6200404053B053D80BA1203B3
:1004D200DFEFC0E01203DBD0E050041203C0E4FF00
:1004E20020040E1203A2E475F0011207E2EF1207D4
:1004F20080EF70DA200404053B053D808BE53C600B
:1005020002053C1204111203DFEF70C6300304E44B
:100512001203C0E53D60030204467EFF7FFF2220F6
:10052200041174FFFCFDFEFF1203A21207D9120789
:10053200BF053B020435D0E080D27900800A7910F1
:10054200800679088002790AD205E53C6002053C02
:10055200E9C0E0120411EF60DD1203E9BF2D04D2FD
:10056200028003BF2B09120411EF60CA1203DFD00D
:10057200E0B40A028033B40802802EBF3027700232
:100582007408C205C0E01203DFD0E0BF7802800326
:10059200BF5816053CD53C028007D53C04D20580E5
:1005A2000B741080197002740ABF000AEFF8E4FCA1
:1005B200FDFEFF020638C0E0EF1203C0D0E0F9E40E
:1005C200FCFDFEFFE9C0E0ECC0E0EDC0E0EEC0E003
:1005D200EFC0E01203DFEFF8D0E0FFD0E0FED0E0A2
:1005E200FDD0E0FCD0F0E8604DB461004007B47B80
:1005F200005002C2E524D0503DFA24F6500724F9F7
:100602005034240AFAEAB5F000502BCFA9F0A42FF7
:10061200FF92D5E9C5F0CEA4A2D53EFE92D5E9C59A
:10062200F0CDA4A2D53DFD92D5E9C5F0CCA4A2D5CA
:0B0632003CFCC205808EE8C0E0200404
:10063D002A200508053D3002031207B11203A2124C
:10064D0007D9053B20000B20010DEE8FF01207920C
:10065D0080091207BF8004EF120780D0E01203C09B
:10066D000204352004101203A21207D9053BE53E02
:10067D00853FF012079280E812080204FF530540EF
:10068D005804764C047242044E4805444F054844C4
:10069D00049F43053C49054855052146052145055F
:0C06AD002147047A2A06704E0000047EEB
:10070E00EF4E6012EF60010EEDBB010B89828A8302
:10071E00F0A3DFFCDEFA2289F05007F709DFFCA90F
:0C072E00F022BBFEFCF309DFFCA9F02266
:10073A00BB010689828A83E0225002E722BBFE02BD
:09074A00E32289828A83E49322F0
:10075300BB010CE58229F582E5833AF583E022505B
:1007630006E92582F8E622BBFE06E92582F8E222A5
:0D077300E58229F582E5833AF583E49322BF
:10078000BB010689828A83F0225002F722BBFE0158
:02079000F32252
:10079200BB010A89828A83F0E5F0A3F0225006F7B2
:0F07A20009A7F01922BBFE06F3E5F009F31922AF
:0E07B100C3E49FFFE49EFEE49DFDE49CFC2259
:1007BF00BB010789828A830208345005E9F80208D1
:0A07CF0028BBFE05E9F802084022ED
:0907D900E6FB08E6FA08E6F92245
:1007E200FAE6FB0808E6F925F0F618E6CA3AF62218
:1007F200FAE6FB0808E625F0F9F618E63AFAF622D8
:10080200D083D082F8E4937012740193700DA3A385
:1008120093F8740193F5828883E473740293686099
:06082200EFA3A3A380DF99
:100C3F00100A0B120C83BF0D027F0A020C8DAF0836
:010C4F002282
:05001E008F08D20A2248
:100C1B00EFC394094005EF940E4003BF2003D3802C
:030C2B0001C322E0
:0C082800ECF608EDF608EEF608EFF622FC
:0C083400ECF0A3EDF0A3EEF0A3EFF02237
:0C084000ECF208EDF208EEF208EFF222F4
:0A0C83003098FDAF99C2987E002260
:00000001FF
