:030000000203D127
:0C03D100787FE4F6D8FD75812102041845
:10084B0001120088080A0A0A0A0A0A0A0A01110098
:10085B0001150088000000000000000000011700D7
:09086B000118000119000116003A
:100267007811E6C3940A7480948050030203D0E4A3
:10027700F6781EE6FE08E6FF781CA60608A6071213
:10028700045D781EEEF608EFF6781CE6FC08E6FD3E
:10029700EE6CFCEF6DFDEC5E781AF6ED5F08F6EF9D
:1002A700F4FFEEF45C7813F6ED5F08F6781AE6FAD9
:1002B70008E6FB30E0147816E62401FFE433FE7C01
:1002C700007D641202047816A605EAC313EB133007
:1002D700E00C7818E624035403FFF61207EC781AAB
:1002E700E6FE08E67802CEC313CE13D8F930E00B4A
:1002F7007818E6045403FFF61207EC781AE6FE08AE
:10030700E67803CEC313CE13D8F930E01C7817E68E
:100317007004762080037817167817E6FF7B007A3B
:10032700007919750C0112063C791AE7C4F854F0E4
:10033700C809E7C4540F4830E01D7817E6642070F9
:1003470003F680037817067817E6FF7B007A0079B3
:1003570019750C0112063C781AE6FE08E67805CEF8
:10036700C313CE13D8F930E0277819E624EFFFE45A
:1003770033A6077817E664207003F680037817061C
:100387007817E6FF7B007A007919750C0112069041
:10039700781AE6FE08E67806CEC313CE13D8F930EE
:1003A700E0277819E62411FFE433A6077817E664F7
:1003B700207003F680037817067817E6FF7B007A2C
:0A03C700007919750C01120690224E
:1004E7007815E6C39464748094804069E4F6FFEF5E
:1004F700C3940874809480500A74082FF8740AF221
:100507000F80EC7816E6FF75F00A8475F00A847898
:1005170008E5F0F2EF75F00A8408E5F0F208740BCD
:10052700F27818E6780BF208740BF27819E6FF7583
:10053700F0648475F00A84780DE5F0F2EF75F00A3F
:100547008475F00A8408E5F0F27819E675F00A84F4
:05055700780FE5F0F251
:01055C00227C
:03001B0002055D7E
:10055D00C0E0C0F0C083C082C0D075D000C000C064
:10056D0001C002C003C004C005C006C00778110653
:10057D00781506781206E664087001F67812E6FF23
:10058D002408F8E2FEC3942C4008EE24D4FDD201D9
:10059D00800B7812E6FF2408F8E2FDC20112074F26
:1005AD007BFE7A0079001205D1D007D006D005D098
:1005BD0004D003D002D001D000D0D0D082D083D0CF
:0405CD00F0D0E03258
:10091300538EBF53890F758B18758DFCC28FD28E82
:05092300D2ABD2AF22AF
:10089E001209491208FA7818A60718E6FF7B007AA3
:1008AE00007919750C0112063C1209131202671217
:0408BE0004E780F8D3
:0E0949007DFF7F80120957E4FD7FA002095751
:10045D00E4FFFEC2C4D2C2D2B5D2B420B3010F2084
:10046D00B20343070220B10343070420B00343073F
:10047D0008D2C4C2C2D2B5D2B420B30343071020F0
:10048D00B20343072020B10343074020B0034307C5
:10049D0080D2C4D2C2C2B5D2B420B3034306012068
:1004AD00B20343060220B10343060420B003430602
:1004BD0008D2C4D2C2D2B5C2B420B30343061020B1
:1004CD00B20343062020B10343064020B003430688
:0904DD0080D2C4D2C2D2B5D2B45F
:0104E60022F3
:030874000121005F
:1005D1009000011201C525E0FF1201AC4FFF900010
:1005E100021201C525E025E04FFF9000031201C56D
:1005F10033333354F84FFF9000041201C5C454F053
:100601004FFF9000051201C5C43354E04FFF900025
:10061100061201C5C4333354C04FFF9000071201C5
:10062100C5FEC433333354804FFF7821E66F600A2F
:0A063100A607EFF4FD7F80120957C1
:01063B00229C
:0C0964003F065B4F666D7D077F6F004013
:10074F008F0D8D0E7DFF7FE0120957AF0DA8077437
:10075F0001088002C333D8FCFD7FC0120957E50E94
:10076F0090096493FF3001047E8080027E00EF4E7B
:07077F00F4FD7FE0020957C1
:0D0957008D80E5A0541F4FF5A053A01F2276
:0408C2007F057E0030
:1008C600EF1FAA0670011E4A600FE4FDEDC3940CEB
:0908D6007480948050EA0D80F357
:0108DF0022F6
:07081D007FCC1208247FBE0E
:02082400A90722
:10082600E4FBEBC39408748094805012C294E913DD
:1008360092941208C2D294E9C313F90B80E47F059F
:050846007E000208C65F
:100716007FCC1208247FBE12082412072C12072C45
:0607260012072C12072C43
:10072C00E4FBEBC39408748094805014C294ECC323
:10073C0013FCD2943094034304801208C20B80E261
:02074C00AF04F8
:01074E002288
:0A07BB007FCC1208247F44120824AA
:1007C500C200D2947F0C7E001208C6C2947F507E70
:1007D500001208C6D2947F0A7E001208C6A294921F
:0607E500001208C2A20090
:0107EB0022EB
:1006D7001207C51207BB12081D12072C8F0F12072E
:1006E7002C8F101207C51207BB12081D12072CA961
:1006F7000712072CE50FB501D7E510B507D2AD0FE7
:0F070700FCEC120129E4FBFA7980783D02001E18
:1008FA001207C51207168F081207C5120716E50850
:08090A00B507EDC4135403FF0F
:0109120022C2
:1007EC00AC071207C57FCC1208247F4E120824E4F4
:1007FC00FF120824E4FF120824ECC43354E0441F15
:10080C00FF1208241207C57FCC1208247F48020867
:01081C0024B7
:0408E000D2A07F051E
:1008E400000000000000000000000000000000AE56
:0608F400071FEE70EB226D
:0F093A00D2A11208E0C2A17F051208E4C2A022D8
:0C097000C2A11208E0D2A17F050208E439
:02078600AD07BD
:10078800E4FCECC39408748094805024C2A07F05D4
:100798001208E4ED30E704D2A18002C2A17F05125D
:1007A80008E4D2A0ED25E0FD7F051208E40C80D214
:0207B800C2A0DD
:0107BA00221C
:10087800E4FCECC394087480948050171208E0EDEF
:1008880025E0FD30A103430501C2A07F051208E45D
:050898000C80DFAF053C
:01089D002238
:100928001208E0A2A1E433FDC2A07F051208E4AFDB
:0109380005B9
:01093900229B
:10000300C2A0EF24FF92A17F051208E41208E0C208
:08001300A0D2A17F050208E460
:10063C008F088B098A0A890B12093A7FA012078648
:10064C00120928AF0812078612092812093A7FA14D
:10065C00120786120928AF0C150CEF6024120878CB
:10066C00AB09050BE50BAA0A7002050A14F9EF1287
:10067C0001F2E50C70047F0180027F001200038000
:04068C00D50209701A
:08097C007F757EB8DEFEDFFC92
:010984002250
:100690008F088B098A0A890B12093A7FA0120786F4
:1006A000120928AF08120786120928AF0C150CEFA3
:1006B000601FAB09050BE50BAA0A7002050A14F9C5
:1006C0001201ACFF1207861209287FC81208E480C5
:0706D000DA12097002097C37
:10001E00EC4D6011E8497017ED33EC3304600DE4DC
:10002E00FCFFFEFD22E933E8330470F8020197125B
:10003E00016258046009E4CC24815006285009025C
:10004E0001A128400302019EC0E0EB4A7044B98032
:10005E0006D0E0FB02018DEF4E701CBD8008EBFF59
:10006E00EAFEE9FD80EBE98DF0A4FEE5F002010762
:10007E00E9CDF9EAFEEBFFEF89F0A4FCE5F0CE89BD
:10008E00F0A42EFFE435F0CD89F0A42DFEE435F07A
:10009E008067EF4E7005BD80D780C3EF8BF0A4ACA8
:1000AE00F0EE8BF0A42CFCE435F0F8EF8AF0A42CE3
:1000BE00E5F038FCE433CB8DF0A42CFCE5F03BF8F6
:1000CE00EE8AF0A42CFCE5F038F8E433CF89F0A4E6
:1000DE002CFCE5F038CF3400CE89F0A42FFFE5F0EC
:1000EE003EFEE433C98DF0A42EFEE5F039CD8AF044
:1000FE00A42FFFE5F03EFEE43DFD33D0E0FB5007BC
:10010E000BBB000F0201A1EC2CFCEF33FFEE33FE14
:06011E00ED33FD02017942
:1001240075F020800E75F010800575F0087D007E56
:10013400007F003392D530D503120259EC334010BE
:10014400EF33FFEE33FEED33FDEC33FCD5F0ED225F
:0E015400E5F0247EA2D513CC92E7CDCEFF229B
:10016200E9D2E7C933E833F892D5EDD2E7CD33ECE3
:0701720033FC5002B2D5225C
:10017900EC30E7100FBF000C0EBE00080DBD0004E7
:100189000BEB6014A2D5EB13FCED92E7FD2274FF93
:10019900FCFDFEFF22E480F8A2D574FF13FC7D80EC
:0301A900E480EF00
:1003DD0002089EE493A3F8E493A34003F68001F290
:1003ED0008DFF48029E493A3F85407240CC8C33321
:1003FD00C4540F4420C8834004F456800146F6DFF0
:10040D00E4800B010204081020408090084BE47E2C
:10041D00019360BCA3FF543F30E509541FFEE493E4
:10042D00A360010ECF54C025E060A840B8E493A3AB
:10043D00FAE493A3F8E493A3C8C582C8CAC583CAD6
:10044D00F0A3C8C582C8CAC583CADFE9DEE780BE8E
:010877000080
:1001AC00BB010689828A83E0225002E722BBFE0251
:0901BC00E32289828A83E4932284
:1001C500BB010CE58229F582E5833AF583E02250EF
:1001D50006E92582F8E622BBFE06E92582F8E22239
:0D01E500E58229F582E5833AF583E4932253
:1001F200BB010689828A83F0225002F722BBFE01EC
:02020200F322E5
:10020400BC000BBE0029EF8DF084FFADF022E4CCDE
:10021400F875F008EF2FFFEE33FEEC33FCEE9DECA7
:10022400984005FCEE9DFE0FD5F0E9E4CEFD22EDED
:10023400F8F5F0EE8420D21CFEADF075F008EF2F37
:10024400FFED33FD4007985006D5F0F222C398FD28
:050254000FD5F0EA22C5
:0E025900C3E49FFFE49EFEE49DFDE49CFC22B6
:00000001FF
