:030000000231DAF0
:0C31DA00787FE4F6D8FD75819202322166
:102ACA005B25752C253032627525303262752530CA
:102ADA003262752C252E32665D0028482C252E314F
:102AEA006629002848312C252E31662900284832CB
:102AFA002C252E316629004572726F723A20696E52
:102B0A0076616C696420706172616D207479706598
:102B1A0020483F0028462C2575290028532C256279
:102B2A0075290028722C252E31662900284C2C255F
:102B3A002E3166290028572C252E31662900457228
:102B4A00726F723A20696E76616C69642070617284
:102B5A00616D20747970653A20256300256C7500D3
:102B6A004F4B004552524F52004572726F723A20D3
:102B7A006661696C656420746F2067657420746986
:102B8A006D6520666F726D61743A20257300256643
:102B9A00004572726F723A206661696C65642074CE
:102BAA006F2067657420706172616D2048207661BC
:102BBA006C7565004572726F723A206661696C6560
:102BCA006420746F2067657420706172616D20489B
:102BDA00312076616C7565004572726F723A2066B3
:102BEA0061696C656420746F206765742070617216
:102BFA00616D2048322076616C7565002575004547
:102C0A0072726F723A206661696C656420746F2013
:102C1A0067657420706172616D20462076616C75FB
:102C2A0065004572726F723A206661696C6564204C
:102C3A00746F2067657420706172616D205320760D
:102C4A00616C7565004572726F723A206661696CD3
:102C5A00656420746F2067657420706172616D20ED
:102C6A00722076616C7565004572726F723A2066E1
:102C7A0061696C656420746F206765742070617285
:102C8A00616D204C2076616C7565004572726F72B9
:102C9A003A206661696C656420746F2067657420E8
:102CAA00706172616D20572076616C7565005741BD
:102CBA00524E005B25752C25303262752530326202
:102CCA007525303262752C25755D005B25752C25BE
:102CDA0030326275253032627525303262752C25A4
:042CEA006C645D00B9
:102EA800A0641C00000000000000000000000000FA
:102EB800000000000000000000000000000000000A
:102EC80000000000000000000000000000000000FA
:102ED80000000000000000000000000000000000EA
:102EE80000000000000000000000000000000000DA
:102EF80000000000000000000000000000000000CA
:102F080000000000000000018300017E0001540061
:102F18008814000000000000000088830A0A0A0ADA
:102F28000A0A0A0A017500016500015A00017D00BC
:102F38000279000A027B0001026607D001860202BC
:102F480063000A025F000A025C000A0268000A8342
:102F580080173B328500000A142832850F000A14B6
:102F68002832017800026100000273000002550057
:102F780000018100026F000002710000026A000077
:102F8800C10DC10EC10F015B00C10C015E00027FC3
:102F98000000026D0000027600008A0500000000B3
:102FA800000000000000018200016C00C112C11184
:022FB800C11046
:10314B007875E6FF7E0070097865E670047D018076
:10315B00027D007814EDF2EF4E700B7865E664019A
:10316B0070047F0180027F007815EFF27875E670AE
:10317B000B7865E6640270047F0180027F0078168D
:10318B00EFF27875E6700B7865E6640370047F01E7
:10319B0080027F007817EFF2786AE6FE08E6FF649C
:1031AB00F47003EE64016006BE0107BFF5047F01F6
:1031BB0080027F007818EFF2A20DE43308F2200EA4
:0F31CB0003E408F2200F07200C04E4781BF22223
:102CEE007853E6C3940A748094805003022EA7E4AE
:102CFE00F67889E6FE08E6FF7887A60608A607128C
:102D0E0034D87889EEF608EFF67887E6FC08E6FD0B
:102D1E00EE6CFCEF6DFDEC5E7884F6ED5F08F6EF81
:102D2E00F4FFEEF45C7857F6ED5F08F67885E62052
:102D3E00E003022DF57875E6FF7E007008760178C7
:102D4E005AF6022DF5EF64014E70297875760278E9
:102D5E007DF6F523C3E52394057480948040030229
:102D6E002DF574002523F8E2FF740F2523F8EFF2FA
:102D7E00052380E07875E66402706CF67865F67F60
:102D8E0001F523E523FD7C00C394057480948050E7
:102D9E0033740F2523F8E2FB7A00C37480948040CD
:102DAE001BD3EB9432748094805011ED6012240E7C
:102DBE00F8E2FE740F2DF8E2D39E5004E4FF800477
:102DCE00052380BFEF6020E4F523C3E5239405744B
:102DDE008094805012740F2523F8E2FF740025238F
:102DEE00F8EFF2052380E37884E6C31308E6133088
:102DFE00E0467875E6FF7E007011786506E6D3949E
:102E0E0003748094804031E4F6802DEF64014E709F
:102E1E0011785A06E6D3940774809480401AE4F62B
:102E2E0080167875E66402700F787D06E6D39404FA
:102E3E00748094804002E4F67984E7C4F854F0C8B4
:102E4E0009E7C4540F4830E01F7875E66402701825
:102E5E00787DE6FF240FF8E2C3946374809480506B
:102E6E0007740F2FF8E204F27884E6FE08E6780580
:102E7E00CEC313CE13D8F930E01F7875E664027016
:102E8E0018787DE6FF240FF8E2D3940074809480C6
:092E9E004007740F2FF8E214F252
:012EA7002208
:100026007859E6C39450748094805003021246E4D3
:10003600F67BFE7A00798012345712333D12159CF6
:100046007861EEF608EFF6D39400EE648094804073
:100056000818E6FE08E6FF800E7861E6FE08E6FF71
:10006600C3E49FFFE49EFE7873A60608A6077861A0
:10007600E6FC08E6FDEC1215637B9A7A9979197805
:100086003F12133FE4FBFA79A5784312124E12157C
:100096009C1232D47871A60608A6077886E6600315
:1000A60002026E7863E6FE08E6FF7C007D141218F5
:1000B6004A7871E6FC08E6FDD3EF9DEE9C400BEF17
:1000C6009D7856F6EE9C18F68006E47855F608F606
:1000D6007855E6FC08E6FDE4121563E4FBFA798040
:1000E60078BF12133FE4FBFA79207841121448C016
:1000F60004C005C006C0077855E6FC08E6FDE41214
:100106001563D003D002D001D00012133FE4FBFAEE
:1001160079207841121448C004C005C006C007788B
:1001260055E6FC08E6FDE4121563D003D002D001C3
:10013600D00012133FE4FBFA79207841121448E408
:10014600FBFA79407840121448C004C005C006C0C6
:10015600077855E6FC08E6FD7863E6FE08E6FF123A
:10016600184AAC06AD07E4121563E4FBFA79207869
:1001760041121448C004C005C006C0077855E6FC05
:1001860008E6FDE4121563D003D002D001D00012B8
:10019600133FE4FBFA79207841121448D003D002C9
:1001A600D001D00012124E7BC37AF57948784012FE
:1001B600133FE4FBFA79C8784212144812159C786A
:1001C6006FA60608A6077863E6FC08E6FDE41215A6
:1001D600637B2D7AF97985784012133FE4FBFA792F
:1001E600207841121448C004C005C006C0077863D1
:1001F600E6FC08E6FDE4121563D003D002D001D078
:100206000012133FE4FBFA79207841121448C00427
:10021600C005C006C0077863E6FC08E6FDE41215D3
:1002260063D003D002D001D00012133FE4FBFA7969
:10023600207841121448C004C005C006C007786F74
:10024600E6FC08E6FDE4121563E4FBFA79C8784299
:1002560012133FE4FBFA79207841121448D003D0F8
:1002660002D001D0000204247886E664016003020D
:100276000332785CE6FE08E6FF7C007D0A12184A27
:100286007871E6FC08E6FDD3EF9DEE9C400BEF9DF2
:100296007856F6EE9C18F68006E47855F608F67859
:1002A60063E6FC08E6FDE41215637BC37AF579C8BC
:1002B600784012133FC004C005C006C0077855E653
:1002C600FC08E6FDE4121563D003D002D001D0008D
:1002D60012133FE4FBFA79C8784212144812159CAF
:1002E600786FA60608A6077855E6FC08E6FDE41230
:1002F6001563E4FBFA79C8784212133FE4FBFA79F6
:10030600207841121448C004C005C006C007785CB6
:10031600E6FC08E6FDE4121563A804A905AA06ABE7
:1003260007D007D006D005D0040204247886E664F8
:1003360002600302042F785CE6FE08E6FF7C007D7F
:100346000A12184A7871E6FC08E6FDD3EF9DEE9C8A
:10035600400BEF9D7856F6EE9C18F68006E478552D
:10036600F608F67868E6FC08E6FDE4121563E4FB99
:10037600FA7920784112133FE4FBFA79207841128A
:100386001448C004C005C006C007785FE6FC08E64E
:10039600FDE4121563D003D002D001D00012133F42
:1003A600E4FBFA79207841121448C004C005C0065F
:1003B600C0077855E6FC08E6FDE4121563D003D0C5
:1003C60002D001D00012133FE4FBFA79C87842123A
:1003D600144812159C786FA60608A6077855E6FC01
:1003E60008E6FDE4121563E4FBFA79C878421213B5
:1003F6003FE4FBFA79207841121448C004C005C0D6
:1004060006C007785CE6FC08E6FDE4121563A8045E
:10041600A905AA06AB07D007D006D005D00412144A
:10042600488F288E278D268C25E4FFFE7DC87C42CA
:10043600AB28AA27A926A8251214E5600D400BE4CF
:10044600F528F5277526C8752542E4FFFEFDFCABA9
:1004560028AA27A926A8251214E55009E4F528F5A7
:1004660027F526F525AB28AA27A926A825E4FFFE09
:100476007DC87C4212124A12159C7881A6077879AB
:10048600E6FE08E6FF7C007D0A12184AD37856E697
:100496009F18E69E404F786BE664F4700418E66495
:1004A600016039752F017530F47880E2F53108E284
:1004B600F53208E2F5337855E6FC08E6FDE4121558
:1004C60063E4FBFA79C878421214488F378E368D6A
:1004D600358C347BFF7A2A79CA1220C4786A760171
:1004E6000876F4806D787BE6FE08E6FF7C007D0AE0
:1004F60012184AC37856E69F18E69E504F786BE668
:1005060064F5700418E664016039752F017530F5DD
:100516007880E2F53108E2F53208E2F5337855E6FF
:10052600FC08E6FDE4121563E4FBFA79C87842128A
:1005360014488F378E368D358C347BFF7A2A79CAEC
:100546001220C4786A76010876F58006E4786AF6A1
:1005560008F67861E6FC08E6FDEC1215637B0A7A7C
:10056600D77923783D12133FC004C005C006C007E3
:100576007861E6FC08E6FDEC121563D003D002D0E4
:1005860001D00012133FC004C005C006C007786141
:10059600E6FE08E6FF7C007D0A12184AAC06AD07A7
:1005A600EC121563A804A905AA06AB07D007D00666
:1005B600D005D00412124AE4FBFA7961784312128C
:1005C6004EE4FBFA797A7844121448E4FBFA794C43
:1005D600784212133FC004C005C006C0077F43120D
:1005E60033A1AC07E4121568D003D002D001D000C5
:1005F60012124E12159C8E238F247800E2FCE41210
:100606001568E4FBFA797F784312133FE4FBFA7925
:10061600487842121448C004C005C006C007AC237F
:10062600AD24E4121563A804A905AA06AB07D007F2
:10063600D006D005D0041214E560025007E478789D
:10064600F6020A1C7801E2FCE4121568E4FBFA796A
:100656007F784312133FE4FBFA7948784212144834
:10066600C004C005C006C007AC23AD24E412156360
:10067600A804A905AA06AB07D007D006D005D00462
:100686001214E5600540030207327800E2FCE4122A
:100696001568E4FBFA797F784312133FE4FBFA7995
:1006A600487842121448C004C005C006C007780145
:1006B600E2FCE4121568E4FBFA797F784312133FF3
:1006C600E4FBFA79487842121448D003D002D001EC
:1006D600D00012124AC004C005C006C0077800E266
:1006E600FCE4121568E4FBFA797F784312133FE4C1
:1006F600FBFA79487842121448C004C005C006C007
:1007060007AC23AD24E4121563D003D002D001D088
:100716000012124AE4FBFA79A0784012133FD00384
:10072600D002D001D000121448020A057802E2FC79
:10073600E4121568E4FBFA797F784312133FE4FB71
:10074600FA79487842121448C004C005C006C007AA
:10075600AC23AD24E4121563A804A905AA06AB07C9
:10076600D007D006D005D0041214E5600540030278
:1007760008247801E2FCE4121568E4FBFA797F7834
:100786004312133FE4FBFA79487842121448C00436
:10079600C005C006C0077802E2FCE4121568E4FB57
:1007A600FA797F784312133FE4FBFA7948784212CC
:1007B6001448D003D002D001D00012124AC004C09F
:1007C60005C006C0077801E2FCE4121568E4FBFAEE
:1007D600797F784312133FE4FBFA79487842121482
:1007E60048C004C005C006C007AC23AD24E41215FA
:1007F60063D003D002D001D00012124AE4FBFA798A
:10080600A0784012133FD003D002D001D0001214BA
:1008160048E4FBFA79A0784012124E020A057803E2
:10082600E2FCE4121568E4FBFA797F784312133F81
:10083600E4FBFA79487842121448C004C005C006A1
:10084600C007AC23AD24E4121563A804A905AA06C3
:10085600AB07D007D006D005D0041214E5600540DA
:10086600030209167802E2FCE4121568E4FBFA7941
:100876007F784312133FE4FBFA7948784212144812
:10088600C004C005C006C0077803E2FCE412156880
:10089600E4FBFA797F784312133FE4FBFA79487850
:1008A60042121448D003D002D001D00012124AC01E
:1008B60004C005C006C0077802E2FCE4121568E42D
:1008C600FBFA797F784312133FE4FBFA79487842C2
:1008D600121448C004C005C006C007AC23AD24E40A
:1008E600121563D003D002D001D00012124AE4FBE5
:1008F600FA79A0784012133FD003D002D001D0007D
:10090600121448E4FBFA7920784112124E020A05C5
:100916007804E2FCE4121568E4FBFA797F78431266
:10092600133FE4FBFA79487842121448C004C00524
:10093600C006C007AC23AD24E4121563A804A905BC
:10094600AA06AB07D007D006D005D0041214E5607E
:10095600054003020A187803E2FCE4121568E4FB7A
:10096600FA797F784312133FE4FBFA79487842120A
:100976001448C004C005C006C0077804E2FCE412AF
:100986001568E4FBFA797F784312133FE4FBFA79A2
:10099600487842121448D003D002D001D000121277
:1009A6004AC004C005C006C0077803E2FCE412157D
:1009B60068E4FBFA797F784312133FE4FBFA79483F
:1009C6007842121448C004C005C006C007AC23AD67
:1009D60024E4121563D003D002D001D00012124ACB
:1009E600E4FBFA79A0784012133FD003D002D0017D
:1009F600D000121448E4FBFA7970784112124EE4E2
:100A0600FBFA7920784112133F12159C7878A607D5
:100A16008004787876C8E4FFEFC3940874809480E5
:100A2600500A74832FF8740AF20F80EC7875E61476
:100A36007003020D6C1470030211E92402600302B4
:100A460012467865E614604E147003020B9F14700C
:100A560003020C45240360030212467880E2FF7508
:100A6600F00A847883F2EF75F00A8408E5F0F2085C
:100A7600740BF27881E2FF75F00A847886F2EF75DE
:100A8600F00A8408E5F0F208740BF27882E2FF754A
:100A9600F00A8402123A7861E6FE08E6FFC3EE64C5
:100AA6008094804058EF9464EE6480948040127C79
:100AB600007D641218B17C007D0A1218B1AF058062
:100AC600027F0A7884EFF27861E6FE08E6FFC394B7
:100AD6000AEE6480948040127C007D0A1218B17C74
:100AE600007D0A1218B1AF0580027F0A7885EFF201
:100AF6007861E6FE08E6FF7C007D0A80577873E69B
:100B0600FE08E6FFC39464EE64809480504DC3EF04
:100B1600940AEE64809480402B7884740BF2787388
:100B2600E6FA08E6FB7C007D0AFFAE021218B17CED
:100B3600007D0A1218B17885EDF27C007D0AAF03BC
:100B4600AE0280107885740BF27873E6FE08E6FF35
:100B56007C007D0A1218B17886EDF27887740BF264
:100B66007855E6FA08E6FB7C007D64FFAE021218B3
:100B76005C7C007D0A12185CED242C7888F27C00DF
:100B86007D0AAF03AE0212185C7C007D0A12185C67
:100B96007889EDF27855020F407881E6FFFD7C00FA
:100BA600C3946474809480400DEF75F0648475F08E
:100BB6000A84AFF080027F0A7883EFF2C3ED940ACD
:100BC600EC64809480400F7881E675F00A8475F0B5
:100BD6000A84AFF080027F0A7884EFF27881E675A6
:100BE600F00A847885E5F0F208740BF2786FE6FE79
:100BF60008E6FFC394E8EE940340127C037DE812F6
:100C0600185C7C007D0A12185CAF0580027F0A78AA
:100C160087EFF2786FE6FE08E6FFC39464EE940071
:100C260040127C007D6412185C7C007D0A12185C00
:100C3600AF0580027F0A7888EFF2786F020FD478CA
:100C460061E6FE08E6FFC3EE648094804058EF94A8
:100C560064EE6480948040127C007D641218B17C3E
:100C6600007D0A1218B1AF0580027F0A7883EFF281
:100C76007861E6FE08E6FFC3940AEE64809480403D
:100C8600127C007D0A1218B17C007D0A1218B1AFE1
:100C96000580027F0A7884EFF27861E6FE08E6FFB7
:100CA6007C007D0A80577873E6FE08E6FFC39464ED
:100CB600EE64809480504DC3EF940AEE6480948075
:100CC600402B7883740BF27873E6FA08E6FB7C0017
:100CD6007D0AFFAE021218B17C007D0A1218B178A7
:100CE60084EDF27C007D0AAF03AE02801078847436
:100CF6000BF27873E6FE08E6FF7C007D0A1218B157
:100D06007885EDF27886740BF27878E6FFFB7A0048
:100D1600C394E87480948340147E007C037DE812BB
:100D2600185C7C007D0A12185CAF0580027F0A7889
:100D360087EFF2C3EB9464EA64809480400F78787E
:100D4600E675F0648475F00A84AFF080027F0A7855
:100D560088EFF27878E6FF75F00A8475F00A84E584
:100D6600F0242C02123A7883740CF2788514F27807
:100D76005AE6B408004003021246900D87F8282868
:100D860073020D9F020E1E020E9D020F4C020F589B
:100D9600020FFB02109E02114178847401F27879E9
:100DA600E6FE08E6FFC39410EE942740127C277DEA
:100DB6001012185C7C007D0A12185CAF0580027F59
:100DC6000A7886EFF27879E6FE08E6FFC394E8EE45
:100DD600940340127C037DE812185C7C007D0A12A5
:100DE600185CAF0580027F0A7887EFF27879E6FE15
:100DF60008E6FFC39464EE940040127C007D641202
:100E0600185C7C007D0A12185CAF0580027F0A78A8
:100E160088EFF27879020FD478847402F2787BE650
:100E2600FE08E6FFC39410EE942740127C277D103F
:100E360012185C7C007D0A12185CAF0580027F0ADE
:100E46007886EFF2787BE6FE08E6FFC394E8EE9438
:100E56000340127C037DE812185C7C007D0A1218A0
:100E66005CAF0580027F0A7887EFF2787BE6FE08A2
:100E7600E6FFC39464EE940040127C007D64121871
:100E86005C7C007D0A12185CAF0580027F0A7888B8
:100E9600EFF2787B020FD478847403F27866E6FE6C
:100EA60008E6FFC39410EE942740127C277D1012AB
:100EB600185C7C007D0A12185CAF0580027F0A78F8
:100EC60086EFF27866E6FE08E6FFC394E8EE940342
:100ED60040127C037DE812185C7C007D0A12185CC7
:100EE600AF0580027F0A7887EFF27866E6FE08E6AD
:100EF600FFC39464EE940040127C007D6412185C7B
:100F06007C007D0A12185CAF0580027F0A7888EFA4
:100F1600F27866E6FE08E6FFC3940AEE94004012F5
:100F26007C007D0A12185C7C007D0A12185CAF05F5
:100F360080027F0A7889EFF27866E6FE08E6FF7C93
:100F4600007D0A0211E178847404F27886E6788AD4
:100F5600F22278847405F27863E6FE08E6FFC3940D
:100F660010EE942740127C277D1012185C7C007DC1
:100F76000A12185CAF0580027F0A7886EFF2786362
:100F8600E6FE08E6FFC394E8EE940340127C037D78
:100F9600E812185C7C007D0A12185CAF0580027F9F
:100FA6000A7887EFF27863E6FE08E6FFC39464EEFC
:100FB600940040127C007D6412185C7C007D0A124D
:100FC600185CAF0580027F0A7888EFF27863E6FA4C
:100FD60008E6FB7C007D0AFFAE0212185C7C007DF1
:100FE6000A12185CED242C7889F27C007D0AAF0386
:100FF600AE020211E178847406F2785FE6FE08E636
:10100600FFC39410EE942740127C277D1012185CC3
:101016007C007D0A12185CAF0580027F0A7886EF95
:10102600F2785FE6FE08E6FFC394E8EE940340120A
:101036007C037DE812185C7C007D0A12185CAF0503
:1010460080027F0A7887EFF2785FE6FE08E6FFC344
:101056009464EE940040127C007D6412185C7C005F
:101066007D0A12185CAF0580027F0A7888EFF27855
:101076005FE6FA08E6FB7C007D0AFFAE0212185C0A
:101086007C007D0A12185CED242C7889F27C007DA8
:101096000AAF03AE020211E178847407F27868E6BB
:1010A600FE08E6FFC39410EE942740127C277D10BD
:1010B60012185C7C007D0A12185CAF0580027F0A5C
:1010C6007886EFF27868E6FE08E6FFC394E8EE94C9
:1010D6000340127C037DE812185C7C007D0A12181E
:1010E6005CAF0580027F0A7887EFF27868E6FE0833
:1010F600E6FFC39464EE940040127C007D641218EF
:101106005C7C007D0A12185CAF0580027F0A788835
:10111600EFF27868E6FA08E6FB7C007D0AFFAE028D
:1011260012185C7C007D0A12185CED242C7889F27A
:101136007C007D0AAF03AE020211E178847408F2E6
:10114600785CE6FE08E6FFC39410EE942740127C16
:10115600277D1012185C7C007D0A12185CAF058092
:10116600027F0A7886EFF2785CE6FE08E6FFC39413
:10117600E8EE940340127C037DE812185C7C007D47
:101186000A12185CAF0580027F0A7887EFF2785C56
:10119600E6FE08E6FFC39464EE940040127C007DF0
:1011A6006412185C7C007D0A12185CAF0580027F11
:1011B6000A7888EFF2785CE6FA08E6FB7C007D0A9E
:1011C600FFAE0212185C7C007D0A12185CED242C1E
:1011D6007889F27C007D0AAF03AE0212185C788A29
:1011E600EDF2227883740DF2787DE6FF1460151413
:1011F600601714601A14602224047026E47884F2BE
:1012060008F2801EE47884800A78847401800F785E
:10121600847401F2087405F2800878847402F2E49A
:1012260008F2740F2FF8E2FF75F00A8475F00A844D
:10123600E5F0242C7889F2EF75F00A8408E5F0F2DF
:011246002285
:103729007883E6FEEFC39E500B741C2FF8E26D60A0
:04373900030F80EC0E
:01373D002269
:101ABD007883E67003022061787EE6C3940A748011
:101ACD00948050030220617BFE7A00791C7D3F12C9
:0A1ADD0036F3EA494B7003021C5B6C
:101AE7007D28E4FF1237298F230523741C2523F84B
:101AF700E224BA7003021BB824FA7003021BFE2407
:101B0700F97003021BCA24FC7003021C2424E5702D
:101B170003021BD8242A6003021C4A741D2523F8DC
:101B2700E2B42C26785CE6FC08E6FDE4121563E4D3
:101B3700FBFA792078411214488F328E318D308C20
:101B47002F7BFF7A2A79E402204D741D2523F8E2C2
:101B5700B431267879E6FC08E6FDE4121563E4FB68
:101B6700FA792078411214488F328E318D308C2FBC
:101B77007BFF7A2A79ED02204D741D2523F8E2B404
:101B87003226787BE6FC08E6FDE4121563E4FBFAEF
:101B9700792078411214488F328E318D308C2F7B0B
:101BA700FF7A2A79F702204D7BFF7A2B79010220F1
:101BB7004D7BFF7A2B791E7866E6F52F08E6F53020
:101BC70002204D7BFF7A2B79257886E6F52F0220B8
:101BD7004D7863E6FC08E6FDE4121563E4FBFA7949
:101BE7002078411214488F328E318D308C2F7BFF35
:101BF7007A2B792D02204D785FE6FC08E6FDE4128A
:101C07001563E4FBFA792078411214488F328E313C
:101C17008D308C2F7BFF7A2B793602204D7868E642
:101C2700FC08E6FDE4121563E4FBFA79207841121B
:101C370014488F328E318D308C2F7BFF7A2B793F72
:101C470002204D7BFF7A2B7948741C2523F8E2F597
:011C57002F5D
:101C580002204D7BFE7A00791C7D3A1236F3EA4960
:061C68004B7003021D3B5E
:101C6E00752FFF75302B7531667532007533007523
:101C7E0034237BFE7A00791F12254FEF64014E60EC
:101C8E0003021D297B107A27F9F8AF26AE25AD2465
:101C9E00AC23121942E47B64FAF9F8121942AF032D
:101CAE008F27E47B64FAF9F8AF26AE25AD24AC237A
:101CBE00121942E47B64FAF9F8121942AF038F2825
:101CCE00E47B64FAF9F8AF26AE25AD24AC231219E5
:101CDE0042AF038F29D3E527941774809480503236
:101CEE00E528943B748094805028EF943B74809444
:101CFE0080501F7880E527F208E528F208E529F2E2
:101D0E007BFE7A0079801234007BFF7A2B796A028F
:101D1E00204D7BFF7A2B796D02204D752FFE75308D
:0A1D2E000075311F7BFF7A2B7973DB
:031D380002204D39
:101D3B007D28E4FF1237298F23E4F524F525E523CD
:091D4B00C3788396400302202DA9
:101D54000523741C2523F8E224BA7003021E94247C
:101D6400FA7003021F6D24F97003021ECF24FC7065
:101D740003021FBD24E57003021F1B242A60030213
:101D84002010741D2523F8E2642C704D05230523CF
:101D9400741C2523F9E4FA7BFEC0030B8B2F7530EA
:101DA4002B753198F532753300753426D00312251E
:101DB4004FEF64014E7019FFFE7D207C41AB29AAD0
:101DC40028A927A82612133F12159C785C021F5CD1
:101DD4007BFF7A2B799B02201E741D2523F8E26475
:101DE40031704D74032523F523241CF9E4FA7BFE9A
:101DF400C0030B8B2F75302B753198F5327533007A
:101E0400753426D00312254FEF64014E7019FFFE7E
:101E14007D207C41AB29AA28A927A82612133F12AA
:101E2400159C7879021F5C7BFF7A2B79BE02201EF9
:101E3400741D2523F8E26432704D74032523F523C1
:101E4400241CF9E4FA7BFEC0030B8B2F75302B7531
:101E54003198F532753300753426D00312254FEFCF
:101E640064014E7019FFFE7D207C41AB29AA28A98C
:101E740027A82612133F12159C787B021F5C7BFF58
:101E84007A2B79E202201E7BFF7A2B790102201E35
:101E940005230523741C2523F9E4FA7BFEC0030BF8
:101EA4008B2F75302C753106F53275330075342A55
:101EB400D00312254FEF64014E70077866A62A08F6
:101EC40080477BFF7A2C790902201E0523052374A1
:101ED4001C2523F9E4FA7BFEC0030B8B2F75302CF1
:101EE400753106F53275330075342AD00312254F47
:101EF400EF64014E7018D3E52B9402E52A94004058
:101F0400067524010220217886A62B0220037BFF7C
:101F14007A2C792C02201E05230523741C2523F911
:101F2400E4FA7BFEC0030B8B2F75302B753198F5CB
:101F340032753300753426D00312254FEF64014EF9
:101F4400701EFFFE7D207C41AB29AA28A927A82664
:101F540012133F12159C7863A60608A607022003F5
:101F64007BFF7A2C794F02201E05230523741C2540
:101F740023F9E4FA7BFEC0030B8B2F75302B7531EC
:101F840098F532753300753426D00312254FEF646B
:101F9400014E701DFFFE7D207C41AB29AA28A92794
:101FA400A82612133F12159C785FA60608A6078080
:101FB4004E7BFF7A2C7972806105230523741C25DE
:101FC40023F9E4FA7BFEC0030B8B2F75302B75319C
:101FD40098F532753300753426D00312254FEF641B
:101FE400014E7020FFFE7D207C41AB29AA28A92741
:101FF400A82612133F12159C7868A60608A6077532
:10200400250180197BFF7A2C7995800E7BFF7A2B32
:102014007948741C2523F8E2F52F1220C47D28AFDB
:06202400231237298F236F
:10202A00021D49E525600CE52460087BFF7A2C79BE
:10203A00B88010E5257BFF60067A2B796A80047ADE
:06204A002B796D1220C489
:10205000E47883F6FE7F64FD7BFE7A00791C121A19
:022060007922E3
:030023000236168C
:10361600C0E0C0D075D000C000309810787E76002B
:103626007883E606241CF8E599F2C298D000D0D03B
:03363600D0E032AF
:03001B0002282098
:10282000C0E0C0F0C083C082C0D075D000C000C07E
:1028300001C002C003C004C005C006C0077853062B
:10284000785906787EE6C3946474809480500106BB
:1028500078760806E618700106860664E87003EECE
:1028600064036003022A137876F608F6AF8CEFADA6
:102870008AFCEC12156312159C786DA60608A60753
:10288000758A00758C00788206E664057001F6781A
:102890006CE6C3940574809480500106786DE6FE62
:1028A00008E6FF7882E6FD75F00584E5F025E02472
:1028B00005F8EEF208EFF2D3786796EE189640121C
:1028C000D20D786DE6FE08E6FF788BA60608A6070F
:1028D0008002C20D786CE6C3940574809480500326
:0328E00002297357
:1028E300754D01754E01ED04F54C7882E62405FF24
:1028F300E433FEAD4C7C00C3ED9FEE6480F874803E
:1029030098504CED2401FFEC33FE7D0512185CED6D
:1029130025E02405F8E2FE08E2FFE54C75F00584A6
:10292300E5F025E02405F8E2FC08E2FDD39FEC9EE8
:102933004005754E008014C3ED9FEC9E5005754D08
:10294300008008754E00754D008004054C809BE5A2
:102953004E7004E54D6017D20EE54D7E0060047F96
:102963000080027F01788DA60608A6078002C20EAA
:0F297300786CE6C39402748094805003022A1398
:102982007882E62404F54C2401FFE433FE7C007DCA
:102992000512185CED25E02405F8E2FE08E2FFE4EA
:1029A200FCFDC006C007E54C75F00584E5F025E0A6
:1029B2002405F8E2FE08E2FBAA06D007D006C3EF20
:1029C2009BF550EE9AF54FED9400F54EEC9400F520
:1029D2004D7F187EFC7DFF7CFFAB50AA4FA94EF8BD
:1029E200C31219E2400FE47FE87E03FDFCA84DD339
:1029F2001219E2401AD20FAF50AE4FAD4EAC4D7825
:102A02008F121A1E787F7600087600D20C8002C2DE
:012A12000FB4
:102A1300785406E664087001F67854E6FF2483F8D8
:102A2300E2FEC3942C4008EE24D4FDD20B800B7835
:102A330054E6FF2483F8E2FDC20B123510300E1862
:102A4300785B06E664647010F6781AE270047F011E
:102A530080027F00781AEFF2300C2FC37880E6945F
:102A6300B818E6940B50090806E6187005068002AC
:102A7300C20C785E06E664C87010F6781BE2700438
:102A83007F0180027F00781BEFF2200F0D200E0ADA
:102A9300200D07786BE618466003D38001C3920BC1
:102AA3001237F27BFE7A007914123266D007D00611
:102AB300D005D004D003D002D001D000D0D0D08232
:072AC300D083D0F0D0E03217
:10373E00538EBF53890F758B18758DFCC28FD28E29
:05374E00D2ABD2AF2256
:10379E005389F0438905E4F58AF58CC28DD28C22CB
:1030A700A212300F01B34013A211300E01B3400B2F
:1030B700A210300D01B3400302314A300D20201019
:1030C7001D7BFF7A2C79BD752F017530F67880E26C
:1030D700F53108E2F53208E2F533788B8021300EBE
:1030E700272011247BFF7A2C79BD752F017530F7C6
:1030F7007880E2F53108E2F53208E2F533788DE6BB
:10310700F53408E6F535802C300F2C2012297BFF8B
:103117007A2C79D5752F017530F87880E2F531086A
:10312700E2F53208E2F533788F121A128F378E36AE
:103137008D358C341220C4A20F9212A20E9211A2C6
:043147000D921022B3
:1035CA001237BD12379E12373E1237537BFE7A00EE
:1035DA007980123400122CEE120026121ABD123112
:0635EA004B1230A780EF38
:10333D001235A37FCC12357C7F4412357C1235A318
:10334D007FCC12357C7FBE12357C1236398F2A1216
:10335D0036398F291235A37FCC12357C7F44123537
:10336D007C1235A37FCC12357C7FBE12357C123694
:10337D00398F2B123639E52A652B6005E529B507FE
:10338D00AFE529AD2AFCEC121563E4FBFA798078E0
:04339D003D02133F9B
:1036BB00E4FEEEC3940874809480500FC297EF130E
:0B36CB0092A3EFC313FFD2970E80E71D
:0136D60022D1
:0836D70075F00A84EE25F0FDF8
:1036DF00C29300C29700D293001236BBAF051236C9
:0436EF00BBC29322A5
:10349B00E4FDC29300C29700D293001236BBE4FF47
:1034AB00EFC39408748094805011C297EDC313FD41
:1034BB0030A303430580D2970F80E5C29300C297D8
:0C34CB0000D29700C2A300D2A300AF05FE
:0134D70022D2
:10340000E4FD7F801236DF7F8E1236DF1217D0FF89
:1034100075F00A84C454F0FEEF7F841236D7900012
:10342000011217E9FF75F00A84C454F0FEEF75F03D
:103430000A84EE25F0FD7F821236DF90000212171B
:10344000E9FF75F00A84C454F0FEEF7F801236D78E
:073450007D807F8E0236DF54
:10345700E4F529F52AC3E52A940374809480503350
:10346700E52A25E02481FF12349B8F29E529C454DE
:103477000F75F00AA4FFE529540F2FFFE52AFDC3B6
:1034870074029DFDE494008D82F583EF12182805E0
:033497002A80C2C6
:01349A00220F
:04370F00D2A07F05C0
:10371300000000000000000000000000000000AEF8
:06372300071FEE70EB220F
:0F37AE00D2A112370FC2A17F05123713C2A0227A
:0C37E600C2A112370FD2A17F05023713D9
:02354700AD07CE
:10354900E4FCECC39408748094805024C2A07F05E5
:10355900123713ED30E704D2A18002C2A17F051210
:103569003713D2A0ED25E0FD7F051237130C80D269
:02357900C2A0EE
:01357B00222D
:1035F000E4FCECC3940874809480501712370FEDEC
:1036000025E0FD30A103430501C2A07F0512371359
:053610000C80DFAF0596
:013615002292
:10377B0012370FA2A1E433FDC2A07F05123713AF9E
:01378B000538
:01378C00221A
:10000300C2A0EF24FF92A17F0512371312370FC24C
:08001300A0D2A17F0502371302
:0E37BD007DFF7F801237D9E4FD7FA00237D94F
:1034D800E4FFFEC2C4D2C2D2B520B3010F20B203AA
:1034E800430702D2C4C2C2D2B520B3034307102097
:1034F800B203430720D2C4D2C2C2B520B3034306E5
:073508000120B2034306029B
:01350F002299
:062FBA00010B00010A00FA
:103266009000011217E925E0FF1217D04FFF9000DA
:10327600021217E925E025E04FFF9000031217E937
:1032860033333354F84FFF9000041217E9C454F057
:103296004FFF9000051217E9C43354E04FFF90002A
:1032A600061217E9C4333354C04FFF9000071217B4
:1032B600E9FEC433333354804FF551780B66600D05
:0D32C600E551F4FD7F801237D9780BA65139
:0132D30022D8
:02365C00AE05B9
:10365E00780AE6FCFDEE6005EF42058004EFF452B9
:0E366E0005ED6C6009780AA6057FA01237D919
:01367C00222B
:0A37F200A20BE433FD7F1002365CE9
:04369D007F057E0027
:1036A100EF1FAA0670011E4A600FE4FDEDC3940CE2
:0936B1007480948050EA0D80F34E
:0136BA0022ED
:02357C00A9079D
:10357E00E4FBEBC39408748094805012C294E91358
:10358E00929412369DD294E9C313F90B80E47F0511
:05359E007E000236A1D1
:10363900E4FBEBC39408748094805014C294ECC3E7
:1036490013FCD29430940343048012369D0B80E21C
:02365900AF04BC
:01365B00224C
:1035A300C200D2947F0C7E001236A1C2947F507E5B
:1035B300001236A1D2947F0A7E001236A1A2949201
:0635C3000012369DA2007B
:0135C90022DF
:0233A1008F2972
:1033A3001237AE7F9012354712377BAF291235475C
:1033B30012377B1237AE7F9112354712377B1235A6
:1033C300F08F2A7F011200031237E61237AE7F9087
:1033D30012354712377BAF2912354712377B123725
:1033E300AE7F9112354712377B1235F08F2B7F0159
:0C33F3001200031237E6E52AB52BA5FFF7
:0133FF0022AB
:10367D008F081237AE7F9012354712377B7F41127C
:10368D00354712377BAF0812354712377B0237E6C5
:0E37CB003F065B4F666D7D077F6F0040737990
:103510008F518D527DFF7FE01237D9AF51A80774CC
:1035200001088002C333D8FCFD7FC01237D9E552B1
:103530009037CB93FF300B047E8080027E00EF4EED
:07354000F4FD7FE00237D922
:10375300759850438E01538EFB75D7E675D6FF439C
:053763008E10D2AC2223
:083806008F993099FDC299224F
:0D37D9008D80E5A0541F4FF5A053A01F22C6
:06380E0000007F1BDFFE3D
:013814002291
:1032D4008E298F2AE4F5D9F5E9F5F9D29012380E42
:1032E400C290D2DE20DF032091FAC2DE30DF06C2B4
:0532F400DFE4FEFF22F3
:1032F900AFF9EFADE9F52BEDF52CAC2BE412156325
:103309007B967A43798B783C12133FC004C005C081
:1033190006C007AC29AD2AE4121563D003D002D048
:1033290001D00012133FE4FBFA79AA78431214483A
:0333390012159CCE
:01333C00226E
:10124700021608E86480F8E933E83360110460F0B7
:10125700ED33EC337009E8FCE9FDEAFEEBFF22040D
:1012670060DED3EB9FEA9EE99DE8C2E78CF0C2F708
:1012770095F0400CE8CCF8E9CDF9EACEFAEBCFFBD4
:101287001215D385D0F05804700320D5B3E8047045
:10129700075002B2D502161292D5EC0460F7E4CCDF
:1012A700C0E0C398F8603B94186008400DD0E0FB9D
:1012B7000215EAE4FBFAC9FC8028E830E406E4C931
:1012C700FBE4CAFCE830E305E4C9CACBFCE85407F1
:1012D7006010F8C3E913F9EA13FAEB13FBEC13FCFC
:1012E700D8F130F52FC3E49CFCEF9BFFEE9AFEED9F
:1012F70099FDD0E0FBEF4E4D4C701222DB03021636
:101307000FEC2CFCEF33FFEE33FEED33FDED30E752
:10131700EB0215EAEF2BFFEE3AFEED39FDD0E0FBCD
:1013270050130BBB0003021612ED13FDEE13FEEF75
:0813370013FFEC13FC0215EAA0
:10133F00EC4D6011E8497017ED33EC3304600DE4A8
:10134F00FCFFFEFD22E933E8330470F802160812A1
:10135F0015D358046009E4CC2481500628500902A3
:10136F00161228400302160FC0E0EB4A7044B980F2
:10137F0006D0E0FB0215FEEF4E701CBD8008EBFFA0
:10138F00EAFEE9FD80EBE98DF0A4FEE5F0021428FA
:10139F00E9CDF9EAFEEBFFEF89F0A4FCE5F0CE8989
:1013AF00F0A42EFFE435F0CD89F0A42DFEE435F046
:1013BF008067EF4E7005BD80D780C3EF8BF0A4AC74
:1013CF00F0EE8BF0A42CFCE435F0F8EF8AF0A42CAF
:1013DF00E5F038FCE433CB8DF0A42CFCE5F03BF8C2
:1013EF00EE8AF0A42CFCE5F038F8E433CF89F0A4B2
:1013FF002CFCE5F038CF3400CE89F0A42FFFE5F0B8
:10140F003EFEE433C98DF0A42EFEE5F039CD8AF00F
:10141F00A42FFFE5F03EFEE43DFD33D0E0FB500787
:10142F000BBB000F021612EC2CFCEF33FFEE33FE5A
:06143F00ED33FD0215EA89
:10144500021612EC5D046005E859047003021608E3
:101455001215D3580460F6EC4860F2EC7004FDFEFA
:10146500FF22C860DB2481C85009C398600250067A
:1014750002160F9850CAF582E9294B4A7005AB82CE
:101485000215FE75F0007C1A7880C3EF9BEE9AED8D
:1014950099400DC3EF9BFFEE9AFEED99FDE842F0F2
:1014A500DC23ACF0D0E0FFD0E0FED0E0FDAB822045
:1014B500E7101BEB60BAEC2CFCEF33FFEE33FEEDCF
:1014C50033FD0215EAE803F830E705C0F075F000D2
:1014D500EF2FFFEE33FEED33FD40B830E7C280AAB3
:1014E50074F8CC6480CCC86480C8F58204604FC3AE
:1014F500EB9FF5F0EA9E42F0E99D42F0E89C45F04D
:10150500603C501DE5825FFFE582D313CB5BCBF4D6
:101515002B5582FB50280ABA002409B900200880FF
:101525001DE5825BFBE582D313CF5FCFF4C3132F99
:101535005582FF50090EBE00050DBD00010CC3EB21
:101545009FF5F0EA9E42F0E99D42F0E89C45F06087
:0915550007CC4820E701B3EC22A9
:10155E0075F020800E75F010800575F0087D007E08
:10156E00007F003392D530D5031219D4EC334010DE
:10157E00EF33FFEE33FEED33FDEC33FCD5F0ED2211
:0E158E00E5F0247EA2D513CC92E7CDCEFF224D
:10159C00EDD2E7CD33EC3392D524814006E4FFFE47
:1015AC00FDFC22FCE4CFCECDCC24E0501174FF80A6
:1015BC00EDC3CC13CCCD13CDCE13CECF13CF047043
:0715CC00F030D5DE0219D456
:10206200E543242FF8E6054322782C300702782F27
:10207200E475F001121A330217D02000EB7F2ED242
:10208200008018EF540F2490D43440D4FF30040B56
:10209200EF24BFB41A0050032461FFE54460021527
:1020A200440547E5477002054630070D782CE47574
:1020B200F001121A33EF0218160238067403D2071F
:1020C2008003E4C207F5438B2C8A2D892EE4F54464
:1020D200F546F547E54460077F2012209D80F5759F
:1020E20045FFC201C200C202C203C205C206C20843
:1020F20012206BFF700D3007057F001220AEAF4734
:10210200AE4622B4255FC2D5C20412206BFF24D092
:10211200B40A00501A75F00A784430D50508B6FFA3
:102122000106C6A426F620D5047002D20380D92463
:10213200CFB41A00EF5004C2E5D20402239BD201AD
:1021420080C6D20080C0D20280BCD2D580BAD2056D
:1021520080B47F2012209D2002077401B544004004
:10216200F1122062FF12209D0220D6D208D20680F0
:1021720095122062FB122062FA122062F94A4B7019
:102182000679927A247BFF20022EE544602A7E00A3
:102192008E827583001217E960060EEE654570F0B7
:1021A200C2D5EBC0E0EAC0E0E9C0E0EE1223FBD00A
:1021B200E0F9D0E0FAD0E0FB1217D0FF60AAEBC042
:1021C200E0EAC0E0E9C0E012209DD0E02401F9D0AD
:1021D200E03400FAD0E0FBE5450460DCD545D98067
:1021E20087D20280A21223DE60F7E5457001041255
:1021F200161DA945600DE545600914F545122485B3
:10220200EF60F3EA30E702F404C3995077EAF42569
:10221200450430E701E404F545800D1223DE60C178
:10222200EA0545254512161DEA7842F630E701E433
:10223200254504D54504200501141223FBE4C0E022
:102242001224857842E6601320E70714F6122085EF
:10225200802204F6D0E014C0E07F00122085E5451C
:10226200600712207C1545800B30050312207CD0BC
:10227200E00220D6D0E00480C51223DE60A0E5454E
:102282000412161D7842EAF6E545200502600104B3
:0522920024041223FBEF
:1022970074FF04C0E0122485122085E5452005025D
:1022A700600312207CD0E0B545E87F4512208F7887
:1022B70042E67F2B30E7047F2DF404C0E012209D17
:1022C700D0E075F00A84C0F0122086D0E012208694
:1022D7000220D6791080027908C206C2088008D287
:1022E700D5790A8004790AC2D5E545047002F54517
:1022F700E4FAFDFEFF122062FC7B08200113122086
:1023070062FD7B1030000A122062FE122062FF7B02
:1023170020EC3382D592D55013C3E43000069FFFDB
:10232700E49EFEE42001039DFDE49CFCE4CBF8C29F
:1023370001EC700CCFCECDCCE824F8F870F3801701
:10234700C3EF33FFEE33FEED33FDEC33FCEB33FB32
:10235700994002FB0FD8E9EB300105F8D0E0C448FB
:10236700B201C0E00AEC4D4E4F78207B0070C2EA04
:10237700B5450040BCC0E01223FDD0F0D0E02001FD
:1023870004C4C0E0C4B201C0F0122086D0F0D5F07A
:10239700EB0220D6121A5321735322DA5821444CE8
:1023A70021404222DE4F22E64422E64921594322B8
:1023B700EC55221D46227B4521E74724B250214890
:1023C7002D214C2E216F2B215023216D20249B2A58
:1023D70021084800002167E545B4FF03754506124B
:1023E7002062FC122062FD122062FE122062FF783A
:1023F7003B02164C790AA2D5200314300509B910FF
:10240700020404B9080104A2D520060250010420E1
:1024170002689202B544005034C0E07F20300319AF
:102427007F30A20272067205500F122454C202C2F4
:1024370006C205C2087F30800F300503E9C0E012ED
:10244700209D300503D0E0F9D0E0B544CC30051726
:102457007F30B9100C12209D7F583004077F788099
:1024670003B9080312209D3002057F2D02209D7FAE
:10247700202008F87F2B2006F322920280CF7F00CE
:10248700B407005005243BF8E6FF22286E756C6CF4
:102497002900D2011220623001F8C201784430D5F8
:1024A7000108F60221082D504349581220622403DF
:1024B700B405004001E49024AD9312208E743A12C3
:0A24C700208ED2037544040222DACD
:1024D100E54130030104F82328242FF822782C3019
:1024E1000302782FE475F001121A330217D060EC61
:1024F100C5457002154414C545200304FF02001EA2
:10250100782C74FFF5F0021A43FF023768E5426048
:1025110006D542037F002220030F12378DEF60089A
:102521000545E5457002054422782C121A2A121736
:10253100D0FF60E9782CE475F001121A3380DE12C5
:102541002518EFC0E012250AD0E040F380A0D203A5
:102551008002C2038B2C8A2D892EE4F543F541F5C7
:1025610044F545754200C202C200C201C2041224F0
:10257100DEFF7005AF437E0022B425301224DEFF5A
:1025810024D0B40A00500C75F00AC542A42542F5C6
:102591004280E924CFB41A00EF5002C2E50227ECD1
:1025A100D20180D8D20080D4D20480D0EF12250A83
:1025B1005008122540EF600E80A9EFC0E0122518E7
:1025C100D0E06F609EEF60741224EF80A71225188F
:1025D100EF6069E542700705428003122518EF603C
:1025E1001420040E1224D1E475F001121A33EF12F3
:1025F1001816D542E62004040541054380BA122588
:102601000EEFC0E012250AD0E050041224EFE4FFDF
:1026110020040E1224D1E475F001121A33EF1218BE
:1026210016EF70DA20040405410543808BE5426012
:1026310002054212254012250EEF70C6300304E454
:102641001224EFE54360030225757EFF7FFF22E53B
:102651004260020542122540D206D20512250EEF34
:1026610030060260D7C0E01224EFD0E0AC46AD479F
:10267100AE48AF49122FD48C468D478E488F4950B2
:1026810007122518C20580D4200410200502054335
:082691001224D1121A2A05419E
:102699001219F8022564D0E0809A7900800A79102D
:1026A900800679088002790AD205E542600205426E
:1026B900E9C0E0122540EF60DD122518BF2D04D2D4
:1026C900028003BF2B09122540EF60CA12250ED0E4
:1026D900E0B40A028033B40802802EBF30277002AA
:1026E9007408C205C0E012250ED0E0BF780280034D
:1026F900BF58160542D542028007D54204D205804B
:102709000B741080197002740ABF000AEFF8E4FC18
:10271900FDFEFF02279FC0E0EF1224EFD0E0F9E4AD
:10272900FCFDFEFFE9C0E0ECC0E0EDC0E0EEC0E07A
:10273900EFC0E012250EEFF8D0E0FFD0E0FED0E0C8
:10274900FDD0E0FCD0F0E8604DB461004007B47BF7
:10275900005002C2E524D0503DFA24F6500724F96E
:102769005034240AFAEAB5F000502BCFA9F0A42F6F
:10277900FF92D5E9C5F0CEA4A2D53EFE92D5E9C512
:10278900F0CDA4A2D53DFD92D5E9C5F0CCA4A2D542
:102799003CFCC205808EE8C0E020042A200508051B
:1027A900433002031219D41224D1121A2A054120E6
:1027B900000B20010DEE8FF01218E780091219F8AD
:1027C9008004EF121816D0E01224EF0225642004C9
:1027D900101224D1121A2A0541E5448545F0121830
:1027E900E780E8121A53262E5326A75825A54C250B
:1027F900A142257D4826AB4F26AF4425CE4326A3CB
:102809004926AF5526504626504526504725A92A20
:0728190027D74E000025AD9A
:1015D300E9D2E7C933E833F892D5EDD2E7CD33EC5E
:0715E30033FC5002B2D522D7
:1015EA00EC30E7100FBF000C0EBE00080DBD000462
:1015FA000BEB6014A2D5EB13FCED92E7FD2274FF0E
:10160A00FCFDFEFF22E480F8A2D574FF13FC7D8066
:03161A00E480EF7A
:10161D00F920E72824F950037907E4F42402FB1894
:10162D00DBFDE624FB5014E9600DE4F618E604F644
:0F163D00B40A08E4F6D9F57401F60A22C2D522E0
:10164C00ED33EC3392D5FA602AB4FF33EDC2E77B6D
:10165C00FF60067A167971E4227A16797A20D5041D
:10166C007A167975224E614E002B494E46002D4953
:10167C004E4600E47A08F608DAFC7B00740722E890
:10168C00C0E0ECC0E0EDC0E0EEC0E0EFC0E0EA7519
:10169C00F010A4CAABF075F04DA42BFBE435F0FCB4
:1016AC00EA2410FAEB34C5FBEC34D9FCEDC2E7FFAD
:1016BC0075F056A4F42411C5F0F434C58FF0A42AA7
:1016CC00E5F03BE43CF620E714121790D0E0FFD095
:1016DC00E0FED0E0FDD0E0FC1214488014F40412BB
:1016EC001790D0E0FFD0E0FED0E0FDD0E0FC12136C
:1016FC003FD0E0F8E6FAEDD2E7CD33EC332482FBB1
:10170C00E4C3CF33CFCE33CECD33CD33DBF37B0736
:10171C0075F00A846004F6081B0AE5F0F6088FF0F1
:10172C00740AA4FFACF08EF0740AA42CFEACF0503A
:10173C00010C8DF0740AA42CFDE435F0F608DBDE08
:03174C00740722FD
:102FC100C207C208C209C20AF9E4F54AF54BFCFD81
:102FD100FEFFE91006EA20090CB42D04D209D32220
:102FE100B42B02D32224D0504794095041240A30F3
:102FF1000A15F8854BF0740AA42872E74051C5F010
:10300100704D85F04BD322D208C0E0E4FBFA792061
:10301100784112133FECF8EDF9EEFAEFFBD0E0FC4A
:10302100E412156812124E3007B4154AD322240A4D
:10303100200A20B4FE0720071AD207D32224EB600E
:103041000424E0700EA2099207D20AC209D322C356
:10305100021608E4300A0BE54B300902F404A2071A
:1030610092093008EA254A20D2E5A2E7920A5002E5
:10307100F404B4260050D8CCC0E0EDC0E0EEC0E0CE
:10308100EFC0E0EC121790D0E0FFD0E0FED0E0FD01
:10309100D0E0FC200A0512133F80031214483009C6
:0630A1000312174FC322C9
:10174F00ED33EC33600A047003BD8004ECB2E7FCA8
:01175F002267
:101760003F8000004120000042C80000447A000091
:10177000461C400047C35000497424004B18968013
:101780004CBEBC205A0E1BCA6753C21C749DC5AE0A
:10179000FB60065407601C23231217BEEB5438600D
:1017A000091217AA1217B912133FECF8EDF9EEFA65
:1017B000EFCB22EB1217B980F1543803241C901799
:1017C00060FE93FC0EEE93FD0EEE930ECE93FF2281
:1031E6000235CAE493A3F8E493A34003F68001F200
:1031F60008DFF48029E493A3F85407240CC8C333EA
:10320600C4540F4420C8834004F456800146F6DFB8
:10321600E4800B0102040810204080902EA8E47E72
:10322600019360BCA3FF543F30E509541FFEE493AD
:10323600A360010ECF54C025E060A840B8E493A374
:10324600FAE493A3F8E493A3C8C582C8CAC583CA9F
:10325600F0A3C8C582C8CAC583CADFE9DEE780BE57
:012FC0000010
:1017D000BB010689828A83E0225002E722BBFE0217
:0917E000E32289828A83E493224A
:1017E900BB010CE58229F582E5833AF583E02250B5
:1017F90006E92582F8E622BBFE06E92582F8E222FF
:0D180900E58229F582E5833AF583E4932218
:10181600BB010689828A83F0225002F722BBFE01B1
:02182600F322AB
:10182800F8BB010DE58229F582E5833AF583E8F0F6
:10183800225006E92582C8F622BBFE05E92582C8A2
:02184800F2228A
:10184A00EF8DF0A4A8F0CF8CF0A428CE8DF0A42EB2
:02185A00FE226C
:10185C00BC000BBE0029EF8DF084FFADF022E4CC70
:10186C00F875F008EF2FFFEE33FEEC33FCEE9DEC39
:10187C00984005FCEE9DFE0FD5F0E9E4CEFD22ED7F
:10188C00F8F5F0EE8420D21CFEADF075F008EF2FC9
:10189C00FFED33FD4007985006D5F0F222C398FDBA
:0518AC000FD5F0EA2257
:1018B100C2D5EC30E709B2D5E4C39DFDE49CFCEE52
:1018C10030E715B2D5E4C39FFFE49EFE12185CC356
:1018D100E49DFDE49CFC800312185C30D507C3E451
:0618E1009FFFE49EFE22C1
:1018E700BB010A89828A83F0E5F0A3F0225006F74C
:0F18F70009A7F01922BBFE06F3E5F009F3192249
:1019060075F008758200EF2FFFEE33FECD33CDCC98
:1019160033CCC58233C5829BED9AEC99E58298401B
:101926000CF582EE9BFEED9AFDEC99FC0FD5F0D6F8
:10193600E4CEFBE4CDFAE4CCF9A88222B800C1B922
:101946000059BA002DEC8BF084CFCECDFCE5F0CB60
:10195600F97818EF2FFFEE33FEED33FDEC33FCEB99
:1019660033FB10D703994004EB99FB0FD8E5E4F954
:10197600FA227818EF2FFFEE33FEED33FDEC33FC41
:10198600C933C910D7059BE99A4007EC9BFCE99A35
:10199600F90FD8E0E4C9FAE4CCFB2275F010EF2F7A
:1019A600FFEE33FEED33FDCC33CCC833C810D7077A
:1019B6009BEC9AE899400AED9BFDEC9AFCE899F8B5
:0E19C6000FD5F0DAE4CDFBE4CCFAE4C8F92248
:0E19D400C3E49FFFE49EFEE49DFDE49CFC2224
:1019E200EB9FF5F0EA9E42F0E99D42F0EC6480C87C
:0619F20064809845F0221C
:1019F800BB010789828A83021AA55005E9F8021AF1
:0A1A08001EBBFE05E9F8021AB12228
:0C1A1200E6FC08E6FD08E6FE08E6FF2200
:0C1A1E00ECF608EDF608EEF608EFF622F4
:091A2A00E6FB08E6FA08E6F922E1
:101A3300FAE6FB0808E6F925F0F618E6CA3AF622B4
:101A4300FAE6FB0808E625F0F9F618E63AFAF62274
:101A5300D083D082F8E4937012740193700DA3A322
:101A630093F8740193F5828883E473740293686036
:061A7300EFA3A3A380DF36
:10378D0010130B1237FCBF0D027F0A023806AF096A
:01379D002209
:05001E008F09D213223E
:10376800EFC394094005EF940E4003BF2003D380B4
:0337780001C32268
:1036F300E94A4B7001221217D0FF6D700122EF705F
:0C37030004FBFAF92209E970ED0A80EAE3
:101A7900EF4E6012EF60010EEDBB010B89828A8384
:101A8900F0A3DFFCDEFA2289F05007F709DFFCA991
:0C1A9900F022BBFEFCF309DFFCA9F022E8
:0C1AA500ECF0A3EDF0A3EEF0A3EFF022B4
:0C1AB100ECF208EDF208EEF208EFF22271
:0A37FC003098FDAF99C2987E0022BC
:00000001FF
