:101503007580FFE5A0541F4480F5A053A01FE4F5A8
:0D15130080E5A0541F44A0F5A053A01F22A6
:04153D00D2A07F05B4
:10154100000000000000000000000000000000AEEC
:06155100071FEE70EB2203
:0F160100D2A112153DC2A17F05121541C2A02230
:0C161000C2A112153DD2A17F05021541B8
:02142400AD0712
:10142600E4FCC2A07F05121541ED30E704D2A1808D
:1014360002C2A17F05121541D2A0ED25E0FD7F0570
:091446001215410CBC08DBC2A028
:01144F00227A
:10152000E4FC12153DED25E0FD30A103430501C2A9
:0C153000A07F051215410CBC08E8AF05B7
:01153C00228C
:1014A200AB051216017FA01214241214B4AF03125A
:0214B200142400
:1014B40012153DA2A1E433FDC2A07F05121541AF70
:0114C4000522
:0114C5002204
:10158B00C2A0EF24FF92A17F0512154112153DC297
:08159B00A0D2A17F0502154159
:10000E00AB071216017F901214241214B47F411202
:05001E0014A9021610F8
:10122B008B278A2889291214A21216017FA1121466
:10123B00241214B4AF2B152BEF6024121520AB27FF
:10124B000529E529AA287002052814F9EF12056B68
:10125B00E52B6004E4FF80027F0112158B80D50221
:02126B0016105B
:1013C2008B278A2889291214A2AF2B152BEF601FB5
:1013D200AB270529E529AA287002052814F9120568
:1013E20025FF1214241214B47FC812154180DA02A8
:0213F2001610D3
:1013F400E4FF538EEFD2C4D2C2C2B5D2B420B3023A
:101404007F0C20B2027F0DD2C4D2C2D2B5C2B420A6
:0F141400B3027F1020B2027F1175B0FF438E101C
:0114230022A6
:03135A000108FF88
:0612AC008B228A23892435
:1012B200E4FFFEAB22AA23A9248E827583001205C5
:1012C2003EFDA806088002C333D8FC42070EBE08C2
:1012D200E2EF65086011EFF4F580E5A0541F448049
:0712E200F5A053A01F8F08C7
:0112E90022E2
:1015F100C0F9A4B0999282F88090FFBFC6C7898CC8
:10126D007580FFE5A0541F44E0F5A053A01FA8070B
:10127D007401088002C333D8FCF580E5A0541F44E7
:10128D00C0F5A053A01FED9015F193F580EB600311
:0F129D0053807FE5A0541F44E0F5A053A01F220B
:1015A300759850438E01538EFB75D7CC75D6FF4388
:0715B3008E10D2ACD2AF2272
:080003008F993099FDC299228A
:06161C0000007F26DFFE46
:0116220022A5
:1015CF00E4FED29012161CC29012161C0EBE08F228
:0115DF0022E9
:1012EA00E4F5D9F5E9F5F91215CFD2DE20DF0320AE
:1012FA0091FAC2DE20DF1CAFF9EFFEADE9EDFFACDB
:10130A0006E41201D17B967A43798B783C12002647
:07131A0002020AC2DF7F009E
:0113210022A9
:041557007F057E008E
:10155B00EF1FAA0670011E4A600BE4FDEDC3940C4D
:05156B0050EE0D80F7B9
:011570002258
:0214E500A90755
:1014E700E4FBC294E9139294121557D294E9C313FB
:0C14F700F90BBB08ED7F057E0002155BC1
:10157100E4FBC294ECC313FCD29430940343048083
:091581001215570BBB08EBAF0477
:01158A00223E
:10147B00C200D2947F0C7E0012155BC2947F507E0B
:10148B000012155BD2947F0A7E0012155BA2949218
:06149B0000121557A2002B
:0114A1002228
:10138E0012147B7FCC1214E57F441214E512147BE9
:10139E007FCC1214E57FBE1214E5121571A9071247
:1013AE001571EFAD01FCEC1201D1E4FBFA798078F6
:0413BE004102012FB8
:1014500053540D0A00242562752C252E32660D0A80
:1014600000504152410D0A00232562752C256275FA
:0B1470000D0A004552524F520D0A00B9
:10135D0088080A0A0A0A0A0A0A0A88000000000018
:10136D0000000000881C00000000000000008A1230
:10137D000000000000000000000082101E23C18A42
:100E0F00781AE66003020F8076011213F47817EF59
:100E1F00F67815E6FEF45FFD7813F6EFF45E781DB5
:100E2F00F67815A607BD0C08E4780CF608F6D20D77
:100E3F00C3780DE694E818E69403401AE47809F6AF
:100E4F0008F6FB7A007909752B02FD1213C2C20D49
:100E5F00E4780CF608F6781DE6FF640C7026300D6A
:100E6F001BC3780DE694E818E69403500F20090A87
:100E7F001806E6B40306E4F68002B20BE4780CF62B
:100E8F0008F6C20D7813E6B40D08E4780EF608F6EE
:100E9F00D20EC3780FE694E818E694034008B20A1E
:100EAF00C20EE4F608F6EF640D7075300E6AC37863
:100EBF000FE694E818E69403505E200912C20B78EF
:100ECF0010E27824F27811E27825F2D2098049E411
:100EDF00780BF67824E2FF7810E2B5070A7825E25E
:100EEF00FF7811E26F602F78090806E61870010687
:100EFF00FF8606E4FCFDFBFA7901F8C31205E070EA
:100F0F000774FF7809F608F67B007A007909752BCC
:100F1F0002E4FD1213C2C209E4780CF608F6C20D02
:100F2F007813E624EF6027047047300944200B0F35
:100F3F007810E224FEF2E2C394FA4035E4F222780C
:100F4F0011E224FBF2E2C394FA4026E4F2223009C4
:100F5F0020200B0E7810E22402F2E2C394634011BA
:100F6F00800C7811E22405F2E2C3946340037463AA
:020F7F00F2225C
:100C71007814E66003020E0E7601300903020DCAF4
:100C8100780BE614606E147003020D1D24026003DC
:100C9100020E0E7808740CF2780B740AF27810E6E2
:100CA100FA08E6FB7C037DE8FFAE0212057D780CB5
:100CB100EFF27C007D64AF03AE0212057D7C007D06
:100CC1000A12057D780DEDF278057401F27810E6CF
:100CD100FA08E6FB7C007D0AFFAE0212057D7C006E
:100CE1007D0A12057D780EEDF27C007D0AAF03AE20
:100CF10002020DC27808740DF2780C740AF208F23F
:100D0100E47805F27819E675F00A84FF6002800242
:100D11007F0A780EEFF27819E6020E057808740E54
:100D2100F27809E6FE08E6FF7C277D1012057DEFCB
:100D31004E600280027F0A780BEFF27809E6FE0826
:100D4100E6FF7C037DE812057D7C007D0A12057DAE
:100D5100ED4C700A780BE2B40A047F0A8002AF05F9
:100D6100780CEFF27809E6FE08E6FF7C007D64125C
:100D7100057D7C007D0A12057DED4C700A780CE240
:100D8100B40A047F0A8002AF05780DEFF27809E614
:100D9100FE08E6FF7C007D0A12057D7C007D0A12BB
:100DA100057DED4C700A780DE2B40A047F0A8002D9
:100DB100AF05780EEFF27809E6FE08E6FF7C007DCC
:100DC1000A12057D780FEDF222E47805F2780874B5
:100DD1000FF2200B047F0180027F02780BEFF208F3
:100DE100740AF208F2A20BE4332410F8E275F00A57
:100DF10084FF600280027F0A780EEFF2A20BE433D7
:0E0E01002410F8E275F00A84780FE5F0F22272
:1011D700300A137811E2FF7819E6D39F40047F663F
:1011E70080067FCC80027F1412000E7810E275F023
:1011F70064A4FFD37811E69F18E695F040047F01B9
:1012070080027F00781CEFF27811E2FF7819E6C3BD
:101217009F50047F0180027F00781DEFF2A20AE44D
:041227003308F22274
:1015E0007812E6700B76011212EAEF24027819F6EF
:0115F00022D8
:1014C6007818E67019760112138EE4FBFA79C8785B
:0F14D6004212002612020A7810A60608A6072264
:10104300781CE670030210DC7816E6C3940A50039A
:101053000210DCE4F6C20C78127C007DFE7BFF7A82
:10106300147950FE7F041207B2EF702A7819E6F55F
:101073002A7810E6FC08E6FDE41201D1E4FBFA79D4
:10108300C8784212012F8F2E8E2D8D2C8C2B7BFF37
:101093007A147955802B78127C007DFE7BFF7A14BD
:1010A30079617E007F061207B2EF7BFF700F7A141F
:1010B30079687810E2F52A08E2F52B80047A14792E
:1010C30073120864781CE6FF7E007D007BFE7A00C5
:0A10D30079121207D6E4781CF62209
:1015BA00538E7F5389F0758A18758CFCC28DD28C34
:0515CA00D2A9D2AF22FE
:03000B00020F8160
:100F8100C0E0C0F0C083C082C0D075D000C000C036
:100F910001C002C003C004C005C006C007300C0375
:100FA100781606781A06E6B40A027600781406E680
:100FB100B40A027600781206E6B40A0276007818BE
:100FC10006E6B40A027600781B06E6B4080276004B
:100FD100781BE6FF2408F8E2FD781BE62400F8E21E
:100FE100FB12126D7BFE7A00791C1212AC300D1AC5
:100FF100780C0806E6187001068606C394E8EE949C
:10100100034007780C76030876E9300E1A780E084B
:1010110006E6187001068606C394E8EE94034007BD
:10102100780E76030876E9D007D006D005D004D033
:1010310003D002D001D000D0D0D082D083D0F0D064
:02104100E0329B
:030023000211695E
:10116900C0E0C0F0C083C082C0D075D000C000C04C
:1011790001C002C003C004C005C006C007309812F0
:10118900D20C78167600781CE6062412F8E599F256
:10119900C298781CE6D3940A401978167600C20CD6
:1011A900781C76007E007F0A7D007BFE7A0079122A
:1011B9001207D6D007D006D005D004D003D002D06C
:0E11C90001D000D0D0D082D083D0F0D0E03260
:1013220012150312138E7B007A007925752B02E4C5
:10133200FD12122BE525AD267809F6ED08F61215F9
:10134200A31215BA1211D7120E0F120C711215E058
:081352001214C612104380ECD6
:10002600EC4D6011E8497017ED33EC3304600DE4D4
:10003600FCFFFEFD22E933E8330470F80202761273
:10004600024158046009E4CC248150062850090274
:10005600028028400302027DC0E0EB4A7044B9806A
:1000660006D0E0FB02026CEF4E701CBD8008EBFF71
:10007600EAFEE9FD80EBE98DF0A4FEE5F002010F52
:10008600E9CDF9EAFEEBFFEF89F0A4FCE5F0CE89B5
:10009600F0A42EFFE435F0CD89F0A42DFEE435F072
:1000A6008067EF4E7005BD80D780C3EF8BF0A4ACA0
:1000B600F0EE8BF0A42CFCE435F0F8EF8AF0A42CDB
:1000C600E5F038FCE433CB8DF0A42CFCE5F03BF8EE
:1000D600EE8AF0A42CFCE5F038F8E433CF89F0A4DE
:1000E6002CFCE5F038CF3400CE89F0A42FFFE5F0E4
:1000F6003EFEE433C98DF0A42EFEE5F039CD8AF03C
:10010600A42FFFE5F03EFEE43DFD33D0E0FB5007B3
:100116000BBB000F020280EC2CFCEF33FFEE33FE2C
:06012600ED33FD0202585A
:10012C00020280EC5D046005E8590470030202765B
:10013C00120241580460F6EC4860F2EC7004FDFECB
:10014C00FF22C860DB2481C85009C39860025006A6
:10015C0002027D9850CAF582E9294B4A7005AB82A0
:10016C0002026C75F0007C1A7880C3EF9BEE9AED5E
:10017C0099400DC3EF9BFFEE9AFEED99FDE842F01E
:10018C00DC23ACF0D0E0FFD0E0FED0E0FDAB822071
:10019C00E7101BEB60BAEC2CFCEF33FFEE33FEEDFB
:1001AC0033FD020258E803F830E705C0F075F000A3
:1001BC00EF2FFFEE33FEED33FD40B830E7C280AADF
:1001CC0075F020800E75F010800575F0087D007EAE
:1001DC00007F003392D530D5031205D2EC3340109A
:1001EC00EF33FFEE33FEED33FDEC33FCD5F0ED22B7
:0E01FC00E5F0247EA2D513CC92E7CDCEFF22F3
:10020A00EDD2E7CD33EC3392D524814006E4FFFEEC
:10021A00FDFC22FCE4CFCECDCC24E0501174FF804B
:10022A00EDC3CC13CCCD13CDCE13CECF13CF0470E8
:07023A00F030D5DE0205D211
:10080200E53E242AF8E6053E227827300702782AB8
:10081200E475F0011205F60205252000EB7F2ED2C9
:10082200008018EF540F2490D43440D4FF30040BCE
:10083200EF24BFB41A0050032461FFE53F600215A4
:100842003F0542E5427002054130070D7827E47505
:10085200F0011205F6EF02056B0200037403D207E2
:100862008003E4C207F53E8B278A288929E4F53FF5
:10087200F541F542E53F60077F2012083D80F5759E
:1008820040FFC201C200C202C203C205C206C208C0
:1008920012080BFF700D3007057F0012084EAF42A1
:1008A200AE4122B4255FC2D5C20412080BFF24D088
:1008B200B40A00501A75F00A783F30D50508B6FF21
:1008C2000106C6A426F620D5047002D20380D924DC
:1008D200CFB41A00EF5004C2E5D204020B3BD2019E
:1008E20080C6D20080C0D20280BCD2D580BAD205E6
:1008F20080B47F2012083D2002077401B53F0040FA
:10090200F1120802FF12083D020876D208D20680D0
:1009120095120802FB120802FA120802F94A4B70F9
:100922000679327A0C7BFF20022EE53F602A7E0098
:100932008E8275830012053E60060EEE654070F0F1
:10094200C2D5EBC0E0EAC0E0E9C0E0EE120B9BD0FA
:10095200E0F9D0E0FAD0E0FB120525FF60AAEBC077
:10096200E0EAC0E0E9C0E012083DD0E02401F9D09D
:10097200E03400FAD0E0FBE5400460DCD540D980E9
:1009820087D20280A2120B7E60F7E540700104124A
:10099200028BA940600DE540600914F540120C2558
:1009A200EF60F3EA30E702F404C3995077EAF425E2
:1009B200400430E701E404F540800D120B7E60C173
:1009C200EA0540254012028BEA783DF630E701E461
:1009D200254004D5400420050114120B9BE4C0E01D
:1009E200120C25783DE6601320E70714F61208255D
:1009F200802204F6D0E014C0E07F00120825E54012
:100A0200600712081C1540800B30050312081CD029
:100A1200E0020876D0E00480C5120B7E60A0E540BB
:100A22000412028B783DEAF6E540200502600104DB
:050A32002404120B9BDF
:100A370074FF04C0E0120C25120825E540200502CA
:100A4700600312081CD0E0B540E87F4512082F78F4
:100A57003DE67F2B30E7047F2DF404C0E012083D0C
:100A6700D0E075F00A84C0F0120826D0E0120826FC
:100A7700020876791080027908C206C2088008D277
:100A8700D5790A8004790AC2D5E540047002F54099
:100A9700E4FAFDFEFF120802FC7B0820011312088E
:100AA70002FD7B1030000A120802FE120802FF7BCB
:100AB70020EC3382D592D55013C3E43000069FFF54
:100AC700E49EFEE42001039DFDE49CFCE4CBF8C218
:100AD70001EC700CCFCECDCCE824F8F870F380177A
:100AE700C3EF33FFEE33FEED33FDEC33FCEB33FBAB
:100AF700994002FB0FD8E9EB300105F8D0E0C44874
:100B0700B201C0E00AEC4D4E4F78207B0070C2EA7C
:100B1700B5400040BCC0E0120B9DD0F0D0E02001F2
:100B270004C4C0E0C4B201C0F0120826D0F0D5F06A
:100B3700EB0208761206060913530A7A5808E44CA2
:100B470008E0420A7E4F0A86440A864908F9430AA2
:100B57008C5509BD460A1B450987470C525008E8C2
:100B67002D08EC2E090F2B08F023090D200C3B2A2A
:100B770008A84800000907E540B4FF0375400612BE
:100B87000802FC120802FD120802FE120802FF7892
:100B9700360202BA790AA2D5200314300509B91022
:100BA700020404B9080104A2D5200602500104205A
:100BB70002689202B53F005034C0E07F203003192D
:100BC7007F30A20272067205500F120BF4C202C2E6
:100BD70006C205C2087F30800F300503E9C0E01266
:100BE700083D300503D0E0F9D0E0B53FCC3005171C
:100BF7007F30B9100C12083D7F583004077F78808A
:100C070003B9080312083D3002057F2D02083D7F16
:100C1700202008F87F2B2006F322920280CF7F0046
:100C2700B4070050052436F8E6FF22286E756C6C71
:100C37002900D2011208023001F8C201783F30D5ED
:100C47000108F60208A82D50434958120802240348
:100C5700B405004001E4900C4D9312082E743A122B
:0A0C6700082ED203753F04020A7A3A
:10024100E9D2E7C933E833F892D5EDD2E7CD33EC03
:0702510033FC5002B2D5227C
:10025800EC30E7100FBF000C0EBE00080DBD000407
:100268000BEB6014A2D5EB13FCED92E7FD2274FFB3
:10027800FCFDFEFF22E480F8A2D574FF13FC7D800C
:03028800E480EF20
:10028B00F920E72824F950037907E4F42402FB183A
:10029B00DBFDE624FB5014E9600DE4F618E604F6EA
:0F02AB00B40A08E4F6D9F57401F60A22C2D52286
:1002BA00ED33EC3392D5FA602AB4FF33EDC2E77B13
:1002CA00FF60067A0279DFE4227A0279E820D5040F
:1002DA007A0279E3224E614E002B494E46002D499F
:1002EA004E4600E47A08F608DAFC7B00740722E836
:1002FA00C0E0ECC0E0EDC0E0EEC0E0EFC0E0EA75BF
:10030A00F010A4CAABF075F04DA42BFBE435F0FC59
:10031A00EA2410FAEB34C5FBEC34D9FCEDC2E7FF52
:10032A0075F056A4F42411C5F0F434C58FF0A42A4C
:10033A00E5F03BE43CF620E7141204E5D0E0FFD0F8
:10034A00E0FED0E0FDD0E0FC12012F8014F404128C
:10035A0004E5D0E0FFD0E0FED0E0FDD0E0FC1200E2
:10036A0026D0E0F8E6FAEDD2E7CD33EC332482FB6F
:10037A00E4C3CF33CFCE33CECD33CD33DBF37B07DC
:10038A0075F00A846004F6081B0AE5F0F6088FF097
:10039A00740AA4FFACF08EF0740AA42CFEACF050E0
:1003AA00010C8DF0740AA42CFDE435F0F608DBDEAE
:0303BA00740722A3
:1003BD00020276E86480F8E933E83360110460F0F6
:1003CD00ED33EC337009E8FCE9FDEAFEEBFF2204A6
:1003DD0060DED3EB9FEA9EE99DE8C2E78CF0C2F7A1
:1003ED0095F0400CE8CCF8E9CDF9EACEFAEBCFFB6D
:1003FD0012024185D0F05804700320D5B3E8047083
:10040D00075002B2D502028092D5EC0460F7E4CC1D
:10041D00C0E0C398F8603B94186008400DD0E0FB35
:10042D00020258E4FBFAC9FC8028E830E406E4C96E
:10043D00FBE4CAFCE830E305E4C9CACBFCE8540789
:10044D006010F8C3E913F9EA13FAEB13FBEC13FC94
:10045D00D8F130F52FC3E49CFCEF9BFFEE9AFEED37
:10046D0099FDD0E0FBEF4E4D4C701222DB030202E2
:10047D007DEC2CFCEF33FFEE33FEED33FDED30E77D
:10048D00EB020258EF2BFFEE3AFEED39FDD0E0FB0B
:10049D0050130BBB0003020280ED13FDEE13FEEFB4
:0804AD0013FFEC13FC020258DE
:1004B5003F8000004120000042C80000447A00004F
:1004C500461C400047C35000497424004B189680D1
:1004D5004CBEBC205A0E1BCA6753C21C749DC5AEC8
:1004E500FB60065407601C2323120513EB54386088
:1004F500091204FF12050E120026ECF8EDF9EEFACA
:10050500EFCB22EB12050E80F1543803241C900426
:10051500B5FE93FC0EEE93FD0EEE930ECE93FF22E9
:030000000210DD0E
:0C10DD00787FE4F6D8FD758142021124F2
:10052500BB010689828A83E0225002E722BBFE02D4
:09053500E32289828A83E4932207
:10053E00BB010CE58229F582E5833AF583E0225072
:10054E0006E92582F8E622BBFE06E92582F8E222BC
:0D055E00E58229F582E5833AF583E49322D6
:10056B00BB010689828A83F0225002F722BBFE016F
:02057B00F32269
:10057D00BC000BBE0029EF8DF084FFADF022E4CC62
:10058D00F875F008EF2FFFEE33FEEC33FCEE9DEC2B
:10059D00984005FCEE9DFE0FD5F0E9E4CEFD22ED71
:1005AD00F8F5F0EE8420D21CFEADF075F008EF2FBB
:1005BD00FFED33FD4007985006D5F0F222C398FDAC
:0505CD000FD5F0EA2249
:0E05D200C3E49FFFE49EFEE49DFDE49CFC223A
:1005E000EB9FF5F0EA9E42F0E99D42F0EC6480C892
:0605F00064809845F02232
:1005F600FAE6FB0808E6F925F0F618E6CA3AF62206
:10060600D083D082F8E4937012740193700DA3A383
:1006160093F8740193F5828883E473740293686097
:06062600EFA3A3A380DF97
:10062C00E3F5F009E208B5F06BDFF58067E3F5F070
:10063C0009E608B5F05EDFF5805A87F009E608B5E3
:10064C00F052DFF6804E87F009E208B5F046DFF68F
:10065C00804288828C8387F009E0A3B5F036DFF600
:10066C00803288828C8387F009E493A3B5F025DF70
:10067C00F5802188828C83E3F5F009E0A3B5F014B2
:10068C00DFF5801088828C83E3F5F009E493A3B541
:10069C00F002DFF402075B808780E9809080D480D1
:1006AC003E8015806E807E809D80B7808D80A3807B
:1006BC00518074803C02076789828A83ECFAE49348
:1006CC00F5F0A3C8C582C8CCC583CCE493A3C8C538
:1006DC0082C8CCC583CCB5F076DFE3DEE1807089CF
:1006EC00828A83E493F5F0A3E208B5F062DFF4802C
:1006FC005E89828A83E0F5F0A3E608B5F051DFF558
:10070C00804D89828A83E0F5F0A3E208B5F040DFE2
:10071C00F5803C89828A83E493F5F0A3E608B5F072
:10072C002EDFF4802A8002805789828A83ECFAE4D7
:10073C0093F5F0A3C8C582C8CCC583CCE0A3C8C5CB
:10074C0082C8CCC583CCB5F006DFE4DEE280007F46
:10075C00FFB5F0020F2240027F012289828A83ECCE
:10076C00FAE0F5F0A3C8C582C8CCC583CCE0A3C819
:10077C00C582C8CCC583CCB5F0D5DFE5DEE380CF30
:10078C0089828A83ECFAE0F5F0A3C8C582C8CCC58F
:10079C0083CCE493A3C8C582C8CCC583CCB5F0AFD9
:1007AC00DFE4DEE280A988F0EF60010E4E60ABED75
:1007BC002402B404005098F582EB2402B4040050D7
:0A07CC008E23234582239006A373B9
:1007D600EF4E6012EF60010EEDBB010B89828A833A
:1007E600F0A3DFFCDEFA2289F05007F709DFFCA947
:0C07F600F022BBFEFCF309DFFCA9F0229E
:1010E900021322E493A3F8E493A34003F68001F2E8
:1010F90008DFF48029E493A3F85407240CC8C33308
:10110900C4540F4420C8834004F456800146F6DFD6
:10111900E4800B010204081020408090135AE47EF9
:10112900019360BCA3FF543F30E509541FFEE493CB
:10113900A360010ECF54C025E060A840B8E493A392
:10114900FAE493A3F8E493A3C8C582C8CAC583CABD
:10115900F0A3C8C582C8CAC583CADFE9DEE780BE75
:01138D00005F
:00000001FF
