:030000000200F407
:0C00F400787FE4F6D8FD75812B02013BFB
:0D02FD0008130A0A0A0A0A0A000A0108008A
:10025000E4FFC2C4D2C2D2B520B3027F0420B202EE
:100260007F0520B1027F0620B0027F07D2C4C2C240
:10027000D2B520B3027F0820B2027F0920B1027FED
:100280000A20B0027F0BD2C4D2C2C2B520B3027F13
:100290000C20B2027F0D20B1027F0E20B0027F0F32
:0102A000223B
:1002D700C3E508940A74809480401AE4F5088512EF
:1002E700111202508F12E5126511FF5512F510E534
:0602F70012F45FF50A227B
:0E0339007D807FFF1203477DA0E4FF02034793
:100329005389F0438905E4F58AF58CC28DD28C2274
:10000300538EBF53890F758B18758DFCC28FD28E9B
:05001300D2AFD2AB22C8
:03001B000201805F
:10018000C0E0C0F0C083C082C0D075D000C000C045
:1001900001C002C003C004C005C006C007050B05AE
:1001A000080509E50964087002F50974132509F8C2
:1001B000E6FDC200AF091202A1050FE50F700205AE
:1001C0000EFFAE0EBE0319BFE816AF8CEFAD8AF579
:1001D0000CEDF50D758A00758C00750E00750F001D
:1001E000D007D006D005D004D003D002D001D00073
:0B01F000D0D0D082D083D0F0D0E0321D
:10001E00C3E50B94147480948050030200F3E4F54E
:10002E000BE51275F0648475F00A8485F013E51201
:10003E0075F00A8475F00A8485F014E51275F00ADD
:10004E008485F015D3E50D9410E50C94274016AE7B
:10005E000CAF0D7C277D101201FB7C007D0A120176
:10006E00FBAF0580027F0A8F16D3E50D94E8E50CF1
:10007E0094034016AE0CAF0D7C037DE81201FB7CA1
:10008E00007D0A1201FBAF0580027F0A8F17D3E5B0
:10009E000D9464E50C94004016AE0CAF0D7C007D03
:1000AE00641201FB7C007D0A1201FBAF0580027F0A
:1000BE000A8F18D3E50D940AE50C94004016AE0C89
:1000CE00AF0D7C007D0A1201FB7C007D0A1201FB44
:1000DE00AF0580027F0A8F19AE0CAF0D7C007D0A32
:0600EE001201FB8D1A2235
:100318001203391203291200031202D712001E8099
:01032800F8DC
:0D030A000B213F065B4F666D7D077F6F0086
:0C0347008F80E5A0541FFF4DF5A08FA093
:010353002287
:1002A100AE05AC077DE07FFF120347AF04A80774DA
:1002B10001088002C333D8FCFF7DC01203477421BB
:1002C1002EF8E6FF3000047E8080027E00EE4FF4BF
:0602D100FF7DE00203477F
:10010000020318E493A3F8E493A34003F68001F2FA
:1001100008DFF48029E493A3F85407240CC8C33300
:10012000C4540F4420C8834004F456800146F6DFCF
:10013000E4800B01020408102040809002FDE47E60
:10014000019360BCA3FF543F30E509541FFEE493C4
:10015000A360010ECF54C025E060A840B8E493A38B
:10016000FAE493A3F8E493A3C8C582C8CAC583CAB6
:10017000F0A3C8C582C8CAC583CADFE9DEE780BE6E
:0103170000E5
:1001FB00BC000BBE0029EF8DF084FFADF022E4CCE8
:10020B00F875F008EF2FFFEE33FEEC33FCEE9DECB0
:10021B00984005FCEE9DFE0FD5F0E9E4CEFD22EDF6
:10022B00F8F5F0EE8420D21CFEADF075F008EF2F40
:10023B00FFED33FD4007985006D5F0F222C398FD31
:05024B000FD5F0EA22CE
:00000001FF
