:100870007580FFE5A0541F4480F5A053A01FE4F548
:0D08800080E5A0541F44A0F5A053A01F2246
:04088D007F057E0065
:10089100EF1FAA0670011E4A600BE4FDEDC3940C24
:0508A10050EE0D80F790
:0108A600222F
:02085200A907F4
:10085400E4FBC294E913929412088DD294E9C31371
:0C086400F90BBB08ED7F057E0002089137
:1008A700E4FBC294ECC313FCD2943094034304805A
:0908B70012088D0BBB08EBAF0425
:0108C0002215
:1007A100C206D2947F0C7E00120891C2947F507EC3
:1007B10000120891D2947F0A7E00120891A29492AD
:0607C1000612088DA206DD
:0107C700220F
:100706001207A17FCC1208527F441208521207A189
:100716007FCC1208527FBE1208521208A7A90712F0
:1007260008A7EFAD01FCEC1201B9E4FBFA79807879
:040736004102011764
:06076E00040E8482808E5F
:1008EA00E4FEC297EF1392A3EFC313FFD2970EBE93
:0208FA0008F004
:0108FC0022D9
:1008D600C29300C29700D293001208EAAF0512082D
:0408E600EAC29322AD
:10073A00E4FDC29300C29700D293001208EAE4FFD4
:10074A00C297EDC313FD30A303430580D2970FBFB1
:10075A0008EEC29300C29700D29700C2A300D2A3A8
:03076A0000AF05D8
:01076D002269
:060610008B0B8A0C890D22
:10061600E4FDAF111208D6E4FC740E2CF8E6FFAB2D
:100626000BAA0CA90D8C82758300120273FE75F05D
:100636000A84C454F0FDEE75F00A84E5F04DFD120F
:0D06460008D60CBC03D37D80AF110208D68E
:0606D0008B0B8A0C890D62
:1006D600C2AFE4FC740E2CF8E604FF12073AEFC42E
:1006E600540F75F00AA4FEEF540F2EAB0BAA0CA9FB
:0F06F6000D8C827583001202A00CBC03D7D2AF0B
:0107050022D1
:1007C800E4FFD2C4D2C2C2B5D2B420B3027F0C2097
:1007D800B2027F0DD2C4D2C2D2B5C2B420B3027F56
:0607E8001020B2027F1197
:0107EE0022E8
:060774000112FF0113FF5A
:060692008B088A09890AA9
:10069800E4FFFEAB08AA09A90A8E8275830012023C
:1006A80073FDA806088002C333D8FC42070EBE08B3
:1006B800E2EF65126011EFF4F580E5A0541F448065
:0706C800F5A053A01F8F12E3
:0106CF002208
:10081200E4FF3005047F1080035307EFEF65136098
:100822000F8F80E5A0541F44A0F5A053A01F8F1383
:0108320022A3
:0D090E00C0F9A4B0999282F88090FFBFC19B
:100653007580FFE5A0541F44E0F5A053A01FA80731
:100663007401088002C333D8FCF580E5A0541F440D
:10067300C0F5A053A01FED90090E93F580EB600326
:0F06830053807FE5A0541F44E0F5A053A01F2231
:10077A008300173B32013017880B0A0A0A0A0A0A51
:10078A000A0A880300000000000000008813000025
:06079A0000000000000059
:10055000782CE6707276011207C8782AEFF67828B0
:10056000E6FEF45F7826F6EFF45E782FF67828A69C
:10057000077825E6FFB401087828E6B41102D20214
:10058000782FE6B41105300202C2027826E624F381
:10059000601524FD601414601F2405702A78250658
:1005A000E664037022F622B20122EFB40219783019
:1005B00006E6B464127663227825E6B40209783040
:0805C00016E6B40902760A22D6
:100325007827E660030204047601780B740CF278F2
:1003350025E6FF04780CF2EF1460501470030203F5
:10034500E7240260030204047821E6FA08E6FB7C50
:10035500007D64FFAE021202C27810EFF27C007DD0
:100365000AAF03AE021202C27C007D0A1202C278F5
:1003750011EDF278097401F27821E6FE08E6FF7CBA
:10038500007D0A1202C27812EDF2222002047800E2
:1003950080027801E275F00A84FF780EEFF2200200
:1003A50004780080027801E275F00A84AFF0780FD6
:1003B500EFF208740BF2200204780180027802E261
:1003C50075F00A84FF7811EFF2E47809F22002044F
:1003D500780180027802E275F00A84AFF07812EFB6
:1003E500F222780E740AF208F208F27830E6FF7508
:1003F500F00A847811F2EF75F00A8408E5F0F2222C
:1005C8007801E2700608E27002D20020011B783040
:1005D800E675F00AA4FFD37822E69F18E695F04066
:1005E80003D38001C392048004A2009204A200E411
:1005F800337813F22001047F0180027F007814EF22
:08060800F2A203E43308F22220
:1008FD00782BE6700B76017BFE7A0079001206D01C
:01090D0022C7
:100833007829E670197601120706E4FBFA79207825
:0F0843004112000E1201F27821A60608A6072224
:1008C100538E7F5389F0758A18758CFCC28DD28C3A
:0508D100D2A9D2AF2204
:03000B00020405E7
:10040500C0E0C0F0C083C082C0D075D000C000C0BD
:1004150001C002C003C004C005C006C007782C0691
:10042500E6B40A027600782706E6B46404782C76EA
:1004350000782B06E6B4C8027600782906E6B4A053
:10044500027600782D06E6B408027600782DE6FFE0
:10045500240BF8E2FD782DE62403F8E2FB1206539F
:100465007BFE7A007913120692A2049205120812F5
:1004750030001B78230806E618700106FF8606BEC5
:10048500130CBF880978237600087600C200300473
:100495000D782E06E6B4640C7600B2038006782E3D
:1004A5007600C203D007D006D005D004D003D00211
:0F04B500D001D000D0D0D082D083D0F0D0E032B0
:1007EF001208701207067BFE7A00790012061012AB
:1007FF0008C11205C81205501203251208FD120870
:03080F003380EF44
:10000E00EC4D6011E8497017ED33EC3304600DE4EC
:10001E00FCFFFEFD22E933E8330470F802025E12A3
:10002E00022958046009E4CC2481500628500902A4
:10003E000268284003020265C0E0EB4A7044B980B2
:10004E0006D0E0FB020254EF4E701CBD8008EBFFA1
:10005E00EAFEE9FD80EBE98DF0A4FEE5F00200F783
:10006E00E9CDF9EAFEEBFFEF89F0A4FCE5F0CE89CD
:10007E00F0A42EFFE435F0CD89F0A42DFEE435F08A
:10008E008067EF4E7005BD80D780C3EF8BF0A4ACB8
:10009E00F0EE8BF0A42CFCE435F0F8EF8AF0A42CF3
:1000AE00E5F038FCE433CB8DF0A42CFCE5F03BF806
:1000BE00EE8AF0A42CFCE5F038F8E433CF89F0A4F6
:1000CE002CFCE5F038CF3400CE89F0A42FFFE5F0FC
:1000DE003EFEE433C98DF0A42EFEE5F039CD8AF054
:1000EE00A42FFFE5F03EFEE43DFD33D0E0FB5007CC
:1000FE000BBB000F020268EC2CFCEF33FFEE33FE5D
:06010E00ED33FD0202408A
:10011400020268EC5D046005E85904700302025EA3
:10012400120229580460F6EC4860F2EC7004FDFEFB
:10013400FF22C860DB2481C85009C39860025006BE
:100144000202659850CAF582E9294B4A7005AB82D0
:1001540002025475F0007C1A7880C3EF9BEE9AED8E
:1001640099400DC3EF9BFFEE9AFEED99FDE842F036
:10017400DC23ACF0D0E0FFD0E0FED0E0FDAB822089
:10018400E7101BEB60BAEC2CFCEF33FFEE33FEED13
:1001940033FD020240E803F830E705C0F075F000D3
:1001A400EF2FFFEE33FEED33FD40B830E7C280AAF7
:1001B40075F020800E75F010800575F0087D007EC6
:1001C400007F003392D530D503120317EC3340106F
:1001D400EF33FFEE33FEED33FDEC33FCD5F0ED22CF
:0E01E400E5F0247EA2D513CC92E7CDCEFF220B
:1001F200EDD2E7CD33EC3392D524814006E4FFFE05
:10020200FDFC22FCE4CFCECDCC24E0501174FF8063
:10021200EDC3CC13CCCD13CDCE13CECF13CF047000
:07022200F030D5DE020317E6
:10022900E9D2E7C933E833F892D5EDD2E7CD33EC1B
:0702390033FC5002B2D52294
:10024000EC30E7100FBF000C0EBE00080DBD00041F
:100250000BEB6014A2D5EB13FCED92E7FD2274FFCB
:10026000FCFDFEFF22E480F8A2D574FF13FC7D8024
:03027000E480EF38
:030000000204C433
:0C04C400787FE4F6D8FD75813002050B4E
:10027300BB010CE58229F582E5833AF583E0225040
:1002830006E92582F8E622BBFE06E92582F8E2228A
:0D029300E58229F582E5833AF583E49322A4
:1002A000F8BB010DE58229F582E5833AF583E8F094
:1002B000225006E92582C8F622BBFE05E92582C840
:0202C000F22228
:1002C200BC000BBE0029EF8DF084FFADF022E4CC20
:1002D200F875F008EF2FFFEE33FEEC33FCEE9DECE9
:1002E200984005FCEE9DFE0FD5F0E9E4CEFD22ED2F
:1002F200F8F5F0EE8420D21CFEADF075F008EF2F79
:10030200FFED33FD4007985006D5F0F222C398FD69
:050312000FD5F0EA2206
:0E031700C3E49FFFE49EFEE49DFDE49CFC22F7
:1004D0000207EFE493A3F8E493A34003F68001F24C
:1004E00008DFF48029E493A3F85407240CC8C3332D
:1004F000C4540F4420C8834004F456800146F6DFFC
:10050000E4800B010204081020408090076EE47E16
:10051000019360BCA3FF543F30E509541FFEE493F0
:10052000A360010ECF54C025E060A840B8E493A3B7
:10053000FAE493A3F8E493A3C8C582C8CAC583CAE2
:10054000F0A3C8C582C8CAC583CADFE9DEE780BE9A
:0107A0000058
:00000001FF
