:10090200047D00000000880B0000000000000000D1
:10091200016E0088030A0A0A0A0A0A0A0A830014F4
:100922001401012100017A00017B00016A00C1006B
:10093200012300017000016F0002770000048100B2
:100942000000000169000572020305070901241471
:10095200016700012200017C00C102C101C104C182
:1009620003204225FF0CAA0000000100000000FF46
:1009720008370000000A00000000FF04E300000046
:10098200B400000000FF09AF000000A0000000005A
:10099200FF06EA0000006400000000FF0F4F0000A5
:0609A200009600000000B9
:10083700120AC9786CEFF618E66FFE5F7868F6EF74
:10084700F45E7871F6786CE618F67821E61460574E
:100857000460030209017868E6FFB404147821767E
:1008670001E4787BF67869E67867F67824E67822FB
:10087700F6EFB4050E787A06E675F00384A6F0E481
:10088700786AF67868E664087070787AE624FE601D
:100897000D047066E4787CF6A200B3920022786AB1
:1008A70006E675F003803C7868E6FFB40413E47845
:1008B70021F6787AF67867E67869F67822E678247A
:1008C700F6EFB40507787B06E65401F67868E66428
:1008D700097027787BE614600E04701E786706E6B9
:1008E70075F00584A6F0227822E6FFB450047F0A4B
:0B08F7008004EF240AFF7822A60722ED
:1004E3007821E61470030206A30460030206E97888
:1004F3007AE614604314700302058A24026003023F
:1005030006E97800E2FF75F00A847803F2EF75F0EC
:100513000A8408E5F0F208740BF27801E2FF75F043
:100523000A847806F2EF75F00A8408E5F0F208749D
:100533000BF27802E20206D87803740CF22000046E
:100543007F0D80027F0E7804EFF208740AF208F23E
:1005530008F27823E675F06484FF70047F0A800054
:100563007808EFF27823E675F00A8475F00A84AF11
:10057300F0EF700A7808E2B40A047F0A8000780971
:10058300EFF278230206237803740FF27805740AD6
:10059300F208F2786AE614604B14700302062D2405
:1005A3000260030206E978047410F27807740AF211
:1005B3007870E675F06484FF70047F0A8000780821
:1005C300EFF27870E675F00A8475F00A84AFF0EF05
:1005D300700A7808E2B40A047F0A80007809EFF20F
:1005E3007870803C78047411F27807740AF2786F9B
:1005F300E675F06484FF70047F0A80007808EFF2E8
:10060300786FE675F00A8475F00A84AFF0EF700A2C
:100613007808E2B40A047F0A80007809EFF2786F61
:10062300E675F00A84780A0206E67804740BF27819
:1006330077E6FE08E6FF7C037DE81203F5EF4E70D4
:10064300047F0A80007807EFF27877E6FE08E6FF7A
:100653007C007D641203F57C007D0A1203F5ED4CEA
:10066300700A7807E2B40A047F0A8002AF057808AB
:10067300EFF27877E6FA08E6FB7C007D0AFFAE022C
:100683001203F57C007D0A1203F5ED242C7809F2A0
:100693007C007D0AAF03AE021203F5780AEDF22265
:1006A30078037412F27805740AF208F208F208F279
:1006B300787BE614601704702D78047401F2E478F3
:1006C30009F27867E62472F8E6780AF2227804746D
:1006D30002F27822E6FF75F00A847809F2EF75F0EA
:0706E3000A8408E5F0F22291
:100CAA007821E6FF7009787AE670047E0180027E78
:100CBA0000780BEEF2EF700A787AE6B401047F014D
:100CCA0080027F00780CEFF27821E6700A787AE6E3
:100CDA00B402047F0180027F00780DEFF220000445
:100CEA007F0180027F00780EEFF2A204E4337810CD
:0A0CFA00F27BFE7A00790B020B4337
:1006EA0020003EE4787CF63003030208362001033A
:1006FA00020836120E6E7823EFF6D2037003020850
:10070A0036E6FFD37870964002A607786FE6FE7049
:10071A0005A60702079FEFC39E507A786FA6078047
:10072A0074300303020836200203020836120E6EE2
:10073A007823EFF6D20308E6FE2405FDE433FCEF46
:10074A00D39DEC6480F8748098400BEE24FBFF780C
:10075A0023E6C39F400D787C06E6C39403400876DF
:10076A00048004E4787CF67823E67003020836D322
:10077A0078709640067823E67870F6786FE6FF7010
:10078A00087823E6786FF6800C7823E6FEC39F503C
:10079A0004786FA60678811204B8EF2401FFE43EBC
:1007AA00FEE43DFDE43CFC78811204D17881120418
:1007BA00B8EF24FFFFEE34FFFEED34FFFDEC34FF0B
:1007CA00FCC004A905AA06AB077877E6FE08E6FF8F
:1007DA00E4FCFDD00012044AC004A905AA06AB072E
:1007EA007823E675F00AA4FFE4FCFDD000EB2FFFA6
:1007FA00EA35F0FEED39FDEC38FCE41202BCC00427
:10080A00C005C006C00778811204B8E41202BCA869
:10081A0004A905AA06AB07D007D006D005D0041252
:0D082A00021F1202FA7877A60608A6072220
:100F4F007BFE7A007900120D587869E62472F8E674
:100F5F00FF7802E28FF084E5F07005D202C203221F
:030F6F00C2022299
:1009AF007F41120F06786DE6D39464400BEF946489
:1009BF005006D201C2038002C201EFD394644003F8
:1009CF00D38001C39204786DA6077823E6D3940AE7
:1009DF0050047F3380547823E6C3945040047FFF44
:1009EF0080487823E624F6FDE434FFFC1202C1E4CC
:1009FF00FBFA79807840120116E4FBFA798C784281
:100A0F0012021FE4FBFA7980783F1200258F0B8EBC
:100A1F000A8D098C08E4FFFE7D4C7C42AB0BAA0AC1
:0D0A2F00A909A8081201161202FA120FAC54
:010A3C002297
:100FFA00538EBF53890F758B18758DFCC28FD28E95
:05100A00D2ABD2AF22C1
:03001B00020BBD18
:100BBD00C0E0C0F0C083C082C0D075D000C000C0FE
:100BCD0001C002C003C004C005C006C007787D1275
:100BDD0004B8EF2401FFE43EFEE43DFDE43CFC7867
:100BED007D1204D1786E06E65407F6E6FF2403F86D
:100BFD00E2FED394144008EE24D4FD7B01800B78E3
:100C0D006EE6FF2403F8E2FDE4FB120E2FD007D0B1
:100C1D0006D005D004D003D002D001D000D0D0D062
:080C2D0082D083D0F0D0E03248
:051080007879760622DC
:0B0C3500E4F508E508C37879965069E3
:100C4000787D1204B88F0C8E0B8D0A8C09E508751F
:100C5000F00BA42428F81204B8E50875F00BA424BE
:100C60002CF81204C4EB2FFFEA3EFEE93DFDE83C00
:100C7000FCAB0CAA0BA90AA809C31204A74026AF13
:100C80000CAE0BAD0AAC09E50875F00BA4242CF8EA
:100C90001204D1E50875F00BA42425F808E6FA083B
:050CA000E6F91204DD7D
:040CA5000508808F2F
:010CA9002228
:100FE300120F727BFE7A007900120D041210801228
:070FF3000FFA120C3580FB20
:03000000020A3DB4
:0C0A3D00787FE4F6D8FD758184020A84FD
:100AC900E4FFC2ABC2C4D2C2D2B5D2B420B3027F52
:100AD9000420B2027F0520B1027F0620B0027F0701
:100AE900D2C4C2C2D2B5D2B420B3027F0820B202A6
:100AF9007F0920B1027F0A20B0027F0BD2C4D2C283
:100B0900C2B5D2B420B3027F0C20B2027F0D20B14E
:100B1900027F0E20B0027F0FD2C4D2C2D2B5C2B4B6
:100B290020B3027F1020B2027F1120B1027F122070
:090B3900B0027F1375B0FFD2ABCE
:010B42002290
:0609A8000118000119FF17
:100B4300E47818F690000112039425E0FF12037B6A
:100B53004FFF90000212039425E025E04FFF900021
:100B63000312039433333354F84FFF9000041203FA
:100B730094C454F04FFF900005120394C43354E01F
:100B83004FFF900006120394C4333354C04FFF90B9
:100B93000007120394C433333354804FFF7818F69D
:100BA30008E66F601418E6FFF4F580E5A0541F44CF
:0A0BB30080F5A053A01F08A607223A
:10103800C0F9A4B0999282F88090FFBFC7C68E8984
:03104800FEF78C24
:100E2F007580FFE5A0541F44E0F5A053A01FA8074D
:100E3F007401088002C333D8FCF580E5A0541F4429
:100E4F00C0F5A053A01FED90103893F580EB600311
:0F0E5F0053807FE5A0541F44E0F5A053A01F224D
:100F72007580FFE5A0541F4480F5A053A01FE4F53F
:0D0F820080E5A0541F44A0F5A053A01F223D
:040FC900D2A07F052E
:100FCD00000000000000000000000000000000AE66
:060FDD00071FEE70EB227D
:0F105E00D2A1120FC9C2A17F05120FCDC2A022CD
:0C106D00C2A1120FC9D2A17F05020FCD55
:020EDA00AD0762
:100EDC00E4FCC2A07F05120FCDED30E704D2A18057
:100EEC0002C2A17F05120FCDD2A0ED25E0FD7F053A
:090EFC00120FCD0CBC08DBC2A0F2
:010F050022C9
:100F8F00E4FC120FC9ED25E0FD30A103430501C2BA
:0C0F9F00A07F05120FCD0CBC08E8AF05C8
:010FAB002223
:100F2B00AB0512105E7FA0120EDA120F3DAF03124B
:020F3B000EDACC
:100F3D00120FC9A2A1E433FDC2A07F05120FCDAFE0
:010F4D00059E
:010F4E002280
:10000300C2A0EF24FF92A17F05120FCD120FC9C228
:08001300A0D2A17F05020FCD70
:020F0600AB0737
:100F080012105E7F90120F3212105E7F91120EDA6D
:100F1800120F3D120F8FAD077F0112000312106DE3
:020F2800AF0513
:010F2A0022A4
:100FAC00AB0712105E7F90120EDA120F3D7F4112CA
:0D0FBC000EDA120F3DAF03120EDA020F3DE8
:100DA7008B0E8A0F8910120F2BAF121512EF601FCF
:100DB700AB0E0510E510AA0F7002050F14F9120308
:100DC7007BFF120EDA120F3D7FC8120FCD80DA12A9
:100DD700106D7FFF120FCD7FFF120FCD7FFF120F18
:060DE700CD7FFF020FCDDD
:100DED008B138A148915120F2B12105E7FA1120E10
:100DFD00DA120F3DAF171517EF6024120F8FAB13DB
:100E0D000515E515AA147002051414F9EF1203C1A6
:100E1D00E5176004E4FF80027F0112000380D50214
:020E2D00106D46
:10104B00E4FEC297EF1392A3EFC313FFD2970EBE2A
:02105B0008F09B
:01105D002270
:10102400C29300C29700D2930012104BAF05121066
:041034004BC29322F6
:100EA600E4FDC29300C29700D2930012104BE4FFF8
:100EB600C297EDC313FD30A303430580D2970FBF3E
:100EC60008EEC29300C29700D29700C2A300D2A335
:030ED60000AF0565
:010ED90022F6
:060D04008B088A09890A30
:100D0A00E4FD7F8E1210247D807F80121024E4FC83
:100D1A00EC25E0FFC374849FFFAB08AA09A90A8CDB
:100D2A0082758300120394FE75F00A8475F00A84B2
:100D3A00ADF0EDC454F0FDEE75F00A84E5F04DFD1A
:0E0D4A001210240CBC03C97D807F8E02102481
:060D58008B088A09890ADC
:100D5E00C2AFE4F50BE50B25E0FFC374859FFF12D0
:100D6E000EA6750C008F0DE50CC4F854F0C8E50DF9
:100D7E00C4540F4875F00AA4FFE50D540F2FAB08AD
:100D8E00AA09A90A850B827583001203D3050BE508
:080D9E000BC3940340BFD2AF68
:010DA600222A
:0610790000007F26DFFEEF
:01107F00224E
:10100F00C2AFE4FED290121079C2901210790EBEC8
:04101F0008F2D2AF52
:0110230022AA
:100E6E00E4F5D9F5E9F5F912100FD2DE3091033021
:100E7E00DFFAC2DE20DF1CAFF9EFFEADE9EDFFAC0D
:100E8E0006E41202C17B967A43798B783C120116E6
:070E9E000202FAC2DF7F002F
:010EA500222A
:10001E00020366E86480F8E933E83360110460F0A7
:10002E00ED33EC337009E8FCE9FDEAFEEBFF220448
:10003E0060DED3EB9FEA9EE99DE8C2E78CF0C2F743
:10004E0095F0400CE8CCF8E9CDF9EACEFAEBCFFB0F
:10005E0012033185D0F05804700320D5B3E8047034
:10006E00075002B2D502037092D5EC0460F7E4CCCF
:10007E00C0E0C398F8603B94186008400DD0E0FBD8
:10008E00020348E4FBFAC9FC8028E830E406E4C920
:10009E00FBE4CAFCE830E305E4C9CACBFCE854072C
:1000AE006010F8C3E913F9EA13FAEB13FBEC13FC37
:1000BE00D8F130F52FC3E49CFCEF9BFFEE9AFEEDDA
:1000CE0099FDD0E0FBEF4E4D4C701222DB03020384
:1000DE006DEC2CFCEF33FFEE33FEED33FDED30E730
:1000EE00EB020348EF2BFFEE3AFEED39FDD0E0FBBD
:1000FE0050130BBB0003020370ED13FDEE13FEEF66
:08010E0013FFEC13FC0203488F
:10011600EC4D6011E8497017ED33EC3304600DE4E3
:10012600FCFFFEFD22E933E8330470F80203661291
:10013600033158046009E4CC248150062850090292
:10014600037028400302036DC0E0EB4A7044B98097
:1001560006D0E0FB02035CEF4E701CBD8008EBFF8F
:10016600EAFEE9FD80EBE98DF0A4FEE5F00201FF71
:10017600E9CDF9EAFEEBFFEF89F0A4FCE5F0CE89C4
:10018600F0A42EFFE435F0CD89F0A42DFEE435F081
:100196008067EF4E7005BD80D780C3EF8BF0A4ACAF
:1001A600F0EE8BF0A42CFCE435F0F8EF8AF0A42CEA
:1001B600E5F038FCE433CB8DF0A42CFCE5F03BF8FD
:1001C600EE8AF0A42CFCE5F038F8E433CF89F0A4ED
:1001D6002CFCE5F038CF3400CE89F0A42FFFE5F0F3
:1001E6003EFEE433C98DF0A42EFEE5F039CD8AF04B
:1001F600A42FFFE5F03EFEE43DFD33D0E0FB5007C3
:100206000BBB000F020370EC2CFCEF33FFEE33FE4A
:06021600ED33FD02034878
:10021C00020370EC5D046005E85904700302036688
:10022C00120331580460F6EC4860F2EC7004FDFEE9
:10023C00FF22C860DB2481C85009C39860025006B5
:10024C0002036D9850CAF582E9294B4A7005AB82BE
:10025C0002035C75F0007C1A7880C3EF9BEE9AED7C
:10026C0099400DC3EF9BFFEE9AFEED99FDE842F02D
:10027C00DC23ACF0D0E0FFD0E0FED0E0FDAB822080
:10028C00E7101BEB60BAEC2CFCEF33FFEE33FEED0A
:10029C0033FD020348E803F830E705C0F075F000C1
:1002AC00EF2FFFEE33FEED33FD40B830E7C280AAEE
:1002BC0075F020800E75F010800575F0087D007EBD
:1002CC00007F003392D530D503120499EC334010E3
:1002DC00EF33FFEE33FEED33FDEC33FCD5F0ED22C6
:0E02EC00E5F0247EA2D513CC92E7CDCEFF2202
:1002FA00EDD2E7CD33EC3392D524814006E4FFFEFC
:10030A00FDFC22FCE4CFCECDCC24E0501174FF805A
:10031A00EDC3CC13CCCD13CDCE13CECF13CF0470F7
:07032A00F030D5DE0204995A
:10033100E9D2E7C933E833F892D5EDD2E7CD33EC12
:0703410033FC5002B2D5228B
:10034800EC30E7100FBF000C0EBE00080DBD000416
:100358000BEB6014A2D5EB13FCED92E7FD2274FFC2
:10036800FCFDFEFF22E480F8A2D574FF13FC7D801B
:03037800E480EF2F
:100A4900020FE3E493A3F8E493A34003F68001F2D1
:100A590008DFF48029E493A3F85407240CC8C333AE
:100A6900C4540F4420C8834004F456800146F6DF7D
:100A7900E4800B0102040810204080900902E47E02
:100A8900019360BCA3FF543F30E509541FFEE49372
:100A9900A360010ECF54C025E060A840B8E493A339
:100AA900FAE493A3F8E493A3C8C582C8CAC583CA64
:100AB900F0A3C8C582C8CAC583CADFE9DEE780BE1C
:0109AE000048
:10037B00BB010689828A83E0225002E722BBFE0280
:09038B00E32289828A83E49322B3
:10039400BB010CE58229F582E5833AF583E022501E
:1003A40006E92582F8E622BBFE06E92582F8E22268
:0D03B400E58229F582E5833AF583E4932282
:1003C100BB010689828A83F0225002F722BBFE011B
:0203D100F32215
:1003D300F8BB010DE58229F582E5833AF583E8F060
:1003E300225006E92582C8F622BBFE05E92582C80C
:0203F300F222F4
:1003F500BC000BBE0029EF8DF084FFADF022E4CCEC
:10040500F875F008EF2FFFEE33FEEC33FCEE9DECB4
:10041500984005FCEE9DFE0FD5F0E9E4CEFD22EDFA
:10042500F8F5F0EE8420D21CFEADF075F008EF2F44
:10043500FFED33FD4007985006D5F0F222C398FD35
:050445000FD5F0EA22D2
:10044A00E88FF0A4CC8BF0A42CFCE98EF0A42CFC51
:10045A008AF0EDA42CFCEA8EF0A4CDA8F08BF0A4CF
:10046A002DCC3825F0FDE98FF0A42CCD35F0FCEB2E
:10047A008EF0A4FEA9F0EB8FF0A4CFC5F02ECD39F3
:0F048A00FEE43CFCEAA42DCE35F0FDE43CFC2260
:0E049900C3E49FFFE49EFEE49DFDE49CFC2274
:1004A700EB9FF5F0EA9E42F0E99D42F0E89C45F0AB
:0104B7002222
:0C04B800E6FC08E6FD08E6FE08E6FF2270
:0D04C400E6FB08E6F908E6FA08E6CBF822A8
:0C04D100ECF608EDF608EEF608EFF62257
:0604DD008A838982E473AA
:00000001FF
