:030000000205F7FF
:0C05F700787FE4F6D8FD75812002063EF6
:100A6600010E00011200880E0A0A0A0A0A0A0A0A78
:100A7600010F0083040D3B3A84001A060505830B1B
:100A8600173B3A84071A060505C100C102011B007F
:060A9600C1010213000083
:100A2F007F0130021C781BE614600D14600D1460FA
:100A3F000D240370217F64227F0D227F20227F08E7
:100A4F0022781BE614600A14600A240270087F18CB
:060A5F00227F3C227F3CD7
:010A6500226E
:1009B500AB07AA06C3EB9464EA9400500874D02BE5
:1009C500FB74073AFAEB5403700EFC7D64AF03AE7B
:1009D500021204D5ED4C700FAE02AF037C017D9081
:0D09E5001204D5ED4C70037F01227F00222B
:10079600750A1C7807E2FF08E2F908E2F50BEFFD9F
:1007A6007C006004E50B70037F0022D3ED940CEC13
:1007B60064809480500AE50B941F748094804003F3
:1007C6007F00227E001209B5EF6008E9640270031B
:1007D600750A1DE9FF64026028D3EF9407748094BC
:1007E600805011E95401640170047F1F80027F1E4E
:1007F6008F0A800DE9540170047F1F80027F1E8FCF
:0D0806000AE50BD3950A40037F00227F0115
:0108130022C2
:10001E00780EE6C3940A74809480500302025EE464
:10002E00F67819E6FE08E6FF7817A60608A6071268
:10003E0006837819EEF608EFF67817E6FC08E6FD6B
:10004E00EE6CFCEF6DFDEC5E7815F6ED5F08F6EFED
:10005E00F4FFEEF45C7810F6ED5F08F67816E62005
:10006E00E003020118200045D200E4781BF6F508E3
:10007E00C3E508940474809480501274002508F827
:10008E00E2FF74072508F8EFF2050880E3E4F508AF
:10009E00C3E508940374809480506F74042508F8A7
:0D00AE00E2FF740B2508F8EFF2050880E36F
:1000BB00750901C200120796EF6052E4F508C3E51B
:1000CB0008940474809480501274072508F8E2FF9A
:1000DB0074002508F8EFF2050880E3E4F508C3E5A2
:1000EB00089403748094805012740B2508F8E2FF77
:1000FB0074042508F8EFF2050880E37BFE7A00799B
:0D010B000412095C7BFE7A00790012088E58
:100118007815E6FC08E6FDECC313ED1330E009B2F0
:1001280002300004E4781BF6AE04ED7802CEC31367
:10013800CE13D8F930E034300031781BE6FF7E006A
:100148007C003002047D0480027D03ED2FFFEC3E2D
:10015800CF24FFCF34FFFE7C003002047D048002F0
:100168007D031204D5AF05781BA6057815E6FE08B1
:10017800E67803CEC313CE13D8F930E02030001D43
:10018800781BE62401FFE433FE7C003002047D0482
:1001980080027D031204D5AF05781BA6057915E703
:1001A800C4F854F0C809E7C4540F4830E04A300096
:0401B8004730021EAC
:1001BC00120A2F8F09781BE6FF2407F8E27008E576
:0C01CC000914FE7407801E781BE624074F
:0201D800802283
:1001DA00120A2F8F09781BE6FF240BF8E2640170DC
:1001EA000CE50914FE740B2FF8EEF28009781BE671
:0601FA00240BF8E214F2F0
:100200007815E6FE08E67805CEC313CE13D8F9308C
:08021000E03A3000373002191A
:10021800120A2F8F09781BE62407F8E2FFE5091474
:07022800B50704E4F2801D9C
:02022F00801835
:10023100120A2F8F09781BE6240BF8E2FFE5091457
:0B024100B507057401F28003E204F22F
:10024C007815E630E00C120B2CEF24FFB39203125E
:02025C00052A71
:01025E00227D
:10025F007812E6C3946474809480500302045AE4C5
:10026F00F67BFE7A0079041208147BFE7A0079007F
:10027F00120901E4FFEFC3940874809480500A744C
:10028F000E2FF8740AF20F80EC2000030203A32054
:10029F0002030203317807E2FF75F00A8475F00A52
:1002AF0084780EE5F0F2EF75F00A8408E5F0F2E2DB
:1002BF00242CF27808E2FF75F00A8475F00A84782E
:1002CF0010E5F0F2EF75F00A8408E5F0F2E2242C65
:1002DF00F27809E2FF75F00A8475F00A847812E566
:1002EF00F0F2EF75F00A8408E5F0F2E2242CF278D0
:1002FF000AE2FF75F00A8475F00A847814E5F0F2CB
:10030F00EF75F00A8408E5F0F230010302045A7821
:10031F001BE6FF25E0240FF8740AF2EF25E0240E08
:10032F00806D780BE2FF75F00A8475F00A847810FF
:10033F00E5F0F2EF75F00A8408E5F0F2E2242CF212
:10034F00780CE2FF75F00A8475F00A847812E5F0F4
:10035F00F2EF75F00A8408E5F0F2E2242CF2780D42
:10036F00E2FF75F00A8475F00A847814E5F0F2EF75
:10037F0075F00A8408E5F0F230010302045A781B85
:10038F00E6FF25E02411F8740AF2EF25E02410F8B7
:10039F00740AF22230025E7800E2FF75F00A84756B
:1003AF00F00A84780EE5F0F2EF75F00A8408E5F0B4
:1003BF00F2E2242CF27801E2FF75F00A8475F00A5C
:1003CF00847810E5F0F2EF75F00A8408E5F0F2E2B8
:1003DF00242CF27802E2FF75F00A8475F00A847813
:1003EF0012E5F0F2EF75F00A8408E5F0F2E2242C42
:1003FF00F27803803E7804E2FF75F00A8475F00A04
:10040F00847810E5F0F2EF75F00A8408E5F0F2E277
:10041F00242CF27805E2FF75F00A8475F00A8478CF
:10042F0012E5F0F2EF75F00A8408E5F0F2E2242C01
:10043F00F27806E2FF75F00A8475F00A847814E505
:0B044F00F0F2EF75F00A8408E5F0F20F
:01045A00227F
:03001B0002070DCC
:10070D00C0E0C0F0C083C082C0D075D000C000C0B2
:10071D0001C002C003C004C005C006C007781206A0
:10072D00780E0630001B78130806E618700106FFD8
:10073D008606BE010CBFF40978137600087600B268
:10074D0001780F06E664087001F6780FE6FF240EB7
:10075D00F8E2FEC3942C4008EE24D4FDD204800BA5
:10076D00780FE6FF240EF8E2FDC204120A9DD007B1
:10077D00D006D005D004D003D002D001D000D0D007
:09078D00D082D083D0F0D0E0321C
:10000300438E4053890F758B20758DD1C28FD28E4D
:05001300D2ABD2AF22C8
:100AD400120B3B7BFE7A00790012088E7BFE7A00B3
:100AE400790412095C12000312025F12001E80F8DE
:100AF400E4FEEEC3940874809480500FC297EF1301
:0B0B040092A3EFC313FFD2970E80E70F
:010B0F0022C3
:080B100075F00A84EE25F0FDEA
:100B1800C29300C29700D29300120AF4AF05120ADA
:040B2800F4C293225E
:1009F200E4FDC29300C29700D29300120AF4E4FF0E
:100A0200EFC39408748094805011C297EDC313FD14
:100A120030A303430580D2970F80E5C29300C297AB
:0C0A220000D29700C2A300D2A300AF05D1
:010A2E0022A5
:10095C00E4FD7F8E120B187D807F80120B18120421
:10096C005BFF75F00A84C454F0FEEF7F84120B1009
:10097C00900001120474FF75F00A84C454F0FEEF69
:10098C007F82120B10900002120474FF75F00A841F
:10099C00C454F0FEEF75F00A84EE25F0FD7F801252
:0909AC000B187D807F8E020B18F0
:100814007F851209F2AC077F831209F28F087F816A
:100824001209F28F097F851209F28F0A7F83120958
:10083400F28F0B7F811209F2ECB50AD4E508B50BEF
:10084400CFE509B507CAEC30E70353041F53097F0A
:10085400ECC4540F75F00AA4FFEC540F2F1204A13A
:10086400E508C4540F75F00AA4FFE508540F2F904F
:1008740000011204B3E509C4540F75F00AA4FFE59E
:0A08840009540F2F9000020204B384
:10088E00E4FD7F8E120B1812045BFF75F00A84C410
:10089E0054F0FEEF75F00A84EE25F0FD7F8C120BFE
:1008AE0018900001120474FF75F00A84C454F0FE0F
:1008BE00EF75F00A84EE25F0FD7F88120B1890007C
:1008CE0002120474FF75F00A84C454F0FEEF75F042
:1008DE000A84EE25F0FD7F86120B18900003120499
:1008EE007475F00A84ADF07F8A120B187D807F8EAE
:0308FE00020B18D2
:100901007F8D1209F28F087F891209F28F097F8783
:100911001209F2AC077F8B1209F2900003EF120467
:10092100B3E508C4540F75F00AA4FFE508540F2F6E
:100931001204A1E509C4540F75F00AA4FFE5095496
:100941000F2F9000011204B3ECC4540F75F00AA4E8
:0B095100FFEC540F2F9000020204B3D3
:10052A007F851209F2EF30E7047E0180027E00A285
:10053A0003E433FD6E70030205F6EE6029EF30E541
:10054A00047E0180027E00AB06EF5410C4540F757E
:10055A00F00AA4FEEF540F2EFCEB6002802FEC642D
:10056A000C704AFC8047EF5430C4540F75F00AA44B
:10057A00FEEF540F2EFCC3940C7480948040047FC9
:10058A000180027F00AB07ECFF7E007006740C2C22
:10059A00FC801AD3EF940CEE64809480400FD3EF62
:1005AA009417EE64809480500474F42CFCED5B6024
:1005BA00047F2080027F003003047E8080027E0058
:1005CA00EE4FFFEC75F00A84FEC454F04FFFEC7551
:1005DA00F00A84E5F04FFCE4FD7F8E120B18AD049F
:0C05EA007F84120B187D807F8E120B188E
:0105F60022E2
:0F0B2C007F851209F2EF30E7037F01227F00225D
:0E0B3B007DFF7F80120B49E4FD7FA0020B4975
:10068300E4FFFEC2C4D2C2D2B5D2B420B3010F205C
:10069300B20343070220B10343070420B003430717
:1006A30008D2C4C2C2D2B5D2B420B30343071020C8
:1006B300B20343072020B10343074020B00343079D
:1006C30080D2C4D2C2C2B5D2B420B3034306012040
:1006D300B20343060220B10343060420B0034306DA
:1006E30008D2C4D2C2D2B5C2B420B3034306102089
:1006F300B20343062020B10343064020B003430660
:0907030080D2C4D2C2D2B5D2B436
:01070C0022CA
:0B0B56003F065B4F666D7D077F6F0060
:100A9D008F0C8D0D7DFF7FE0120B49AF0CA80774F5
:100AAD0001088002C333D8FCFD7FC0120B49E50D50
:100ABD00900B5693FF3004047E8080027E00EF4E33
:070ACD00F4FD7FE0020B497C
:0D0B49008D80E5A0541F4FF5A053A01F2282
:10060300020AD4E493A3F8E493A34003F68001F22F
:1006130008DFF48029E493A3F85407240CC8C333F8
:10062300C4540F4420C8834004F456800146F6DFC7
:10063300E4800B0102040810204080900A66E47EE7
:10064300019360BCA3FF543F30E509541FFEE493BC
:10065300A360010ECF54C025E060A840B8E493A383
:10066300FAE493A3F8E493A3C8C582C8CAC583CAAE
:10067300F0A3C8C582C8CAC583CADFE9DEE780BE66
:010A9C000059
:10045B00BB010689828A83E0225002E722BBFE029F
:09046B00E32289828A83E49322D2
:10047400BB010CE58229F582E5833AF583E022503D
:1004840006E92582F8E622BBFE06E92582F8E22287
:0D049400E58229F582E5833AF583E49322A1
:1004A100BB010689828A83F0225002F722BBFE013A
:0204B100F32234
:1004B300F8BB010DE58229F582E5833AF583E8F07F
:1004C300225006E92582C8F622BBFE05E92582C82B
:0204D300F22213
:1004D500BC000BBE0029EF8DF084FFADF022E4CC0B
:1004E500F875F008EF2FFFEE33FEEC33FCEE9DECD4
:1004F500984005FCEE9DFE0FD5F0E9E4CEFD22ED1A
:10050500F8F5F0EE8420D21CFEADF075F008EF2F63
:10051500FFED33FD4007985006D5F0F222C398FD54
:050525000FD5F0EA22F1
:00000001FF
