:1008DD007580FFE5A0541F4480F5A053A01FE4F5DB
:0D08ED0080E5A0541F44A0F5A053A01F22D9
:0408FA007F057E00F8
:1008FE00EF1FAA0670011E4A600BE4FDEDC3940CB7
:05090E0050EE0D80F722
:0109130022C1
:0208BF00A90787
:1008C100E4FBC294E91392941208FAD294E9C31397
:0C08D100F90BBB08ED7F057E000208FE5D
:10091400E4FBC294ECC313FCD294309403430480EC
:090924001208FA0BBB08EBAF044A
:01092D0022A7
:10085200C201D2947F0C7E001208FEC2947F507EA9
:10086200001208FED2947F0A7E001208FEA2949221
:06087200011208FAA201C8
:01087800225D
:1007CA001208527FCC1208BF7F441208BF12085287
:1007DA007FCC1208BF7FBE1208BF120914A90712E4
:1007EA000914EFAD01FCEC1202B1E4FBFA7980784E
:0407FA004102020FA7
:10087900E4FFC2C4D2C2D2B5D2B420B3027F0420ED
:10088900B2027F05D2C4C2C2D2B5D2B420B3027FAC
:060899000820B2027F09F5
:01089F002236
:03082A00010BFFC0
:06078C008B088A09890AAE
:10079200E4FFFEAB08AA09A90A8E82758300120340
:1007A2006BFDA806088002C333D8FC42070EBE08C0
:1007B200E2EF650B6011EFF4F580E5A0541F448071
:0707C200F5A053A01F8F0BEF
:0107C900220D
:0F09A000C0F9A4B0999282F88090FFBFC68C88EE
:10074D007580FFE5A0541F44E0F5A053A01FA80736
:10075D007401088002C333D8FCF580E5A0541F4412
:10076D00C0F5A053A01FED9009A093F580EB600399
:0F077D0053807FE5A0541F44E0F5A053A01F2236
:04092E00D2A07F05CF
:10093200000000000000000000000000000000AE07
:06094200071FEE70EB221E
:0F09AF00D2A112092EC2A17F05120932C2A022C5
:0C09BE00C2A112092ED2A17F050209324D
:0207FE00AD0745
:10080000E4FCC2A07F05120932ED30E704D2A180DA
:1008100002C2A17F05120932D2A0ED25E0FD7F05BD
:090820001209320CBC08DBC2A075
:0108290022AC
:030962001207FE7B
:1009650012092EA2A1E433FDC2A07F05120932AF00
:01097500057C
:01097600225E
:10094800AB071209AF7F901209627F41120962AFAB
:0A095800031207FE1209650209BE32
:10082D008800000000000000000088080A0A0A0A7B
:10083D000A0A0A0A88100000000000000000011CCE
:04084D0019010C1968
:1006F0007815E6705776011208797814EFF67812BB
:10070000E6FEF45FFD7810F6EFF45E781BF67812E3
:10071000A607ED24FB602124FD602014602624053B
:10072000702A780D06E6B40302E4F6780DE664025A
:10073000701A18E6781CF622B20022780DE6B40191
:0D0740000B181622780DE6B40102180622EF
:100439007811E660030205317601780DE6146068EB
:100449001470030204DC2402600302053178087485
:100459000CF2780EE6FA08E6FB7C037DE8FFAE02B3
:10046900120398780CEFF27C007D64AF03AE0212A0
:1004790003987C007D0A120398780DEDF2780574D3
:1004890001F2780EE6FA08E6FB7C007D0AFFAE026F
:100499001203987C007D0A120398780EEDF27C0015
:1004A9007D0AAF03AE0280797808740DF2780C7476
:1004B9000AF208F2E47805F2780CE6FF75F00A848E
:1004C90075F00A84780EE5F0F2EF75F00A8408E514
:1004D900F0F2227808740EF278171203FB1202EA7E
:1004E900EF75F00A84780DE5F0F278057401F2E40D
:1004F900FFFE7D207C4178171204071201061202C3
:10050900EAEF75F00A84780EE5F0F2E4FFFE7DC8A3
:100519007C4278171204071201061202EA7C007D58
:090529000A120398780FEDF2228A
:10053200200020780CE675F064A4FFC3780FE69FD4
:1005420018E695F0E4FFFE5004FDFC805C7DA07C83
:10055200408056780EE6FA08E6FBD394D0EA940778
:10056200500B78171204203F8000008041C3EB94A7
:10057200A0EA940F400B78171204204080000080FC
:100582002D780EE6FC08E6FDE41202B1E4FBFA79EE
:10059200407840120106E4FBFA79FA784412020F1D
:1005A200E4FBFAF978C01200157817120414E4FF7C
:1005B200FE7D4C7C4278171204071201061202EAF1
:1005C2001209482000047F0180027F007810EFF2B8
:1005D200E4FF780DE6B507047E0180027E00741107
:0805E2002FF8EEF20FBF03EA4F
:0105EA0022EE
:1008A0007813E6701976011207CAE4FBFA79C87862
:0F08B000421201061202EA780EA60608A60722D7
:10097700538E7F5389F0758A18758CFCC28DD28C83
:05098700D2A9D2AF224D
:03000B0002067773
:10067700C0E0C0F0C083C082C0D075D000C000C049
:1006870001C002C003C004C005C006C00778150634
:10069700E6B40A027600781106E6B46402760078BA
:1006A7001306E6B4A0027600781606E6B4080276CA
:1006B700007816E6FF2408F8E2FD7816E62400F82D
:1006C700E2FB12074D7BFE7A00791012078CD007E8
:1006D700D006D005D004D003D002D001D000D0D0AE
:0906E700D082D083D0F0D0E032C3
:10098C001208DD1209771205321206F01204391220
:04099C0008A080F23D
:10000E00020356E86480F8E933E83360110460F0C7
:10001E00ED33EC337009E8FCE9FDEAFEEBFF220458
:10002E0060DED3EB9FEA9EE99DE8C2E78CF0C2F753
:10003E0095F0400CE8CCF8E9CDF9EACEFAEBCFFB1F
:10004E0012032185D0F05804700320D5B3E8047054
:10005E00075002B2D502036092D5EC0460F7E4CCEF
:10006E00C0E0C398F8603B94186008400DD0E0FBE8
:10007E00020338E4FBFAC9FC8028E830E406E4C940
:10008E00FBE4CAFCE830E305E4C9CACBFCE854073C
:10009E006010F8C3E913F9EA13FAEB13FBEC13FC47
:1000AE00D8F130F52FC3E49CFCEF9BFFEE9AFEEDEA
:1000BE0099FDD0E0FBEF4E4D4C701222DB03020394
:1000CE005DEC2CFCEF33FFEE33FEED33FDED30E750
:1000DE00EB020338EF2BFFEE3AFEED39FDD0E0FBDD
:1000EE0050130BBB0003020360ED13FDEE13FEEF86
:0800FE0013FFEC13FC020338B0
:10010600EC4D6011E8497017ED33EC3304600DE4F3
:10011600FCFFFEFD22E933E8330470F802035612B1
:10012600032158046009E4CC2481500628500902B2
:10013600036028400302035DC0E0EB4A7044B980C7
:1001460006D0E0FB02034CEF4E701CBD8008EBFFAF
:10015600EAFEE9FD80EBE98DF0A4FEE5F00201EF91
:10016600E9CDF9EAFEEBFFEF89F0A4FCE5F0CE89D4
:10017600F0A42EFFE435F0CD89F0A42DFEE435F091
:100186008067EF4E7005BD80D780C3EF8BF0A4ACBF
:10019600F0EE8BF0A42CFCE435F0F8EF8AF0A42CFA
:1001A600E5F038FCE433CB8DF0A42CFCE5F03BF80D
:1001B600EE8AF0A42CFCE5F038F8E433CF89F0A4FD
:1001C6002CFCE5F038CF3400CE89F0A42FFFE5F003
:1001D6003EFEE433C98DF0A42EFEE5F039CD8AF05B
:1001E600A42FFFE5F03EFEE43DFD33D0E0FB5007D3
:1001F6000BBB000F020360EC2CFCEF33FFEE33FE6B
:06020600ED33FD02033898
:10020C00020360EC5D046005E859047003020356B8
:10021C00120321580460F6EC4860F2EC7004FDFE09
:10022C00FF22C860DB2481C85009C39860025006C5
:10023C0002035D9850CAF582E9294B4A7005AB82DE
:10024C0002034C75F0007C1A7880C3EF9BEE9AED9C
:10025C0099400DC3EF9BFFEE9AFEED99FDE842F03D
:10026C00DC23ACF0D0E0FFD0E0FED0E0FDAB822090
:10027C00E7101BEB60BAEC2CFCEF33FFEE33FEED1A
:10028C0033FD020338E803F830E705C0F075F000E1
:10029C00EF2FFFEE33FEED33FD40B830E7C280AAFE
:1002AC0075F020800E75F010800575F0087D007ECD
:1002BC00007F003392D530D5031203EDEC334010A0
:1002CC00EF33FFEE33FEED33FDEC33FCD5F0ED22D6
:0E02DC00E5F0247EA2D513CC92E7CDCEFF2212
:1002EA00EDD2E7CD33EC3392D524814006E4FFFE0C
:1002FA00FDFC22FCE4CFCECDCC24E0501174FF806B
:10030A00EDC3CC13CCCD13CDCE13CECF13CF047007
:07031A00F030D5DE0203ED17
:10032100E9D2E7C933E833F892D5EDD2E7CD33EC22
:0703310033FC5002B2D5229B
:10033800EC30E7100FBF000C0EBE00080DBD000426
:100348000BEB6014A2D5EB13FCED92E7FD2274FFD2
:10035800FCFDFEFF22E480F8A2D574FF13FC7D802B
:03036800E480EF3F
:030000000205EB0B
:0C05EB00787FE4F6D8FD7581200206320E
:10036B00BB010CE58229F582E5833AF583E0225047
:10037B0006E92582F8E622BBFE06E92582F8E22291
:0D038B00E58229F582E5833AF583E49322AB
:10039800BC000BBE0029EF8DF084FFADF022E4CC49
:1003A800F875F008EF2FFFEE33FEEC33FCEE9DEC12
:1003B800984005FCEE9DFE0FD5F0E9E4CEFD22ED58
:1003C800F8F5F0EE8420D21CFEADF075F008EF2FA2
:1003D800FFED33FD4007985006D5F0F222C398FD93
:0503E8000FD5F0EA2230
:0E03ED00C3E49FFFE49EFEE49DFDE49CFC2221
:0C03FB00E6FC08E6FD08E6FE08E6FF222E
:0D040700E6FB08E6F908E6FA08E6CBF82265
:0C041400ECF608EDF608EEF608EFF62214
:10042000D083D082E493F608740193F608740293A3
:09043000F608740393F6740473DA
:1005F70002098CE493A3F8E493A34003F68001F285
:1006070008DFF48029E493A3F85407240CC8C33304
:10061700C4540F4420C8834004F456800146F6DFD3
:10062700E4800B010204081020408090082AE47E31
:10063700019360BCA3FF543F30E509541FFEE493C8
:10064700A360010ECF54C025E060A840B8E493A38F
:10065700FAE493A3F8E493A3C8C582C8CAC583CABA
:10066700F0A3C8C582C8CAC583CADFE9DEE780BE72
:0108510000A6
:00000001FF
