:1007CC0088080A0A0A0A0A0A0A0A880000000000B5
:1007DC0000000000020D2D0502102D0588100000F0
:0607EC0000000000000007
:1005BA00781AE6600302065576011208F47818EFF5
:1005CA00F618E6F45F7815F67817A60724FB603864
:1005DA0014603F14605A24037071780F06E6B4035E
:1005EA0002E4F6780FE6FFB4020EC201780DE6784F
:1005FA0010F6780EE67811F6EF70507810E6780D5E
:10060A00F67811E6780EF622780FE66402703CB2AC
:10061A000122780FE664027032A20133FF2410F837
:10062A00740526F674102FF8E66437701E760522D4
:10063A00780FE6B40215A201E433FF2410F874FB24
:0C064A0026F674102FF8E67002763222BB
:10035B007816E6600302046C7601780FE614606190
:10036B001470030204272402600302046C780874DF
:10037B000CF2780B740AF208F27812E6FA08E6FB34
:10038B007C007D64FFAE021202F8780DEFF2780567
:10039B007401F27C007D0AAF03AE021202F87C00FE
:1003AB007D0A1202F8780EEDF27812E6FE08E6FFEF
:1003BB007C007D0A1202F8780FEDF2E47806020455
:1003CB00687808740EF23000107819E675F06484C2
:1003DB00FF600280067F0A80027F0F780DEFF230FC
:1003EB00000F7819E675F00A8475F00A84AFF08077
:1003FB00027F0F780EEFF218E2B40A0708E27003DF
:10040B00740AF230000B7819E675F00A84AFF080AD
:10041B00027F0F780FEFF2E47805F2227808740D63
:10042B00F27810E6FF75F00A8475F00A84780BE514
:10043B00F0F2EF75F00A8408E5F0F208740AF2782E
:10044B0011E6FF75F00A8475F00A84780EE5F0F278
:10045B00EF75F00A8408E5F0F278067401F2780380
:02046B00F2227B
:100920007814E6700B7601120767EF24027819F647
:0109300022A4
:10081C00E4FF780FE6B507047E0180027E007410B9
:10082C002FF8EEF20FBF03EAA200E433780C5679EE
:02083C0017F3B0
:01083E002297
:10051800781DE660030205B976011207F6EF75F05B
:1005280064A4FFAEF07C007D331202F87812EEF678
:10053800FC08EFF6FD780DE675F00AA4FFC3ED9F01
:10054800EC95F0501508E675F00AA4FFD37813E689
:100558009F18E695F04003D38001C3920030004213
:100568007819E6FFD394145006781E76018037EF89
:10057800C394504006781E7605802B7819E6FCE473
:100588001202167B897A887988783D1201067BAC3D
:100598007AAA79AA78BE12001512024A781EA6070E
:1005A8008004E4781EF6781EE675F033A4FF12087E
:0105B800C57D
:0105B900221F
:10090B00538E7F5389F0758A18758CFCC28DD28CEF
:05091B00D2A9D2AF22B9
:03000B0002046D7F
:10046D00C0E0C0F0C083C082C0D075D000C000C055
:10047D0001C002C003C004C005C006C007781A063B
:10048D00E6B40A027600781606E6B46402760078C1
:10049D001D06E6B4A0027600781B06E6B4080276C7
:1004AD0000781406E6B4A0027600781BE6FF240857
:1004BD00F8E2FD7C00781BE62400F8E2FB7A0012DE
:1004CD0006E27BFE7A00791012072930001A781C9B
:1004DD0006E6B4641B7600780CE670047F0180029A
:1004ED007F00780CA6078008780C7600781C7600C3
:1004FD00D007D006D005D004D003D002D001D00053
:0B050D00D0D0D082D083D0F0D0E032FC
:1008DD0012083F12090B1205BA12035B12081C1203
:0708ED00051812092080EF3D
:10083F007580FFE5A0541F4480F5A053A01FE4F579
:0D084F0080E5A0541F44A0F5A053A01F2277
:04087900D2A07F0585
:10087D00000000000000000000000000000000AEBD
:06088D00071FEE70EB22D4
:0F095200D2A1120879C2A17F0512087DC2A0228E
:0C096100C2A1120879D2A17F0502087D16
:0207A000AD07A3
:1007A200E4FCC2A07F0512087DED30E704D2A180EF
:1007B20002C2A17F0512087DD2A0ED25E0FD7F05D2
:0907C20012087D0CBC08DBC2A08A
:0107CB00220B
:10085C00E4FC120879ED25E0FD30A103430501C24B
:0C086C00A07F0512087D0CBC08E8AF0559
:01087800225D
:080893001209527F901207A028
:10089B00120879A2A1E433FDC2A07F0512087DAF37
:0108AB000547
:0108AC002229
:1008AD00C2A0EF24FF92A17F0512087D120879C224
:0808BD00A0D2A17F0502087D15
:1007F6001208937F031207A012089B1209527F91D9
:100806001207A012089B12085CAD077F011208AD03
:05081600120961AF05AD
:01081B0022BA
:1008C500AB071208937F411207A012089BAF0312D2
:0808D50007A012089B02096153
:0307F200010BFFF9
:060729008B088A09890A11
:10072F00E4FFFEAB08AA09A90A8E827583001202A4
:10073F00CBFDA806088002C333D8FC42070EBE08C3
:10074F00E2EF650B6011EFF4F580E5A0541F4480D4
:07075F00F5A053A01F8F0B52
:010766002270
:10094200C0F9A4B0999282F88090FFBFC18CC78889
:1006E2007580FFE5A0541F44E0F5A053A01FA807A2
:1006F2007401088002C333D8FCF580E5A0541F447E
:10070200C0F5A053A01F74422DF58274093CF583F5
:10071200E493F580EB4A600353807FE5A0541F44C5
:07072200E0F5A053A01F2227
:0600030000007F21DFFE7A
:0100090022D4
:10093100E4FED290120003C2901200030EBE08F230
:010941002293
:10076700E4F5D9F5F9F5E9C2DF120931D2DE3091A6
:100777000330DFFAC2DE30DF037F0022AFF9EFFE7E
:10078700ADE9EDFFAC06E41202117B967A43798B53
:08079700783C12010612024A2F
:01079F002237
:1008F400E4FF20B3027F0420B2027F0520B1027F0F
:060904000620B0027F078F
:01090A0022CA
:10000E000202B6E86480F8E933E83360110460F068
:10001E00ED33EC337009E8FCE9FDEAFEEBFF220458
:10002E0060DED3EB9FEA9EE99DE8C2E78CF0C2F753
:10003E0095F0400CE8CCF8E9CDF9EACEFAEBCFFB1F
:10004E0012028185D0F05804700320D5B3E80470F5
:10005E00075002B2D50202C092D5EC0460F7E4CC90
:10006E00C0E0C398F8603B94186008400DD0E0FBE8
:10007E00020298E4FBFAC9FC8028E830E406E4C9E1
:10008E00FBE4CAFCE830E305E4C9CACBFCE854073C
:10009E006010F8C3E913F9EA13FAEB13FBEC13FC47
:1000AE00D8F130F52FC3E49CFCEF9BFFEE9AFEEDEA
:1000BE0099FDD0E0FBEF4E4D4C701222DB03020295
:1000CE00BDEC2CFCEF33FFEE33FEED33FDED30E7F0
:1000DE00EB020298EF2BFFEE3AFEED39FDD0E0FB7E
:1000EE0050130BBB00030202C0ED13FDEE13FEEF27
:0800FE0013FFEC13FC02029851
:10010600EC4D6011E8497017ED33EC3304600DE4F3
:10011600FCFFFEFD22E933E8330470F80202B61252
:10012600028158046009E4CC248150062850090253
:1001360002C02840030202BDC0E0EB4A7044B98009
:1001460006D0E0FB0202ACEF4E701CBD8008EBFF50
:10015600EAFEE9FD80EBE98DF0A4FEE5F00201EF91
:10016600E9CDF9EAFEEBFFEF89F0A4FCE5F0CE89D4
:10017600F0A42EFFE435F0CD89F0A42DFEE435F091
:100186008067EF4E7005BD80D780C3EF8BF0A4ACBF
:10019600F0EE8BF0A42CFCE435F0F8EF8AF0A42CFA
:1001A600E5F038FCE433CB8DF0A42CFCE5F03BF80D
:1001B600EE8AF0A42CFCE5F038F8E433CF89F0A4FD
:1001C6002CFCE5F038CF3400CE89F0A42FFFE5F003
:1001D6003EFEE433C98DF0A42EFEE5F039CD8AF05B
:1001E600A42FFFE5F03EFEE43DFD33D0E0FB5007D3
:1001F6000BBB000F0202C0EC2CFCEF33FFEE33FE0C
:06020600ED33FD02029839
:10020C0075F020800E75F010800575F0087D007E6D
:10021C00007F003392D530D50312034DEC334010E0
:10022C00EF33FFEE33FEED33FDEC33FCD5F0ED2276
:0E023C00E5F0247EA2D513CC92E7CDCEFF22B2
:10024A00EDD2E7CD33EC3392D524814006E4FFFEAC
:10025A00FDFC22FCE4CFCECDCC24E0501174FF800B
:10026A00EDC3CC13CCCD13CDCE13CECF13CF0470A8
:07027A00F030D5DE02034D58
:10028100E9D2E7C933E833F892D5EDD2E7CD33ECC3
:0702910033FC5002B2D5223C
:10029800EC30E7100FBF000C0EBE00080DBD0004C7
:1002A8000BEB6014A2D5EB13FCED92E7FD2274FF73
:1002B800FCFDFEFF22E480F8A2D574FF13FC7D80CC
:0302C800E480EFE0
:030000000206569F
:0C065600787FE4F6D8FD75812002069D37
:1002CB00BB010CE58229F582E5833AF583E02250E8
:1002DB0006E92582F8E622BBFE06E92582F8E22232
:0D02EB00E58229F582E5833AF583E493224C
:1002F800BC000BBE0029EF8DF084FFADF022E4CCEA
:10030800F875F008EF2FFFEE33FEEC33FCEE9DECB2
:10031800984005FCEE9DFE0FD5F0E9E4CEFD22EDF8
:10032800F8F5F0EE8420D21CFEADF075F008EF2F42
:10033800FFED33FD4007985006D5F0F222C398FD33
:050348000FD5F0EA22D0
:0E034D00C3E49FFFE49EFEE49DFDE49CFC22C1
:100662000208DDE493A3F8E493A34003F68001F2C9
:1006720008DFF48029E493A3F85407240CC8C33399
:10068200C4540F4420C8834004F456800146F6DF68
:10069200E4800B01020408102040809007CCE47E25
:1006A200019360BCA3FF543F30E509541FFEE4935D
:1006B200A360010ECF54C025E060A840B8E493A324
:1006C200FAE493A3F8E493A3C8C582C8CAC583CA4F
:1006D200F0A3C8C582C8CAC583CADFE9DEE780BE07
:0107F5000003
:00000001FF
