:1006E100013319017C198300165950013011017B26
:1006F1001188130000000000000000012D040178A2
:1007010004880B0A0A0A0A0A0A0A0A880300000076
:100711000000000000204234FF07D4000000010067
:10072100000000FF04DB0000000A00000000FF03DE
:10073100610000006400000000FF09BB000000C868
:1007410000000000FF0824000000C800000000FFB6
:0A075100098C000000C80000000041
:1004DB00120A637831EFF6782FE6FEF45F18F6EF29
:1004EB00F45EFFF67831E6782FF6EF24FB604624B6
:1004FB00FD6059147003020581240560030205ABEE
:10050B002001197833E6787CF67830E6787BF6783C
:10051B002DE67878F6D201E4782CF622787CE67812
:10052B0033F6787BE67830F67878E6782DF6C201EC
:10053B00E47829F62220010A782906E66403706024
:10054B00F622782C06E664037056F62230015178B9
:10055B002CE6FF7009787B16E6F47044F622EFB4B4
:10056B000109787C16E6F47037F622787816E66483
:10057B0003702D760422300127782CE6FF700A7861
:10058B007B06E6B4181A761722EFB4010A787C06BC
:10059B00E6B4640C766322787806E6B40902760832
:0105AB00222D
:100361003001030204617829E61460451470030228
:100371000405240260030204DAE47805F2781074BB
:100381000BF2780DF2E4FF74002FF8E2C4540FFE73
:10039100EF75F003A4240BF8EEF274002FF8E25489
:1003A1000FFEEF75F003A4240CF8EEF20FBF03D794
:1003B10022780B740CF2780F740AF218F218F21802
:1003C100F27876E6FA08E6FB7C007D64FFAE021265
:1003D10002C27810EFF27C007D0AAF03AE02120276
:1003E100C27C007D0A1202C27811EDF27876E6FE37
:1003F10008E6FF7C007D0A1202C27812EDF278094C
:100401007401F222780B740DF208740AF2782AE66C
:10041100FA08E6FB7C007D64FFAE021202C2780D91
:10042100EFF27C007D0AAF03AE021202C27C007DB6
:100431000A1202C2780EEDF2782AE6FE08E6FF7C87
:10044100007D0A1202C2780FEDF208740AF208F276
:10045100A200E43308F278057401F2E47809F2228B
:10046100782CE614603714605C2402706CE478091F
:10047100F27805F2780B740DF2087404F208740A2C
:10048100F208F208F208F2787BE675F00A84FF6060
:100491000280027F0A7811EFF2787B801D780B745D
:1004A1000DF2087405F2787CE675F00A84FF6002AB
:1004B10080027F0A7811EFF2787CE675F00A847881
:1004C10012E5F0F222780B740DF2087406F278113D
:0904D100740AF27878E67812F260
:0104DA0022FF
:1007D400A202E4337813F2A203E43308F2A204E49D
:1007E4003308F2300020750803782DE614B50804A8
:1007F4007F0180027F0074132508F8EFF20508E5F5
:1008040008B408E5801175080374132508F8E4F2A8
:100814000508E508B408F27BFE7A0079130208A5FE
:10098C001208E3E4FBFA7920784112000E1201F20E
:10099C007876EEF6FC08EFF6FD7833E675F00AA4EF
:0F09AC00FFC3ED9FEC95F050028001C392032230
:1009BB007BFE7A007900120A8A7800E2FFC4540F9A
:1009CB0075F00AA4FEEF540F2EFF7830E6D39F503C
:0C09DB0008EFC3942050028001C3920278
:0109E70022ED
:10082400120AB0AC07E41201BEE4FBFA794C784238
:10083400120117E4FBFA79C8784212000E1201F291
:10084400782AEEF608EFF6C39464EE940050028022
:1008540001C39200E4300004782580027827F6086A
:02086400F6227A
:100BA700538E7F5389F0758A18758CFCC28DD28C51
:050BB700D2A9D2AF221B
:03000B000205AC3F
:1005AC00C0E0C0F0C083C082C0D075D000C000C015
:1005BC0001C002C003C004C005C006C007782112E8
:1005CC000336EF2401FFE43EFEE43DFDE43CFC7801
:1005DC002112034F783206E6B4080276007832E630
:1005EC00FF240BF8E2FD7832E62403F8E2FB120854
:1005FC006630001E78270806E6187001068606C3CA
:10060C0094B9EE940B40277827760B0876B9D20470
:10061C00801C78250806E6187001068606C394B976
:10062C00EE940B40097825760B0876B9C204D007F6
:10063C00D006D005D004D003D002D001D000D0D049
:09064C00D082D083D0F0D0E0325E
:05000300787976062269
:0B075F00E4F508E508C37879965069BE
:10076A0078211203368F0C8E0B8D0A8C09E50875D9
:10077A00F00BA4243BF8120336E50875F00BA42409
:10078A0037F8120342EB2FFFEA3EFEE93DFDE83C53
:10079A00FCAB0CAA0BA90AA809C31203254026AF71
:1007AA000CAE0BAD0AAC09E50875F00BA4243BF8B6
:1007BA0012034FE50875F00BA42434F808E6FA088A
:0507CA00E6F912035BDB
:0407CF000508808F0A
:0107D3002203
:100B9000120AF0120BA77BFE7A00790012091E12CE
:070BA000000312075F80FB58
:100AF0007580FFE5A0541F4480F5A053A01FE4F5C6
:0D0B000080E5A0541F44A0F5A053A01F22C3
:040B2A007F057E00C5
:100B2E00EF1FAA0670011E4A600BE4FDEDC3940C84
:050B3E0050EE0D80F7F0
:010B4300228F
:020AD200A90772
:100AD400E4FBC294E9139294120B2AD294E9C3134F
:0C0AE400F90BBB08ED7F057E00020B2E15
:100B4400E4FBC294ECC313FCD294309403430480BA
:090B5400120B2A0BBB08EBAF04E5
:010B5D002275
:100A3C00C205D2947F0C7E00120B2EC2947F507E86
:100A4C0000120B2ED2947F0A7E00120B2EA29492CF
:060A5C0005120B2AA205A1
:010A62002271
:1008E300120A3C7FCC120AD27F44120AD2120A3C6B
:1008F3007FCC120AD27FBE120AD2120B44780EA604
:1009030007120B4408EFF6FE18E6FDEEFCEC1201AD
:0B091300B9E4FBFA798078410201177B
:040C22008482808EBA
:100BE500E4FEC297EF1392A3EFC313FFD2970EBE95
:020BF50008F006
:010BF70022DB
:100BD100C29300C29700D29300120BE5AF05120B2E
:040BE100E5C29322B4
:10095800E4FDC29300C29700D29300120BE5E4FFB6
:10096800C297EDC313FD30A303430580D2970FBF91
:1009780008EEC29300C29700D29700C2A300D2A388
:0309880000AF05B8
:01098B002249
:06091E008B088A09890A1A
:10092400900C25E493FFE4FD120BD1E4FCEC900C55
:100934002293FFAB08AA09A90A8C827583001202CC
:1009440073FD120BD10CBC03E4900C25E493FF7DE2
:0409540080020BD141
:060A8A008B088A09890AAD
:100A9000E4FCEC900C229304FF120958AB08AA095D
:0F0AA000A90A8C82758300EF1202A00CBC03E33D
:010AAF002224
:040B5E00D2A07F059D
:100B6200000000000000000000000000000000AED5
:060B7200071FEE70EB22EC
:0F0BF800D2A1120B5EC2A17F05120B62C2A02216
:0C0C1600C2A1120B5ED2A17F05020B628E
:0209E800AD0759
:1009EA00E4FCC2A07F05120B62ED30E704D2A180BD
:1009FA0002C2A17F05120B62D2A0ED25E0FD7F05A0
:090A0A00120B620CBC08DBC2A057
:010A130022C0
:100B0D00E4FC120B5EED25E0FD30A103430501C2AF
:0C0B1D00A07F05120B620CBC08E8AF05BD
:010B290022A9
:030BBC001209E833
:100BBF00120B5EA2A1E433FDC2A07F05120B62AF40
:010BCF000520
:010BD0002202
:100B7800C2A0EF24FF92A17F05120B62120B5EC286
:080B8800A0D2A17F05020B625F
:100A1400120BF87F90120BBC7F01120BBC120BF867
:100A24007F911209E8120BBF120B0DAD077F011263
:070A34000B78120C16AF0550
:010A3B002298
:100AB000E4F508F509FB120A14EF2509F509E435F8
:100AC00008F5080BBB0AEFAE08AF097C007D0A02EF
:020AD00002C260
:100A6300E4FFC2C4D2C2D2B5D2B420B2027F052001
:100A7300B3027F04D2C4C2C2D2B5D2B420B2027FC1
:060A83000920B3027F0808
:010A8900224A
:03075B00010DFF8E
:0608A5008B098A0A890B91
:1008AB00E4FFFEAB09AA0AA90B8E82758300120224
:1008BB0073FDA806088002C333D8FC42070EBE089E
:1008CB00E2E50D6F6011EFF4F580E5A0541F448055
:0708DB00F5A053A01F8F0DD3
:0108E20022F3
:0F0C0700C0F9A4B0999282F88090FFBF8E899AAD
:100866007580FFE5A0541F44E0F5A053A01FA8071C
:100876007401088002C333D8FCF580E5A0541F44F8
:10088600C0F5A053A01FED900C0793F580EB600315
:0F08960053807FE5A0541F44E0F5A053A01F221C
:10000E00EC4D6011E8497017ED33EC3304600DE4EC
:10001E00FCFFFEFD22E933E8330470F802025E12A3
:10002E00022958046009E4CC2481500628500902A4
:10003E000268284003020265C0E0EB4A7044B980B2
:10004E0006D0E0FB020254EF4E701CBD8008EBFFA1
:10005E00EAFEE9FD80EBE98DF0A4FEE5F00200F783
:10006E00E9CDF9EAFEEBFFEF89F0A4FCE5F0CE89CD
:10007E00F0A42EFFE435F0CD89F0A42DFEE435F08A
:10008E008067EF4E7005BD80D780C3EF8BF0A4ACB8
:10009E00F0EE8BF0A42CFCE435F0F8EF8AF0A42CF3
:1000AE00E5F038FCE433CB8DF0A42CFCE5F03BF806
:1000BE00EE8AF0A42CFCE5F038F8E433CF89F0A4F6
:1000CE002CFCE5F038CF3400CE89F0A42FFFE5F0FC
:1000DE003EFEE433C98DF0A42EFEE5F039CD8AF054
:1000EE00A42FFFE5F03EFEE43DFD33D0E0FB5007CC
:1000FE000BBB000F020268EC2CFCEF33FFEE33FE5D
:06010E00ED33FD0202408A
:10011400020268EC5D046005E85904700302025EA3
:10012400120229580460F6EC4860F2EC7004FDFEFB
:10013400FF22C860DB2481C85009C39860025006BE
:100144000202659850CAF582E9294B4A7005AB82D0
:1001540002025475F0007C1A7880C3EF9BEE9AED8E
:1001640099400DC3EF9BFFEE9AFEED99FDE842F036
:10017400DC23ACF0D0E0FFD0E0FED0E0FDAB822089
:10018400E7101BEB60BAEC2CFCEF33FFEE33FEED13
:1001940033FD020240E803F830E705C0F075F000D3
:1001A400EF2FFFEE33FEED33FD40B830E7C280AAF7
:1001B40075F020800E75F010800575F0087D007EC6
:1001C400007F003392D530D503120317EC3340106F
:1001D400EF33FFEE33FEED33FDEC33FCD5F0ED22CF
:0E01E400E5F0247EA2D513CC92E7CDCEFF220B
:1001F200EDD2E7CD33EC3392D524814006E4FFFE05
:10020200FDFC22FCE4CFCECDCC24E0501174FF8063
:10021200EDC3CC13CCCD13CDCE13CECF13CF047000
:07022200F030D5DE020317E6
:10022900E9D2E7C933E833F892D5EDD2E7CD33EC1B
:0702390033FC5002B2D52294
:10024000EC30E7100FBF000C0EBE00080DBD00041F
:100250000BEB6014A2D5EB13FCED92E7FD2274FFCB
:10026000FCFDFEFF22E480F8A2D574FF13FC7D8024
:03027000E480EF38
:03000000020655A0
:0C065500787FE4F6D8FD75817C02069CDD
:10027300BB010CE58229F582E5833AF583E0225040
:1002830006E92582F8E622BBFE06E92582F8E2228A
:0D029300E58229F582E5833AF583E49322A4
:1002A000F8BB010DE58229F582E5833AF583E8F094
:1002B000225006E92582C8F622BBFE05E92582C840
:0202C000F22228
:1002C200BC000BBE0029EF8DF084FFADF022E4CC20
:1002D200F875F008EF2FFFEE33FEEC33FCEE9DECE9
:1002E200984005FCEE9DFE0FD5F0E9E4CEFD22ED2F
:1002F200F8F5F0EE8420D21CFEADF075F008EF2F79
:10030200FFED33FD4007985006D5F0F222C398FD69
:050312000FD5F0EA2206
:0E031700C3E49FFFE49EFEE49DFDE49CFC22F7
:10032500EB9FF5F0EA9E42F0E99D42F0E89C45F02E
:0103350022A5
:0C033600E6FC08E6FD08E6FE08E6FF22F3
:0D034200E6FB08E6F908E6FA08E6CBF8222B
:0C034F00ECF608EDF608EEF608EFF622DA
:06035B008A838982E4732D
:10066100020B90E493A3F8E493A34003F68001F214
:1006710008DFF48029E493A3F85407240CC8C3339A
:10068100C4540F4420C8834004F456800146F6DF69
:10069100E4800B01020408102040809006E1E47E12
:1006A100019360BCA3FF543F30E509541FFEE4935E
:1006B100A360010ECF54C025E060A840B8E493A325
:1006C100FAE493A3F8E493A3C8C582C8CAC583CA50
:1006D100F0A3C8C582C8CAC583CADFE9DEE780BE08
:01075E00009A
:00000001FF
